{
  "_format": "hh-sol-artifact-1",
  "contractName": "DCNTSDK",
  "sourceName": "contracts/DCNTSDK.sol",
  "abi": [
    {
      "inputs": [
        {
          "internalType": "address",
          "name": "_DCNT721AImplementation",
          "type": "address"
        },
        {
          "internalType": "address",
          "name": "_DCNT4907AImplementation",
          "type": "address"
        },
        {
          "internalType": "address",
          "name": "_DCNTCrescendoImplementation",
          "type": "address"
        },
        {
          "internalType": "address",
          "name": "_DCNTVaultImplementation",
          "type": "address"
        },
        {
          "internalType": "address",
          "name": "_DCNTStakingImplementation",
          "type": "address"
        },
        {
          "internalType": "address",
          "name": "_metadataRenderer",
          "type": "address"
        },
        {
          "internalType": "address",
          "name": "_contractRegistry",
          "type": "address"
        },
        {
          "internalType": "address",
          "name": "_SplitMain",
          "type": "address"
        }
      ],
      "stateMutability": "nonpayable",
      "type": "constructor"
    },
    {
      "anonymous": false,
      "inputs": [
        {
          "indexed": false,
          "internalType": "address",
          "name": "DCNT4907A",
          "type": "address"
        }
      ],
      "name": "DeployDCNT4907A",
      "type": "event"
    },
    {
      "anonymous": false,
      "inputs": [
        {
          "indexed": false,
          "internalType": "address",
          "name": "DCNT721A",
          "type": "address"
        }
      ],
      "name": "DeployDCNT721A",
      "type": "event"
    },
    {
      "anonymous": false,
      "inputs": [
        {
          "indexed": false,
          "internalType": "address",
          "name": "DCNTCrescendo",
          "type": "address"
        }
      ],
      "name": "DeployDCNTCrescendo",
      "type": "event"
    },
    {
      "anonymous": false,
      "inputs": [
        {
          "indexed": false,
          "internalType": "address",
          "name": "DCNTStaking",
          "type": "address"
        }
      ],
      "name": "DeployDCNTStaking",
      "type": "event"
    },
    {
      "anonymous": false,
      "inputs": [
        {
          "indexed": false,
          "internalType": "address",
          "name": "DCNTVault",
          "type": "address"
        }
      ],
      "name": "DeployDCNTVault",
      "type": "event"
    },
    {
      "anonymous": false,
      "inputs": [
        {
          "indexed": true,
          "internalType": "address",
          "name": "previousOwner",
          "type": "address"
        },
        {
          "indexed": true,
          "internalType": "address",
          "name": "newOwner",
          "type": "address"
        }
      ],
      "name": "OwnershipTransferred",
      "type": "event"
    },
    {
      "inputs": [],
      "name": "DCNT4907AImplementation",
      "outputs": [
        {
          "internalType": "address",
          "name": "",
          "type": "address"
        }
      ],
      "stateMutability": "view",
      "type": "function"
    },
    {
      "inputs": [],
      "name": "DCNT721AImplementation",
      "outputs": [
        {
          "internalType": "address",
          "name": "",
          "type": "address"
        }
      ],
      "stateMutability": "view",
      "type": "function"
    },
    {
      "inputs": [],
      "name": "DCNTCrescendoImplementation",
      "outputs": [
        {
          "internalType": "address",
          "name": "",
          "type": "address"
        }
      ],
      "stateMutability": "view",
      "type": "function"
    },
    {
      "inputs": [],
      "name": "DCNTStakingImplementation",
      "outputs": [
        {
          "internalType": "address",
          "name": "",
          "type": "address"
        }
      ],
      "stateMutability": "view",
      "type": "function"
    },
    {
      "inputs": [],
      "name": "DCNTVaultImplementation",
      "outputs": [
        {
          "internalType": "address",
          "name": "",
          "type": "address"
        }
      ],
      "stateMutability": "view",
      "type": "function"
    },
    {
      "inputs": [],
      "name": "SplitMain",
      "outputs": [
        {
          "internalType": "address",
          "name": "",
          "type": "address"
        }
      ],
      "stateMutability": "view",
      "type": "function"
    },
    {
      "inputs": [],
      "name": "contractRegistry",
      "outputs": [
        {
          "internalType": "address",
          "name": "",
          "type": "address"
        }
      ],
      "stateMutability": "view",
      "type": "function"
    },
    {
      "inputs": [
        {
          "components": [
            {
              "internalType": "string",
              "name": "name",
              "type": "string"
            },
            {
              "internalType": "string",
              "name": "symbol",
              "type": "string"
            },
            {
              "internalType": "bool",
              "name": "hasAdjustableCap",
              "type": "bool"
            },
            {
              "internalType": "uint256",
              "name": "maxTokens",
              "type": "uint256"
            },
            {
              "internalType": "uint256",
              "name": "tokenPrice",
              "type": "uint256"
            },
            {
              "internalType": "uint256",
              "name": "maxTokenPurchase",
              "type": "uint256"
            },
            {
              "internalType": "bytes32",
              "name": "presaleMerkleRoot",
              "type": "bytes32"
            },
            {
              "internalType": "uint256",
              "name": "presaleStart",
              "type": "uint256"
            },
            {
              "internalType": "uint256",
              "name": "presaleEnd",
              "type": "uint256"
            },
            {
              "internalType": "uint256",
              "name": "saleStart",
              "type": "uint256"
            },
            {
              "internalType": "uint256",
              "name": "saleEnd",
              "type": "uint256"
            },
            {
              "internalType": "uint256",
              "name": "royaltyBPS",
              "type": "uint256"
            }
          ],
          "internalType": "struct EditionConfig",
          "name": "_editionConfig",
          "type": "tuple"
        },
        {
          "components": [
            {
              "internalType": "string",
              "name": "contractURI",
              "type": "string"
            },
            {
              "internalType": "string",
              "name": "metadataURI",
              "type": "string"
            },
            {
              "internalType": "bytes",
              "name": "metadataRendererInit",
              "type": "bytes"
            },
            {
              "internalType": "address",
              "name": "parentIP",
              "type": "address"
            }
          ],
          "internalType": "struct MetadataConfig",
          "name": "_metadataConfig",
          "type": "tuple"
        },
        {
          "components": [
            {
              "internalType": "address",
              "name": "tokenAddress",
              "type": "address"
            },
            {
              "internalType": "uint88",
              "name": "minBalance",
              "type": "uint88"
            },
            {
              "internalType": "enum SaleType",
              "name": "saleType",
              "type": "uint8"
            }
          ],
          "internalType": "struct TokenGateConfig",
          "name": "_tokenGateConfig",
          "type": "tuple"
        }
      ],
      "name": "deployDCNT4907A",
      "outputs": [
        {
          "internalType": "address",
          "name": "clone",
          "type": "address"
        }
      ],
      "stateMutability": "nonpayable",
      "type": "function"
    },
    {
      "inputs": [
        {
          "components": [
            {
              "internalType": "string",
              "name": "name",
              "type": "string"
            },
            {
              "internalType": "string",
              "name": "symbol",
              "type": "string"
            },
            {
              "internalType": "bool",
              "name": "hasAdjustableCap",
              "type": "bool"
            },
            {
              "internalType": "uint256",
              "name": "maxTokens",
              "type": "uint256"
            },
            {
              "internalType": "uint256",
              "name": "tokenPrice",
              "type": "uint256"
            },
            {
              "internalType": "uint256",
              "name": "maxTokenPurchase",
              "type": "uint256"
            },
            {
              "internalType": "bytes32",
              "name": "presaleMerkleRoot",
              "type": "bytes32"
            },
            {
              "internalType": "uint256",
              "name": "presaleStart",
              "type": "uint256"
            },
            {
              "internalType": "uint256",
              "name": "presaleEnd",
              "type": "uint256"
            },
            {
              "internalType": "uint256",
              "name": "saleStart",
              "type": "uint256"
            },
            {
              "internalType": "uint256",
              "name": "saleEnd",
              "type": "uint256"
            },
            {
              "internalType": "uint256",
              "name": "royaltyBPS",
              "type": "uint256"
            }
          ],
          "internalType": "struct EditionConfig",
          "name": "_editionConfig",
          "type": "tuple"
        },
        {
          "components": [
            {
              "internalType": "string",
              "name": "contractURI",
              "type": "string"
            },
            {
              "internalType": "string",
              "name": "metadataURI",
              "type": "string"
            },
            {
              "internalType": "bytes",
              "name": "metadataRendererInit",
              "type": "bytes"
            },
            {
              "internalType": "address",
              "name": "parentIP",
              "type": "address"
            }
          ],
          "internalType": "struct MetadataConfig",
          "name": "_metadataConfig",
          "type": "tuple"
        },
        {
          "components": [
            {
              "internalType": "address",
              "name": "tokenAddress",
              "type": "address"
            },
            {
              "internalType": "uint88",
              "name": "minBalance",
              "type": "uint88"
            },
            {
              "internalType": "enum SaleType",
              "name": "saleType",
              "type": "uint8"
            }
          ],
          "internalType": "struct TokenGateConfig",
          "name": "_tokenGateConfig",
          "type": "tuple"
        }
      ],
      "name": "deployDCNT721A",
      "outputs": [
        {
          "internalType": "address",
          "name": "clone",
          "type": "address"
        }
      ],
      "stateMutability": "nonpayable",
      "type": "function"
    },
    {
      "inputs": [
        {
          "components": [
            {
              "internalType": "string",
              "name": "name",
              "type": "string"
            },
            {
              "internalType": "string",
              "name": "symbol",
              "type": "string"
            },
            {
              "internalType": "uint256",
              "name": "initialPrice",
              "type": "uint256"
            },
            {
              "internalType": "uint256",
              "name": "step1",
              "type": "uint256"
            },
            {
              "internalType": "uint256",
              "name": "step2",
              "type": "uint256"
            },
            {
              "internalType": "uint256",
              "name": "hitch",
              "type": "uint256"
            },
            {
              "internalType": "uint256",
              "name": "takeRateBPS",
              "type": "uint256"
            },
            {
              "internalType": "uint256",
              "name": "unlockDate",
              "type": "uint256"
            },
            {
              "internalType": "uint256",
              "name": "saleStart",
              "type": "uint256"
            },
            {
              "internalType": "uint256",
              "name": "royaltyBPS",
              "type": "uint256"
            }
          ],
          "internalType": "struct CrescendoConfig",
          "name": "_config",
          "type": "tuple"
        },
        {
          "components": [
            {
              "internalType": "string",
              "name": "contractURI",
              "type": "string"
            },
            {
              "internalType": "string",
              "name": "metadataURI",
              "type": "string"
            },
            {
              "internalType": "bytes",
              "name": "metadataRendererInit",
              "type": "bytes"
            },
            {
              "internalType": "address",
              "name": "parentIP",
              "type": "address"
            }
          ],
          "internalType": "struct MetadataConfig",
          "name": "_metadataConfig",
          "type": "tuple"
        }
      ],
      "name": "deployDCNTCrescendo",
      "outputs": [
        {
          "internalType": "address",
          "name": "clone",
          "type": "address"
        }
      ],
      "stateMutability": "nonpayable",
      "type": "function"
    },
    {
      "inputs": [
        {
          "internalType": "address",
          "name": "_nft",
          "type": "address"
        },
        {
          "internalType": "address",
          "name": "_token",
          "type": "address"
        },
        {
          "internalType": "uint256",
          "name": "_vaultDuration",
          "type": "uint256"
        },
        {
          "internalType": "uint256",
          "name": "_totalSupply",
          "type": "uint256"
        }
      ],
      "name": "deployDCNTStaking",
      "outputs": [
        {
          "internalType": "address",
          "name": "clone",
          "type": "address"
        }
      ],
      "stateMutability": "nonpayable",
      "type": "function"
    },
    {
      "inputs": [
        {
          "internalType": "address",
          "name": "_vaultDistributionTokenAddress",
          "type": "address"
        },
        {
          "internalType": "address",
          "name": "_nftVaultKeyAddress",
          "type": "address"
        },
        {
          "internalType": "uint256",
          "name": "_nftTotalSupply",
          "type": "uint256"
        },
        {
          "internalType": "uint256",
          "name": "_unlockDate",
          "type": "uint256"
        }
      ],
      "name": "deployDCNTVault",
      "outputs": [
        {
          "internalType": "address",
          "name": "clone",
          "type": "address"
        }
      ],
      "stateMutability": "nonpayable",
      "type": "function"
    },
    {
      "inputs": [],
      "name": "metadataRenderer",
      "outputs": [
        {
          "internalType": "address",
          "name": "",
          "type": "address"
        }
      ],
      "stateMutability": "view",
      "type": "function"
    },
    {
      "inputs": [],
      "name": "owner",
      "outputs": [
        {
          "internalType": "address",
          "name": "",
          "type": "address"
        }
      ],
      "stateMutability": "view",
      "type": "function"
    },
    {
      "inputs": [],
      "name": "renounceOwnership",
      "outputs": [],
      "stateMutability": "nonpayable",
      "type": "function"
    },
    {
      "inputs": [
        {
          "internalType": "address",
          "name": "newOwner",
          "type": "address"
        }
      ],
      "name": "transferOwnership",
      "outputs": [],
      "stateMutability": "nonpayable",
      "type": "function"
    }
  ],
  "bytecode": "0x60806040523480156200001157600080fd5b50604051620016b8380380620016b883398101604081905262000034916200013e565b6200003f33620000d1565b600180546001600160a01b03199081166001600160a01b039a8b1617909155600280548216988a1698909817909755600380548816968916969096179095556004805487169488169490941790935560058054861692871692909217909155600680548516918616919091179055600780548416918516919091179055600880549092169216919091179055620001e6565b600080546001600160a01b038381166001600160a01b0319831681178455604051919092169283917f8be0079c531659141344cd1fd0a4f28419497f9722a3daafe3b4186f6b6457e09190a35050565b80516001600160a01b03811681146200013957600080fd5b919050565b600080600080600080600080610100898b0312156200015c57600080fd5b620001678962000121565b97506200017760208a0162000121565b96506200018760408a0162000121565b95506200019760608a0162000121565b9450620001a760808a0162000121565b9350620001b760a08a0162000121565b9250620001c760c08a0162000121565b9150620001d760e08a0162000121565b90509295985092959890939650565b6114c280620001f66000396000f3fe608060405234801561001057600080fd5b50600436106101005760003560e01c80638da5cb5b11610097578063bc10a4fa11610066578063bc10a4fa146101fa578063ca825bb51461020d578063eef702e914610220578063f2fde38b1461023357600080fd5b80638da5cb5b146101b05780639f61dfec146101c1578063abf410e5146101d4578063b4675ed6146101e757600080fd5b806370319970116100d3578063703199701461016d578063715018a61461018057806373d622f81461018a57806380fab9ee1461019d57600080fd5b806310a089131461010557806338905898146101345780633c3b370b146101475780634285656b1461015a575b600080fd5b600154610118906001600160a01b031681565b6040516001600160a01b03909116815260200160405180910390f35b610118610142366004610e1a565b610246565b600554610118906001600160a01b031681565b600254610118906001600160a01b031681565b600654610118906001600160a01b031681565b6101886103e1565b005b610118610198366004610f27565b6103f5565b6101186101ab366004611001565b610599565b6000546001600160a01b0316610118565b600454610118906001600160a01b031681565b600754610118906001600160a01b031681565b6101186101f5366004611001565b610736565b610118610208366004610f27565b6108c8565b600354610118906001600160a01b031681565b600854610118906001600160a01b031681565b61018861024136600461113e565b610a61565b60035460009061025e906001600160a01b0316610adf565b6006546008546040519293506000926001600160a01b03808616936102909333938a938a93811692169060240161121c565b60408051601f198184030181529181526020820180516001600160e01b0316624ee2bb60e71b179052516102c49190611309565b6000604051808303816000865af19150503d8060008114610301576040519150601f19603f3d011682016040523d82523d6000602084013e610306565b606091505b505090508061031457600080fd5b60075460405163ede4973960e01b81523360048201526001600160a01b03848116602483015260606044830152600d60648301526c44434e544372657363656e646f60981b60848301529091169063ede497399060a401600060405180830381600087803b15801561038557600080fd5b505af1158015610399573d6000803e3d6000fd5b50506040516001600160a01b03851681527f2c14c8ffafc8bfdf42e6469d6c292eeaebf445beafb817fb0bc9df3ebd89f0069250602001905060405180910390a15092915050565b6103e9610b7c565b6103f36000610bd6565b565b60045460009061040d906001600160a01b0316610adf565b6040513360248201526001600160a01b03878116604483015286811660648301526084820186905260a4820185905291925060009183169060c40160408051601f198184030181529181526020820180516001600160e01b03166314d6c7d760e31b1790525161047d9190611309565b6000604051808303816000865af19150503d80600081146104ba576040519150601f19603f3d011682016040523d82523d6000602084013e6104bf565b606091505b50509050806104cd57600080fd5b60075460405163ede4973960e01b81523360048201526001600160a01b0384811660248301526060604483015260096064830152681110d39515985d5b1d60ba1b60848301529091169063ede497399060a401600060405180830381600087803b15801561053a57600080fd5b505af115801561054e573d6000803e3d6000fd5b50506040516001600160a01b03851681527ff12b488daa6140ffee78fe266c37addbbaea912b09ce36e613a17844dac4255b925060200190505b60405180910390a150949350505050565b6001546000906105b1906001600160a01b0316610adf565b6006546008546040519293506000926001600160a01b03808616936105e79333938b938b938b9390821692911690602401611377565b60408051601f198184030181529181526020820180516001600160e01b03166364f7af7760e11b1790525161061c9190611309565b6000604051808303816000865af19150503d8060008114610659576040519150601f19603f3d011682016040523d82523d6000602084013e61065e565b606091505b505090508061066c57600080fd5b60075460405163ede4973960e01b81523360048201526001600160a01b03848116602483015260606044830152600860648301526744434e543732314160c01b60848301529091169063ede497399060a401600060405180830381600087803b1580156106d857600080fd5b505af11580156106ec573d6000803e3d6000fd5b50506040516001600160a01b03851681527f149ce80ffd882db4157fb46dd05201336d87f52ace89212615557e5455b8a0df925060200190505b60405180910390a1509392505050565b60025460009061074e906001600160a01b0316610adf565b6006546008546040519293506000926001600160a01b03808616936107849333938b938b938b9390821692911690602401611377565b60408051601f198184030181529181526020820180516001600160e01b03166364f7af7760e11b179052516107b99190611309565b6000604051808303816000865af19150503d80600081146107f6576040519150601f19603f3d011682016040523d82523d6000602084013e6107fb565b606091505b505090508061080957600080fd5b60075460405163ede4973960e01b81523360048201526001600160a01b03848116602483015260606044830152600960648301526844434e54343930374160b81b60848301529091169063ede497399060a401600060405180830381600087803b15801561087657600080fd5b505af115801561088a573d6000803e3d6000fd5b50506040516001600160a01b03851681527f3758a9cde202b40b236c1867c2734461fd598d835ad020bda26ca4f85838f2c492506020019050610726565b6005546000906108e0906001600160a01b0316610adf565b6040513360248201526001600160a01b03878116604483015286811660648301526084820186905260a4820185905291925060009183169060c40160408051601f198184030181529181526020820180516001600160e01b03166314d6c7d760e31b179052516109509190611309565b6000604051808303816000865af19150503d806000811461098d576040519150601f19603f3d011682016040523d82523d6000602084013e610992565b606091505b50509050806109a057600080fd5b60075460405163ede4973960e01b81523360048201526001600160a01b03848116602483015260606044830152600b60648301526a44434e545374616b696e6760a81b60848301529091169063ede497399060a401600060405180830381600087803b158015610a0f57600080fd5b505af1158015610a23573d6000803e3d6000fd5b50506040516001600160a01b03851681527fe9eeb18af71a650338802cfcb86b39b211ed34fd8a37cacc5a16514a183e8d6692506020019050610588565b610a69610b7c565b6001600160a01b038116610ad35760405162461bcd60e51b815260206004820152602660248201527f4f776e61626c653a206e6577206f776e657220697320746865207a65726f206160448201526564647265737360d01b60648201526084015b60405180910390fd5b610adc81610bd6565b50565b6000604051733d602d80600a3d3981f3363d3d373d3d3d363d7360601b81528260601b60148201526e5af43d82803e903d91602b57fd5bf360881b60288201526037816000f09150506001600160a01b038116610b775760405162461bcd60e51b8152602060048201526016602482015275115490cc4c4d8dce8818dc99585d194819985a5b195960521b6044820152606401610aca565b919050565b6000546001600160a01b031633146103f35760405162461bcd60e51b815260206004820181905260248201527f4f776e61626c653a2063616c6c6572206973206e6f7420746865206f776e65726044820152606401610aca565b600080546001600160a01b038381166001600160a01b0319831681178455604051919092169283917f8be0079c531659141344cd1fd0a4f28419497f9722a3daafe3b4186f6b6457e09190a35050565b634e487b7160e01b600052604160045260246000fd5b6040516080810167ffffffffffffffff81118282101715610c5f57610c5f610c26565b60405290565b604051610140810167ffffffffffffffff81118282101715610c5f57610c5f610c26565b604051610180810167ffffffffffffffff81118282101715610c5f57610c5f610c26565b600067ffffffffffffffff80841115610cc857610cc8610c26565b604051601f8501601f19908116603f01168101908282118183101715610cf057610cf0610c26565b81604052809350858152868686011115610d0957600080fd5b858560208301376000602087830101525050509392505050565b600082601f830112610d3457600080fd5b610d4383833560208501610cad565b9392505050565b80356001600160a01b0381168114610b7757600080fd5b600060808284031215610d7357600080fd5b610d7b610c3c565b9050813567ffffffffffffffff80821115610d9557600080fd5b610da185838601610d23565b83526020840135915080821115610db757600080fd5b610dc385838601610d23565b60208401526040840135915080821115610ddc57600080fd5b508201601f81018413610dee57600080fd5b610dfd84823560208401610cad565b604083015250610e0f60608301610d4a565b606082015292915050565b60008060408385031215610e2d57600080fd5b823567ffffffffffffffff80821115610e4557600080fd5b908401906101408287031215610e5a57600080fd5b610e62610c65565b823582811115610e7157600080fd5b610e7d88828601610d23565b825250602083013582811115610e9257600080fd5b610e9e88828601610d23565b60208301525060408301356040820152606083013560608201526080830135608082015260a083013560a082015260c083013560c082015260e083013560e0820152610100808401358183015250610120808401358183015250809450506020850135915080821115610f1057600080fd5b50610f1d85828601610d61565b9150509250929050565b60008060008060808587031215610f3d57600080fd5b610f4685610d4a565b9350610f5460208601610d4a565b93969395505050506040820135916060013590565b80358015158114610b7757600080fd5b600060608284031215610f8b57600080fd5b6040516060810181811067ffffffffffffffff82111715610fae57610fae610c26565b604052905080610fbd83610d4a565b815260208301356affffffffffffffffffffff81168114610fdd57600080fd5b6020820152604083013560038110610ff457600080fd5b6040919091015292915050565b600080600060a0848603121561101657600080fd5b833567ffffffffffffffff8082111561102e57600080fd5b90850190610180828803121561104357600080fd5b61104b610c89565b82358281111561105a57600080fd5b61106689828601610d23565b82525060208301358281111561107b57600080fd5b61108789828601610d23565b60208301525061109960408401610f69565b6040820152606083013560608201526080830135608082015260a083013560a082015260c083013560c082015260e083013560e082015261010080840135818301525061012080840135818301525061014080840135818301525061016080840135818301525080955050602086013591508082111561111857600080fd5b5061112586828701610d61565b9250506111358560408601610f79565b90509250925092565b60006020828403121561115057600080fd5b610d4382610d4a565b60005b8381101561117457818101518382015260200161115c565b83811115611183576000848401525b50505050565b600081518084526111a1816020860160208601611159565b601f01601f19169290920160200192915050565b60008151608084526111ca6080850182611189565b9050602083015184820360208601526111e38282611189565b915050604083015184820360408601526111fd8282611189565b6060948501516001600160a01b03169590940194909452509092915050565b60018060a01b038616815260a06020820152600085516101408060a08501526112496101e0850183611189565b91506020880151609f198584030160c08601526112668382611189565b925050604088015160e08501526060880151610100818187015260808a01519150610120828188015260a08b01518488015260c08b015161016088015260e08b0151610180880152818b01516101a0880152808b01516101c08801525050505082810360408401526112d881876111b5565b9150506112f060608301856001600160a01b03169052565b6001600160a01b03831660808301529695505050505050565b6000825161131b818460208701611159565b9190910192915050565b80516001600160a01b031682526020808201516affffffffffffffffffffff169083015260408101516003811061136c57634e487b7160e01b600052602160045260246000fd5b806040840152505050565b600061010060018060a01b0389168352806020840152875161018080838601526113a5610280860183611189565b915060208a015161012060ff1987850301818801526113c48483611189565b935060408c015191506101406113dd8189018415159052565b60608d01516101608981019190915260808e01519489019490945260a08d01516101a089015260c08d01516101c089015260e08d01516101e0890152858d0151610200890152908c01516102208801528b015161024087015250890151610260850152838103604085015261145281896111b5565b925050506114636060830186611325565b6001600160a01b03841660c08301526001600160a01b03831660e083015297965050505050505056fea2646970667358221220508568834c6861581694aeed1b4c5d5b838c9908b6c31f19cf0acf86e5b2265964736f6c63430008090033",
  "linkReferences": {},
  "deployedLinkReferences": {}
}