{
  "_format": "hh-sol-artifact-1",
  "contractName": "MockERC721",
  "sourceName": "contracts/mocks/MockERC721.sol",
  "abi": [
    {
      "inputs": [
        {
          "internalType": "string",
          "name": "name",
          "type": "string"
        },
        {
          "internalType": "string",
          "name": "symbol",
          "type": "string"
        }
      ],
      "stateMutability": "nonpayable",
      "type": "constructor"
    },
    {
      "anonymous": false,
      "inputs": [
        {
          "indexed": true,
          "internalType": "address",
          "name": "owner",
          "type": "address"
        },
        {
          "indexed": true,
          "internalType": "address",
          "name": "approved",
          "type": "address"
        },
        {
          "indexed": true,
          "internalType": "uint256",
          "name": "tokenId",
          "type": "uint256"
        }
      ],
      "name": "Approval",
      "type": "event"
    },
    {
      "anonymous": false,
      "inputs": [
        {
          "indexed": true,
          "internalType": "address",
          "name": "owner",
          "type": "address"
        },
        {
          "indexed": true,
          "internalType": "address",
          "name": "operator",
          "type": "address"
        },
        {
          "indexed": false,
          "internalType": "bool",
          "name": "approved",
          "type": "bool"
        }
      ],
      "name": "ApprovalForAll",
      "type": "event"
    },
    {
      "anonymous": false,
      "inputs": [
        {
          "indexed": true,
          "internalType": "address",
          "name": "previousOwner",
          "type": "address"
        },
        {
          "indexed": true,
          "internalType": "address",
          "name": "newOwner",
          "type": "address"
        }
      ],
      "name": "OwnershipTransferred",
      "type": "event"
    },
    {
      "anonymous": false,
      "inputs": [
        {
          "indexed": true,
          "internalType": "address",
          "name": "from",
          "type": "address"
        },
        {
          "indexed": true,
          "internalType": "address",
          "name": "to",
          "type": "address"
        },
        {
          "indexed": true,
          "internalType": "uint256",
          "name": "tokenId",
          "type": "uint256"
        }
      ],
      "name": "Transfer",
      "type": "event"
    },
    {
      "inputs": [
        {
          "internalType": "address",
          "name": "to",
          "type": "address"
        },
        {
          "internalType": "uint256",
          "name": "tokenId",
          "type": "uint256"
        }
      ],
      "name": "approve",
      "outputs": [],
      "stateMutability": "nonpayable",
      "type": "function"
    },
    {
      "inputs": [
        {
          "internalType": "address",
          "name": "owner",
          "type": "address"
        }
      ],
      "name": "balanceOf",
      "outputs": [
        {
          "internalType": "uint256",
          "name": "",
          "type": "uint256"
        }
      ],
      "stateMutability": "view",
      "type": "function"
    },
    {
      "inputs": [
        {
          "internalType": "uint256",
          "name": "tokenId",
          "type": "uint256"
        }
      ],
      "name": "getApproved",
      "outputs": [
        {
          "internalType": "address",
          "name": "",
          "type": "address"
        }
      ],
      "stateMutability": "view",
      "type": "function"
    },
    {
      "inputs": [
        {
          "internalType": "address",
          "name": "owner",
          "type": "address"
        },
        {
          "internalType": "address",
          "name": "operator",
          "type": "address"
        }
      ],
      "name": "isApprovedForAll",
      "outputs": [
        {
          "internalType": "bool",
          "name": "",
          "type": "bool"
        }
      ],
      "stateMutability": "view",
      "type": "function"
    },
    {
      "inputs": [
        {
          "internalType": "uint256",
          "name": "numberOfTokens",
          "type": "uint256"
        }
      ],
      "name": "mintNft",
      "outputs": [],
      "stateMutability": "payable",
      "type": "function"
    },
    {
      "inputs": [],
      "name": "name",
      "outputs": [
        {
          "internalType": "string",
          "name": "",
          "type": "string"
        }
      ],
      "stateMutability": "view",
      "type": "function"
    },
    {
      "inputs": [],
      "name": "owner",
      "outputs": [
        {
          "internalType": "address",
          "name": "",
          "type": "address"
        }
      ],
      "stateMutability": "view",
      "type": "function"
    },
    {
      "inputs": [
        {
          "internalType": "uint256",
          "name": "tokenId",
          "type": "uint256"
        }
      ],
      "name": "ownerOf",
      "outputs": [
        {
          "internalType": "address",
          "name": "",
          "type": "address"
        }
      ],
      "stateMutability": "view",
      "type": "function"
    },
    {
      "inputs": [],
      "name": "renounceOwnership",
      "outputs": [],
      "stateMutability": "nonpayable",
      "type": "function"
    },
    {
      "inputs": [
        {
          "internalType": "address",
          "name": "from",
          "type": "address"
        },
        {
          "internalType": "address",
          "name": "to",
          "type": "address"
        },
        {
          "internalType": "uint256",
          "name": "tokenId",
          "type": "uint256"
        }
      ],
      "name": "safeTransferFrom",
      "outputs": [],
      "stateMutability": "nonpayable",
      "type": "function"
    },
    {
      "inputs": [
        {
          "internalType": "address",
          "name": "from",
          "type": "address"
        },
        {
          "internalType": "address",
          "name": "to",
          "type": "address"
        },
        {
          "internalType": "uint256",
          "name": "tokenId",
          "type": "uint256"
        },
        {
          "internalType": "bytes",
          "name": "data",
          "type": "bytes"
        }
      ],
      "name": "safeTransferFrom",
      "outputs": [],
      "stateMutability": "nonpayable",
      "type": "function"
    },
    {
      "inputs": [
        {
          "internalType": "address",
          "name": "operator",
          "type": "address"
        },
        {
          "internalType": "bool",
          "name": "approved",
          "type": "bool"
        }
      ],
      "name": "setApprovalForAll",
      "outputs": [],
      "stateMutability": "nonpayable",
      "type": "function"
    },
    {
      "inputs": [
        {
          "internalType": "bytes4",
          "name": "interfaceId",
          "type": "bytes4"
        }
      ],
      "name": "supportsInterface",
      "outputs": [
        {
          "internalType": "bool",
          "name": "",
          "type": "bool"
        }
      ],
      "stateMutability": "view",
      "type": "function"
    },
    {
      "inputs": [],
      "name": "symbol",
      "outputs": [
        {
          "internalType": "string",
          "name": "",
          "type": "string"
        }
      ],
      "stateMutability": "view",
      "type": "function"
    },
    {
      "inputs": [
        {
          "internalType": "uint256",
          "name": "tokenId",
          "type": "uint256"
        }
      ],
      "name": "tokenURI",
      "outputs": [
        {
          "internalType": "string",
          "name": "",
          "type": "string"
        }
      ],
      "stateMutability": "view",
      "type": "function"
    },
    {
      "inputs": [],
      "name": "totalSupply",
      "outputs": [
        {
          "internalType": "uint256",
          "name": "",
          "type": "uint256"
        }
      ],
      "stateMutability": "view",
      "type": "function"
    },
    {
      "inputs": [
        {
          "internalType": "address",
          "name": "from",
          "type": "address"
        },
        {
          "internalType": "address",
          "name": "to",
          "type": "address"
        },
        {
          "internalType": "uint256",
          "name": "tokenId",
          "type": "uint256"
        }
      ],
      "name": "transferFrom",
      "outputs": [],
      "stateMutability": "nonpayable",
      "type": "function"
    },
    {
      "inputs": [
        {
          "internalType": "address",
          "name": "newOwner",
          "type": "address"
        }
      ],
      "name": "transferOwnership",
      "outputs": [],
      "stateMutability": "nonpayable",
      "type": "function"
    }
  ],
  "bytecode": "0x60806040523480156200001157600080fd5b50604051620018ad380380620018ad833981016040819052620000349162000251565b8151829082906200004d906000906020850190620000de565b50805162000063906001906020840190620000de565b505050620000806200007a6200008860201b60201c565b6200008c565b5050620002f8565b3390565b600680546001600160a01b038381166001600160a01b0319831681179093556040519116919082907f8be0079c531659141344cd1fd0a4f28419497f9722a3daafe3b4186f6b6457e090600090a35050565b828054620000ec90620002bb565b90600052602060002090601f0160209004810192826200011057600085556200015b565b82601f106200012b57805160ff19168380011785556200015b565b828001600101855582156200015b579182015b828111156200015b5782518255916020019190600101906200013e565b50620001699291506200016d565b5090565b5b808211156200016957600081556001016200016e565b634e487b7160e01b600052604160045260246000fd5b600082601f830112620001ac57600080fd5b81516001600160401b0380821115620001c957620001c962000184565b604051601f8301601f19908116603f01168101908282118183101715620001f457620001f462000184565b816040528381526020925086838588010111156200021157600080fd5b600091505b8382101562000235578582018301518183018401529082019062000216565b83821115620002475760008385830101525b9695505050505050565b600080604083850312156200026557600080fd5b82516001600160401b03808211156200027d57600080fd5b6200028b868387016200019a565b93506020850151915080821115620002a257600080fd5b50620002b1858286016200019a565b9150509250929050565b600181811c90821680620002d057607f821691505b60208210811415620002f257634e487b7160e01b600052602260045260246000fd5b50919050565b6115a580620003086000396000f3fe6080604052600436106101095760003560e01c806370a0823111610095578063a22cb46511610064578063a22cb465146102be578063b88d4fde146102de578063c87b56dd146102fe578063e985e9c51461031e578063f2fde38b1461036757600080fd5b806370a0823114610256578063715018a6146102765780638da5cb5b1461028b57806395d89b41146102a957600080fd5b80630d730acc116100dc5780630d730acc146101bf57806318160ddd146101d257806323b872dd146101f657806342842e0e146102165780636352211e1461023657600080fd5b806301ffc9a71461010e57806306fdde0314610143578063081812fc14610165578063095ea7b31461019d575b600080fd5b34801561011a57600080fd5b5061012e6101293660046110b8565b610387565b60405190151581526020015b60405180910390f35b34801561014f57600080fd5b506101586103d9565b60405161013a919061112d565b34801561017157600080fd5b50610185610180366004611140565b61046b565b6040516001600160a01b03909116815260200161013a565b3480156101a957600080fd5b506101bd6101b8366004611175565b610492565b005b6101bd6101cd366004611140565b6105ad565b3480156101de57600080fd5b506101e860075481565b60405190815260200161013a565b34801561020257600080fd5b506101bd61021136600461119f565b6105ed565b34801561022257600080fd5b506101bd61023136600461119f565b61061e565b34801561024257600080fd5b50610185610251366004611140565b610639565b34801561026257600080fd5b506101e86102713660046111db565b610699565b34801561028257600080fd5b506101bd61071f565b34801561029757600080fd5b506006546001600160a01b0316610185565b3480156102b557600080fd5b50610158610733565b3480156102ca57600080fd5b506101bd6102d93660046111f6565b610742565b3480156102ea57600080fd5b506101bd6102f9366004611248565b61074d565b34801561030a57600080fd5b50610158610319366004611140565b610785565b34801561032a57600080fd5b5061012e610339366004611324565b6001600160a01b03918216600090815260056020908152604080832093909416825291909152205460ff1690565b34801561037357600080fd5b506101bd6103823660046111db565b6107f9565b60006001600160e01b031982166380ac58cd60e01b14806103b857506001600160e01b03198216635b5e139f60e01b145b806103d357506301ffc9a760e01b6001600160e01b03198316145b92915050565b6060600080546103e890611357565b80601f016020809104026020016040519081016040528092919081815260200182805461041490611357565b80156104615780601f1061043657610100808354040283529160200191610461565b820191906000526020600020905b81548152906001019060200180831161044457829003601f168201915b5050505050905090565b600061047682610872565b506000908152600460205260409020546001600160a01b031690565b600061049d82610639565b9050806001600160a01b0316836001600160a01b031614156105105760405162461bcd60e51b815260206004820152602160248201527f4552433732313a20617070726f76616c20746f2063757272656e74206f776e656044820152603960f91b60648201526084015b60405180910390fd5b336001600160a01b038216148061052c575061052c8133610339565b61059e5760405162461bcd60e51b815260206004820152603e60248201527f4552433732313a20617070726f76652063616c6c6572206973206e6f7420746f60448201527f6b656e206f776e6572206e6f7220617070726f76656420666f7220616c6c00006064820152608401610507565b6105a883836108d1565b505050565b60005b818110156105e957600780546105d79133919060006105ce836113a8565b9190505561093f565b806105e1816113a8565b9150506105b0565b5050565b6105f73382610959565b6106135760405162461bcd60e51b8152600401610507906113c3565b6105a88383836109d8565b6105a88383836040518060200160405280600081525061074d565b6000818152600260205260408120546001600160a01b0316806103d35760405162461bcd60e51b8152602060048201526018602482015277115490cdcc8c4e881a5b9d985b1a59081d1bdad95b88125160421b6044820152606401610507565b60006001600160a01b0382166107035760405162461bcd60e51b815260206004820152602960248201527f4552433732313a2061646472657373207a65726f206973206e6f7420612076616044820152683634b21037bbb732b960b91b6064820152608401610507565b506001600160a01b031660009081526003602052604090205490565b610727610b74565b6107316000610bce565b565b6060600180546103e890611357565b6105e9338383610c20565b6107573383610959565b6107735760405162461bcd60e51b8152600401610507906113c3565b61077f84848484610cef565b50505050565b606061079082610872565b60006107a760408051602081019091526000815290565b905060008151116107c757604051806020016040528060008152506107f2565b806107d184610d22565b6040516020016107e2929190611411565b6040516020818303038152906040525b9392505050565b610801610b74565b6001600160a01b0381166108665760405162461bcd60e51b815260206004820152602660248201527f4f776e61626c653a206e6577206f776e657220697320746865207a65726f206160448201526564647265737360d01b6064820152608401610507565b61086f81610bce565b50565b6000818152600260205260409020546001600160a01b031661086f5760405162461bcd60e51b8152602060048201526018602482015277115490cdcc8c4e881a5b9d985b1a59081d1bdad95b88125160421b6044820152606401610507565b600081815260046020526040902080546001600160a01b0319166001600160a01b038416908117909155819061090682610639565b6001600160a01b03167f8c5be1e5ebec7d5bd14f71427d1e84f3dd0314c0f7b2291e5b200ac8c7c3b92560405160405180910390a45050565b6105e9828260405180602001604052806000815250610e20565b60008061096583610639565b9050806001600160a01b0316846001600160a01b031614806109ac57506001600160a01b0380821660009081526005602090815260408083209388168352929052205460ff165b806109d05750836001600160a01b03166109c58461046b565b6001600160a01b0316145b949350505050565b826001600160a01b03166109eb82610639565b6001600160a01b031614610a4f5760405162461bcd60e51b815260206004820152602560248201527f4552433732313a207472616e736665722066726f6d20696e636f72726563742060448201526437bbb732b960d91b6064820152608401610507565b6001600160a01b038216610ab15760405162461bcd60e51b8152602060048201526024808201527f4552433732313a207472616e7366657220746f20746865207a65726f206164646044820152637265737360e01b6064820152608401610507565b610abc6000826108d1565b6001600160a01b0383166000908152600360205260408120805460019290610ae5908490611440565b90915550506001600160a01b0382166000908152600360205260408120805460019290610b13908490611457565b909155505060008181526002602052604080822080546001600160a01b0319166001600160a01b0386811691821790925591518493918716917fddf252ad1be2c89b69c2b068fc378daa952ba7f163c4a11628f55a4df523b3ef91a4505050565b6006546001600160a01b031633146107315760405162461bcd60e51b815260206004820181905260248201527f4f776e61626c653a2063616c6c6572206973206e6f7420746865206f776e65726044820152606401610507565b600680546001600160a01b038381166001600160a01b0319831681179093556040519116919082907f8be0079c531659141344cd1fd0a4f28419497f9722a3daafe3b4186f6b6457e090600090a35050565b816001600160a01b0316836001600160a01b03161415610c825760405162461bcd60e51b815260206004820152601960248201527f4552433732313a20617070726f766520746f2063616c6c6572000000000000006044820152606401610507565b6001600160a01b03838116600081815260056020908152604080832094871680845294825291829020805460ff191686151590811790915591519182527f17307eab39ab6107e8899845ad3d59bd9653f200f220920489ca2b5937696c31910160405180910390a3505050565b610cfa8484846109d8565b610d0684848484610e53565b61077f5760405162461bcd60e51b81526004016105079061146f565b606081610d465750506040805180820190915260018152600360fc1b602082015290565b8160005b8115610d705780610d5a816113a8565b9150610d699050600a836114d7565b9150610d4a565b60008167ffffffffffffffff811115610d8b57610d8b611232565b6040519080825280601f01601f191660200182016040528015610db5576020820181803683370190505b5090505b84156109d057610dca600183611440565b9150610dd7600a866114eb565b610de2906030611457565b60f81b818381518110610df757610df76114ff565b60200101906001600160f81b031916908160001a905350610e19600a866114d7565b9450610db9565b610e2a8383610f60565b610e376000848484610e53565b6105a85760405162461bcd60e51b81526004016105079061146f565b60006001600160a01b0384163b15610f5557604051630a85bd0160e11b81526001600160a01b0385169063150b7a0290610e97903390899088908890600401611515565b602060405180830381600087803b158015610eb157600080fd5b505af1925050508015610ee1575060408051601f3d908101601f19168201909252610ede91810190611552565b60015b610f3b573d808015610f0f576040519150601f19603f3d011682016040523d82523d6000602084013e610f14565b606091505b508051610f335760405162461bcd60e51b81526004016105079061146f565b805181602001fd5b6001600160e01b031916630a85bd0160e11b1490506109d0565b506001949350505050565b6001600160a01b038216610fb65760405162461bcd60e51b815260206004820181905260248201527f4552433732313a206d696e7420746f20746865207a65726f20616464726573736044820152606401610507565b6000818152600260205260409020546001600160a01b03161561101b5760405162461bcd60e51b815260206004820152601c60248201527f4552433732313a20746f6b656e20616c7265616479206d696e746564000000006044820152606401610507565b6001600160a01b0382166000908152600360205260408120805460019290611044908490611457565b909155505060008181526002602052604080822080546001600160a01b0319166001600160a01b03861690811790915590518392907fddf252ad1be2c89b69c2b068fc378daa952ba7f163c4a11628f55a4df523b3ef908290a45050565b6001600160e01b03198116811461086f57600080fd5b6000602082840312156110ca57600080fd5b81356107f2816110a2565b60005b838110156110f05781810151838201526020016110d8565b8381111561077f5750506000910152565b600081518084526111198160208601602086016110d5565b601f01601f19169290920160200192915050565b6020815260006107f26020830184611101565b60006020828403121561115257600080fd5b5035919050565b80356001600160a01b038116811461117057600080fd5b919050565b6000806040838503121561118857600080fd5b61119183611159565b946020939093013593505050565b6000806000606084860312156111b457600080fd5b6111bd84611159565b92506111cb60208501611159565b9150604084013590509250925092565b6000602082840312156111ed57600080fd5b6107f282611159565b6000806040838503121561120957600080fd5b61121283611159565b91506020830135801515811461122757600080fd5b809150509250929050565b634e487b7160e01b600052604160045260246000fd5b6000806000806080858703121561125e57600080fd5b61126785611159565b935061127560208601611159565b925060408501359150606085013567ffffffffffffffff8082111561129957600080fd5b818701915087601f8301126112ad57600080fd5b8135818111156112bf576112bf611232565b604051601f8201601f19908116603f011681019083821181831017156112e7576112e7611232565b816040528281528a602084870101111561130057600080fd5b82602086016020830137600060208483010152809550505050505092959194509250565b6000806040838503121561133757600080fd5b61134083611159565b915061134e60208401611159565b90509250929050565b600181811c9082168061136b57607f821691505b6020821081141561138c57634e487b7160e01b600052602260045260246000fd5b50919050565b634e487b7160e01b600052601160045260246000fd5b60006000198214156113bc576113bc611392565b5060010190565b6020808252602e908201527f4552433732313a2063616c6c6572206973206e6f7420746f6b656e206f776e6560408201526d1c881b9bdc88185c1c1c9bdd995960921b606082015260800190565b600083516114238184602088016110d5565b8351908301906114378183602088016110d5565b01949350505050565b60008282101561145257611452611392565b500390565b6000821982111561146a5761146a611392565b500190565b60208082526032908201527f4552433732313a207472616e7366657220746f206e6f6e20455243373231526560408201527131b2b4bb32b91034b6b83632b6b2b73a32b960711b606082015260800190565b634e487b7160e01b600052601260045260246000fd5b6000826114e6576114e66114c1565b500490565b6000826114fa576114fa6114c1565b500690565b634e487b7160e01b600052603260045260246000fd5b6001600160a01b038581168252841660208201526040810183905260806060820181905260009061154890830184611101565b9695505050505050565b60006020828403121561156457600080fd5b81516107f2816110a256fea26469706673582212204a2a724e0646fe24bbf5c83eaa75767462fedeb2c7b990873245eea2a3cb96f664736f6c63430008090033",
  "linkReferences": {},
  "deployedLinkReferences": {}
}