{
  "_format": "hh-sol-artifact-1",
  "contractName": "SplitWallet",
  "sourceName": "contracts/splits/SplitWallet.sol",
  "abi": [
    {
      "inputs": [],
      "stateMutability": "nonpayable",
      "type": "constructor"
    },
    {
      "inputs": [],
      "name": "Unauthorized",
      "type": "error"
    },
    {
      "anonymous": false,
      "inputs": [
        {
          "indexed": true,
          "internalType": "address",
          "name": "split",
          "type": "address"
        },
        {
          "indexed": false,
          "internalType": "uint256",
          "name": "amount",
          "type": "uint256"
        }
      ],
      "name": "ReceiveETH",
      "type": "event"
    },
    {
      "inputs": [
        {
          "internalType": "contract ERC20",
          "name": "token",
          "type": "address"
        },
        {
          "internalType": "uint256",
          "name": "amount",
          "type": "uint256"
        }
      ],
      "name": "sendERC20ToMain",
      "outputs": [],
      "stateMutability": "payable",
      "type": "function"
    },
    {
      "inputs": [
        {
          "internalType": "uint256",
          "name": "amount",
          "type": "uint256"
        }
      ],
      "name": "sendETHToMain",
      "outputs": [],
      "stateMutability": "payable",
      "type": "function"
    },
    {
      "inputs": [],
      "name": "splitMain",
      "outputs": [
        {
          "internalType": "contract ISplitMain",
          "name": "",
          "type": "address"
        }
      ],
      "stateMutability": "view",
      "type": "function"
    }
  ],
  "bytecode": "0x60a060405234801561001057600080fd5b503360805260805161030f61004a60003960008181604b0152818160bc015281816101080152818161013c0152610186015261030f6000f3fe6080604052600436106100345760003560e01c80630e769b2b146100395780637c1f3ffe14610089578063ab0ebff41461009e575b600080fd5b34801561004557600080fd5b5061006d7f000000000000000000000000000000000000000000000000000000000000000081565b6040516001600160a01b03909116815260200160405180910390f35b61009c610097366004610288565b6100b1565b005b61009c6100ac3660046102c0565b610131565b336001600160a01b037f000000000000000000000000000000000000000000000000000000000000000016146100f9576040516282b42960e81b815260040160405180910390fd5b61012d6001600160a01b0383167f0000000000000000000000000000000000000000000000000000000000000000836101af565b5050565b336001600160a01b037f00000000000000000000000000000000000000000000000000000000000000001614610179576040516282b42960e81b815260040160405180910390fd5b6101ac6001600160a01b037f00000000000000000000000000000000000000000000000000000000000000001682610232565b50565b600060405163a9059cbb60e01b8152836004820152826024820152602060006044836000895af13d15601f3d116001600051141617169150508061022c5760405162461bcd60e51b815260206004820152600f60248201526e1514905394d1915497d19052531151608a1b60448201526064015b60405180910390fd5b50505050565b600080600080600085875af19050806102835760405162461bcd60e51b815260206004820152601360248201527211551217d514905394d1915497d19052531151606a1b6044820152606401610223565b505050565b6000806040838503121561029b57600080fd5b82356001600160a01b03811681146102b257600080fd5b946020939093013593505050565b6000602082840312156102d257600080fd5b503591905056fea2646970667358221220e7d040ad7bc5d71a7ecd9d10d5de95667e11e566d764d38bf3ebbc967b065d0f64736f6c63430008090033",
  "linkReferences": {},
  "deployedLinkReferences": {}
}