{
  "_format": "hh-sol-artifact-1",
  "contractName": "MusicMetadata",
  "sourceName": "contracts/utils/MusicMetadata.sol",
  "abi": [
    {
      "inputs": [],
      "name": "Access_OnlyAdmin",
      "type": "error"
    },
    {
      "anonymous": false,
      "inputs": [
        {
          "indexed": true,
          "internalType": "address",
          "name": "target",
          "type": "address"
        },
        {
          "indexed": false,
          "internalType": "address",
          "name": "sender",
          "type": "address"
        },
        {
          "indexed": false,
          "internalType": "string",
          "name": "newArtist",
          "type": "string"
        }
      ],
      "name": "ArtistUpdated",
      "type": "event"
    },
    {
      "anonymous": false,
      "inputs": [
        {
          "indexed": true,
          "internalType": "address",
          "name": "target",
          "type": "address"
        },
        {
          "indexed": false,
          "internalType": "address",
          "name": "sender",
          "type": "address"
        },
        {
          "indexed": false,
          "internalType": "string",
          "name": "artworkUri",
          "type": "string"
        },
        {
          "indexed": false,
          "internalType": "string",
          "name": "artworkMimeType",
          "type": "string"
        },
        {
          "indexed": false,
          "internalType": "string",
          "name": "artworkNft",
          "type": "string"
        }
      ],
      "name": "ArtworkUpdated",
      "type": "event"
    },
    {
      "anonymous": false,
      "inputs": [
        {
          "indexed": true,
          "internalType": "address",
          "name": "target",
          "type": "address"
        },
        {
          "indexed": false,
          "internalType": "address",
          "name": "sender",
          "type": "address"
        },
        {
          "indexed": false,
          "internalType": "string",
          "name": "license",
          "type": "string"
        },
        {
          "indexed": false,
          "internalType": "string",
          "name": "externalUrl",
          "type": "string"
        },
        {
          "indexed": false,
          "internalType": "string",
          "name": "isrc",
          "type": "string"
        },
        {
          "indexed": false,
          "internalType": "string",
          "name": "genre",
          "type": "string"
        }
      ],
      "name": "AudioQualitativeUpdated",
      "type": "event"
    },
    {
      "anonymous": false,
      "inputs": [
        {
          "indexed": true,
          "internalType": "address",
          "name": "target",
          "type": "address"
        },
        {
          "indexed": false,
          "internalType": "address",
          "name": "sender",
          "type": "address"
        },
        {
          "indexed": false,
          "internalType": "string",
          "name": "key",
          "type": "string"
        },
        {
          "indexed": false,
          "internalType": "uint256",
          "name": "bpm",
          "type": "uint256"
        },
        {
          "indexed": false,
          "internalType": "uint256",
          "name": "duration",
          "type": "uint256"
        },
        {
          "indexed": false,
          "internalType": "string",
          "name": "audioMimeType",
          "type": "string"
        },
        {
          "indexed": false,
          "internalType": "uint256",
          "name": "trackNumber",
          "type": "uint256"
        }
      ],
      "name": "AudioQuantitativeUpdated",
      "type": "event"
    },
    {
      "anonymous": false,
      "inputs": [
        {
          "indexed": true,
          "internalType": "address",
          "name": "target",
          "type": "address"
        },
        {
          "indexed": false,
          "internalType": "address",
          "name": "sender",
          "type": "address"
        },
        {
          "components": [
            {
              "internalType": "string",
              "name": "name",
              "type": "string"
            },
            {
              "internalType": "string",
              "name": "collaboratorType",
              "type": "string"
            }
          ],
          "indexed": false,
          "internalType": "struct IOnChainMetadata.Credit[]",
          "name": "credits",
          "type": "tuple[]"
        }
      ],
      "name": "CreditsUpdated",
      "type": "event"
    },
    {
      "anonymous": false,
      "inputs": [
        {
          "indexed": true,
          "internalType": "address",
          "name": "target",
          "type": "address"
        },
        {
          "indexed": false,
          "internalType": "address",
          "name": "sender",
          "type": "address"
        },
        {
          "indexed": false,
          "internalType": "string",
          "name": "newDescription",
          "type": "string"
        }
      ],
      "name": "DescriptionUpdated",
      "type": "event"
    },
    {
      "anonymous": false,
      "inputs": [
        {
          "indexed": true,
          "internalType": "address",
          "name": "target",
          "type": "address"
        },
        {
          "indexed": false,
          "internalType": "string",
          "name": "description",
          "type": "string"
        },
        {
          "indexed": false,
          "internalType": "string",
          "name": "imageURI",
          "type": "string"
        },
        {
          "indexed": false,
          "internalType": "string",
          "name": "animationURI",
          "type": "string"
        }
      ],
      "name": "EditionInitialized",
      "type": "event"
    },
    {
      "anonymous": false,
      "inputs": [
        {
          "indexed": true,
          "internalType": "address",
          "name": "target",
          "type": "address"
        },
        {
          "indexed": false,
          "internalType": "address",
          "name": "sender",
          "type": "address"
        },
        {
          "indexed": false,
          "internalType": "string",
          "name": "losslessAudio",
          "type": "string"
        }
      ],
      "name": "LosslessAudioUpdated",
      "type": "event"
    },
    {
      "anonymous": false,
      "inputs": [
        {
          "indexed": false,
          "internalType": "address",
          "name": "target",
          "type": "address"
        },
        {
          "indexed": false,
          "internalType": "address",
          "name": "sender",
          "type": "address"
        },
        {
          "indexed": false,
          "internalType": "string",
          "name": "lyrics",
          "type": "string"
        },
        {
          "indexed": false,
          "internalType": "string",
          "name": "lyricsNft",
          "type": "string"
        }
      ],
      "name": "LyricsUpdated",
      "type": "event"
    },
    {
      "anonymous": false,
      "inputs": [
        {
          "indexed": true,
          "internalType": "address",
          "name": "target",
          "type": "address"
        },
        {
          "indexed": false,
          "internalType": "address",
          "name": "sender",
          "type": "address"
        },
        {
          "indexed": false,
          "internalType": "string",
          "name": "imageURI",
          "type": "string"
        },
        {
          "indexed": false,
          "internalType": "string",
          "name": "animationURI",
          "type": "string"
        }
      ],
      "name": "MediaURIsUpdated",
      "type": "event"
    },
    {
      "anonymous": false,
      "inputs": [
        {
          "indexed": true,
          "internalType": "address",
          "name": "target",
          "type": "address"
        },
        {
          "indexed": false,
          "internalType": "address",
          "name": "sender",
          "type": "address"
        },
        {
          "indexed": false,
          "internalType": "string",
          "name": "artworkUri",
          "type": "string"
        },
        {
          "indexed": false,
          "internalType": "string",
          "name": "artworkMimeType",
          "type": "string"
        },
        {
          "indexed": false,
          "internalType": "string",
          "name": "artworkNft",
          "type": "string"
        }
      ],
      "name": "ProjectArtworkUpdated",
      "type": "event"
    },
    {
      "anonymous": false,
      "inputs": [
        {
          "indexed": true,
          "internalType": "address",
          "name": "target",
          "type": "address"
        },
        {
          "indexed": false,
          "internalType": "address",
          "name": "sender",
          "type": "address"
        },
        {
          "indexed": false,
          "internalType": "string",
          "name": "title",
          "type": "string"
        },
        {
          "indexed": false,
          "internalType": "string",
          "name": "description",
          "type": "string"
        },
        {
          "indexed": false,
          "internalType": "string",
          "name": "recordLabel",
          "type": "string"
        },
        {
          "indexed": false,
          "internalType": "string",
          "name": "publisher",
          "type": "string"
        },
        {
          "indexed": false,
          "internalType": "string",
          "name": "locationCreated",
          "type": "string"
        },
        {
          "indexed": false,
          "internalType": "string",
          "name": "releaseDate",
          "type": "string"
        },
        {
          "indexed": false,
          "internalType": "string",
          "name": "projectType",
          "type": "string"
        },
        {
          "indexed": false,
          "internalType": "string",
          "name": "upc",
          "type": "string"
        }
      ],
      "name": "ProjectPublishingDataUpdated",
      "type": "event"
    },
    {
      "anonymous": false,
      "inputs": [
        {
          "indexed": true,
          "internalType": "address",
          "name": "target",
          "type": "address"
        },
        {
          "indexed": false,
          "internalType": "address",
          "name": "sender",
          "type": "address"
        },
        {
          "indexed": false,
          "internalType": "string",
          "name": "title",
          "type": "string"
        },
        {
          "indexed": false,
          "internalType": "string",
          "name": "description",
          "type": "string"
        },
        {
          "indexed": false,
          "internalType": "string",
          "name": "recordLabel",
          "type": "string"
        },
        {
          "indexed": false,
          "internalType": "string",
          "name": "publisher",
          "type": "string"
        },
        {
          "indexed": false,
          "internalType": "string",
          "name": "locationCreated",
          "type": "string"
        },
        {
          "indexed": false,
          "internalType": "string",
          "name": "releaseDate",
          "type": "string"
        }
      ],
      "name": "PublishingDataUpdated",
      "type": "event"
    },
    {
      "anonymous": false,
      "inputs": [
        {
          "indexed": false,
          "internalType": "address",
          "name": "target",
          "type": "address"
        },
        {
          "indexed": false,
          "internalType": "address",
          "name": "sender",
          "type": "address"
        },
        {
          "components": [
            {
              "components": [
                {
                  "components": [
                    {
                      "internalType": "string",
                      "name": "losslessAudio",
                      "type": "string"
                    },
                    {
                      "components": [
                        {
                          "internalType": "string",
                          "name": "artistName",
                          "type": "string"
                        },
                        {
                          "components": [
                            {
                              "internalType": "string",
                              "name": "key",
                              "type": "string"
                            },
                            {
                              "internalType": "uint256",
                              "name": "bpm",
                              "type": "uint256"
                            },
                            {
                              "internalType": "uint256",
                              "name": "duration",
                              "type": "uint256"
                            },
                            {
                              "internalType": "string",
                              "name": "audioMimeType",
                              "type": "string"
                            },
                            {
                              "internalType": "uint256",
                              "name": "trackNumber",
                              "type": "uint256"
                            }
                          ],
                          "internalType": "struct IOnChainMetadata.AudioQuantitative",
                          "name": "audioQuantitative",
                          "type": "tuple"
                        },
                        {
                          "components": [
                            {
                              "internalType": "string",
                              "name": "license",
                              "type": "string"
                            },
                            {
                              "internalType": "string",
                              "name": "externalUrl",
                              "type": "string"
                            },
                            {
                              "internalType": "string",
                              "name": "isrc",
                              "type": "string"
                            },
                            {
                              "internalType": "string",
                              "name": "genre",
                              "type": "string"
                            }
                          ],
                          "internalType": "struct IOnChainMetadata.AudioQualitative",
                          "name": "audioQualitative",
                          "type": "tuple"
                        }
                      ],
                      "internalType": "struct IOnChainMetadata.SongDetails",
                      "name": "songDetails",
                      "type": "tuple"
                    },
                    {
                      "components": [
                        {
                          "internalType": "string",
                          "name": "lyrics",
                          "type": "string"
                        },
                        {
                          "internalType": "string",
                          "name": "lyricsNft",
                          "type": "string"
                        }
                      ],
                      "internalType": "struct IOnChainMetadata.Lyrics",
                      "name": "lyrics",
                      "type": "tuple"
                    }
                  ],
                  "internalType": "struct IOnChainMetadata.Audio",
                  "name": "audio",
                  "type": "tuple"
                },
                {
                  "components": [
                    {
                      "internalType": "string",
                      "name": "artworkUri",
                      "type": "string"
                    },
                    {
                      "internalType": "string",
                      "name": "artworkMimeType",
                      "type": "string"
                    },
                    {
                      "internalType": "string",
                      "name": "artworkNft",
                      "type": "string"
                    }
                  ],
                  "internalType": "struct IOnChainMetadata.Artwork",
                  "name": "artwork",
                  "type": "tuple"
                },
                {
                  "components": [
                    {
                      "internalType": "string",
                      "name": "artworkUri",
                      "type": "string"
                    },
                    {
                      "internalType": "string",
                      "name": "artworkMimeType",
                      "type": "string"
                    },
                    {
                      "internalType": "string",
                      "name": "artworkNft",
                      "type": "string"
                    }
                  ],
                  "internalType": "struct IOnChainMetadata.Artwork",
                  "name": "visualizer",
                  "type": "tuple"
                }
              ],
              "internalType": "struct IOnChainMetadata.SongContent",
              "name": "song",
              "type": "tuple"
            },
            {
              "components": [
                {
                  "internalType": "string",
                  "name": "title",
                  "type": "string"
                },
                {
                  "internalType": "string",
                  "name": "description",
                  "type": "string"
                },
                {
                  "internalType": "string",
                  "name": "recordLabel",
                  "type": "string"
                },
                {
                  "internalType": "string",
                  "name": "publisher",
                  "type": "string"
                },
                {
                  "internalType": "string",
                  "name": "locationCreated",
                  "type": "string"
                },
                {
                  "internalType": "string",
                  "name": "releaseDate",
                  "type": "string"
                }
              ],
              "internalType": "struct IOnChainMetadata.PublishingData",
              "name": "songPublishingData",
              "type": "tuple"
            }
          ],
          "indexed": false,
          "internalType": "struct IOnChainMetadata.SongMetadata",
          "name": "songMetadata",
          "type": "tuple"
        },
        {
          "components": [
            {
              "components": [
                {
                  "internalType": "string",
                  "name": "title",
                  "type": "string"
                },
                {
                  "internalType": "string",
                  "name": "description",
                  "type": "string"
                },
                {
                  "internalType": "string",
                  "name": "recordLabel",
                  "type": "string"
                },
                {
                  "internalType": "string",
                  "name": "publisher",
                  "type": "string"
                },
                {
                  "internalType": "string",
                  "name": "locationCreated",
                  "type": "string"
                },
                {
                  "internalType": "string",
                  "name": "releaseDate",
                  "type": "string"
                }
              ],
              "internalType": "struct IOnChainMetadata.PublishingData",
              "name": "publishingData",
              "type": "tuple"
            },
            {
              "components": [
                {
                  "internalType": "string",
                  "name": "artworkUri",
                  "type": "string"
                },
                {
                  "internalType": "string",
                  "name": "artworkMimeType",
                  "type": "string"
                },
                {
                  "internalType": "string",
                  "name": "artworkNft",
                  "type": "string"
                }
              ],
              "internalType": "struct IOnChainMetadata.Artwork",
              "name": "artwork",
              "type": "tuple"
            },
            {
              "internalType": "string",
              "name": "projectType",
              "type": "string"
            },
            {
              "internalType": "string",
              "name": "upc",
              "type": "string"
            }
          ],
          "indexed": false,
          "internalType": "struct IOnChainMetadata.ProjectMetadata",
          "name": "projectMetadata",
          "type": "tuple"
        },
        {
          "indexed": false,
          "internalType": "string[]",
          "name": "tags",
          "type": "string[]"
        },
        {
          "components": [
            {
              "internalType": "string",
              "name": "name",
              "type": "string"
            },
            {
              "internalType": "string",
              "name": "collaboratorType",
              "type": "string"
            }
          ],
          "indexed": false,
          "internalType": "struct IOnChainMetadata.Credit[]",
          "name": "credits",
          "type": "tuple[]"
        }
      ],
      "name": "SongUpdated",
      "type": "event"
    },
    {
      "anonymous": false,
      "inputs": [
        {
          "indexed": true,
          "internalType": "address",
          "name": "target",
          "type": "address"
        },
        {
          "indexed": false,
          "internalType": "address",
          "name": "sender",
          "type": "address"
        },
        {
          "indexed": false,
          "internalType": "string[]",
          "name": "tags",
          "type": "string[]"
        }
      ],
      "name": "TagsUpdated",
      "type": "event"
    },
    {
      "anonymous": false,
      "inputs": [
        {
          "indexed": true,
          "internalType": "address",
          "name": "target",
          "type": "address"
        },
        {
          "indexed": false,
          "internalType": "address",
          "name": "sender",
          "type": "address"
        },
        {
          "indexed": false,
          "internalType": "string",
          "name": "artworkUri",
          "type": "string"
        },
        {
          "indexed": false,
          "internalType": "string",
          "name": "artworkMimeType",
          "type": "string"
        },
        {
          "indexed": false,
          "internalType": "string",
          "name": "artworkNft",
          "type": "string"
        }
      ],
      "name": "VisualizerUpdated",
      "type": "event"
    },
    {
      "inputs": [
        {
          "internalType": "address",
          "name": "",
          "type": "address"
        }
      ],
      "name": "projectMetadatas",
      "outputs": [
        {
          "components": [
            {
              "internalType": "string",
              "name": "title",
              "type": "string"
            },
            {
              "internalType": "string",
              "name": "description",
              "type": "string"
            },
            {
              "internalType": "string",
              "name": "recordLabel",
              "type": "string"
            },
            {
              "internalType": "string",
              "name": "publisher",
              "type": "string"
            },
            {
              "internalType": "string",
              "name": "locationCreated",
              "type": "string"
            },
            {
              "internalType": "string",
              "name": "releaseDate",
              "type": "string"
            }
          ],
          "internalType": "struct IOnChainMetadata.PublishingData",
          "name": "publishingData",
          "type": "tuple"
        },
        {
          "components": [
            {
              "internalType": "string",
              "name": "artworkUri",
              "type": "string"
            },
            {
              "internalType": "string",
              "name": "artworkMimeType",
              "type": "string"
            },
            {
              "internalType": "string",
              "name": "artworkNft",
              "type": "string"
            }
          ],
          "internalType": "struct IOnChainMetadata.Artwork",
          "name": "artwork",
          "type": "tuple"
        },
        {
          "internalType": "string",
          "name": "projectType",
          "type": "string"
        },
        {
          "internalType": "string",
          "name": "upc",
          "type": "string"
        }
      ],
      "stateMutability": "view",
      "type": "function"
    },
    {
      "inputs": [
        {
          "internalType": "address",
          "name": "",
          "type": "address"
        }
      ],
      "name": "songMetadatas",
      "outputs": [
        {
          "components": [
            {
              "components": [
                {
                  "internalType": "string",
                  "name": "losslessAudio",
                  "type": "string"
                },
                {
                  "components": [
                    {
                      "internalType": "string",
                      "name": "artistName",
                      "type": "string"
                    },
                    {
                      "components": [
                        {
                          "internalType": "string",
                          "name": "key",
                          "type": "string"
                        },
                        {
                          "internalType": "uint256",
                          "name": "bpm",
                          "type": "uint256"
                        },
                        {
                          "internalType": "uint256",
                          "name": "duration",
                          "type": "uint256"
                        },
                        {
                          "internalType": "string",
                          "name": "audioMimeType",
                          "type": "string"
                        },
                        {
                          "internalType": "uint256",
                          "name": "trackNumber",
                          "type": "uint256"
                        }
                      ],
                      "internalType": "struct IOnChainMetadata.AudioQuantitative",
                      "name": "audioQuantitative",
                      "type": "tuple"
                    },
                    {
                      "components": [
                        {
                          "internalType": "string",
                          "name": "license",
                          "type": "string"
                        },
                        {
                          "internalType": "string",
                          "name": "externalUrl",
                          "type": "string"
                        },
                        {
                          "internalType": "string",
                          "name": "isrc",
                          "type": "string"
                        },
                        {
                          "internalType": "string",
                          "name": "genre",
                          "type": "string"
                        }
                      ],
                      "internalType": "struct IOnChainMetadata.AudioQualitative",
                      "name": "audioQualitative",
                      "type": "tuple"
                    }
                  ],
                  "internalType": "struct IOnChainMetadata.SongDetails",
                  "name": "songDetails",
                  "type": "tuple"
                },
                {
                  "components": [
                    {
                      "internalType": "string",
                      "name": "lyrics",
                      "type": "string"
                    },
                    {
                      "internalType": "string",
                      "name": "lyricsNft",
                      "type": "string"
                    }
                  ],
                  "internalType": "struct IOnChainMetadata.Lyrics",
                  "name": "lyrics",
                  "type": "tuple"
                }
              ],
              "internalType": "struct IOnChainMetadata.Audio",
              "name": "audio",
              "type": "tuple"
            },
            {
              "components": [
                {
                  "internalType": "string",
                  "name": "artworkUri",
                  "type": "string"
                },
                {
                  "internalType": "string",
                  "name": "artworkMimeType",
                  "type": "string"
                },
                {
                  "internalType": "string",
                  "name": "artworkNft",
                  "type": "string"
                }
              ],
              "internalType": "struct IOnChainMetadata.Artwork",
              "name": "artwork",
              "type": "tuple"
            },
            {
              "components": [
                {
                  "internalType": "string",
                  "name": "artworkUri",
                  "type": "string"
                },
                {
                  "internalType": "string",
                  "name": "artworkMimeType",
                  "type": "string"
                },
                {
                  "internalType": "string",
                  "name": "artworkNft",
                  "type": "string"
                }
              ],
              "internalType": "struct IOnChainMetadata.Artwork",
              "name": "visualizer",
              "type": "tuple"
            }
          ],
          "internalType": "struct IOnChainMetadata.SongContent",
          "name": "song",
          "type": "tuple"
        },
        {
          "components": [
            {
              "internalType": "string",
              "name": "title",
              "type": "string"
            },
            {
              "internalType": "string",
              "name": "description",
              "type": "string"
            },
            {
              "internalType": "string",
              "name": "recordLabel",
              "type": "string"
            },
            {
              "internalType": "string",
              "name": "publisher",
              "type": "string"
            },
            {
              "internalType": "string",
              "name": "locationCreated",
              "type": "string"
            },
            {
              "internalType": "string",
              "name": "releaseDate",
              "type": "string"
            }
          ],
          "internalType": "struct IOnChainMetadata.PublishingData",
          "name": "songPublishingData",
          "type": "tuple"
        }
      ],
      "stateMutability": "view",
      "type": "function"
    },
    {
      "inputs": [
        {
          "internalType": "address",
          "name": "target",
          "type": "address"
        },
        {
          "internalType": "string",
          "name": "newDescription",
          "type": "string"
        }
      ],
      "name": "updateDescription",
      "outputs": [],
      "stateMutability": "nonpayable",
      "type": "function"
    },
    {
      "inputs": [
        {
          "internalType": "address",
          "name": "target",
          "type": "address"
        },
        {
          "internalType": "string",
          "name": "imageURI",
          "type": "string"
        },
        {
          "internalType": "string",
          "name": "animationURI",
          "type": "string"
        }
      ],
      "name": "updateMediaURIs",
      "outputs": [],
      "stateMutability": "nonpayable",
      "type": "function"
    },
    {
      "inputs": [
        {
          "internalType": "address",
          "name": "target",
          "type": "address"
        },
        {
          "internalType": "string[]",
          "name": "tags",
          "type": "string[]"
        }
      ],
      "name": "updateTags",
      "outputs": [],
      "stateMutability": "nonpayable",
      "type": "function"
    }
  ],
  "bytecode": "0x608060405234801561001057600080fd5b506120f0806100206000396000f3fe608060405234801561001057600080fd5b50600436106100575760003560e01c80632f17b8f01461005c5780638bbb2cf214610071578063af9bb79714610084578063afb5b684146100b0578063d5159df7146100c3575b600080fd5b61006f61006a366004611a7d565b6100e4565b005b61006f61007f366004611af3565b61023f565b610097610092366004611b43565b61036f565b6040516100a79493929190611c9b565b60405180910390f35b61006f6100be366004611cf3565b6109e5565b6100d66100d1366004611b43565b610b04565b6040516100a7929190611e5b565b826001600160a01b03811633148015906101805750336001600160a01b0316816001600160a01b0316638da5cb5b6040518163ffffffff1660e01b815260040160206040518083038186803b15801561013c57600080fd5b505afa158015610150573d6000803e3d6000fd5b505050506040513d601f19601f820116820180604052508101906101749190611f84565b6001600160a01b031614155b1561019e576040516302bd6bd160e01b815260040160405180910390fd5b6001600160a01b03841660009081526020818152604090912084516101cb92600d90920191860190611865565b506001600160a01b03841660009081526020818152604090912083516101f392850190611865565b50836001600160a01b03167fc4c1b9223fcebe5f35b9030d3df655018c40e88d70b8a3c63ed851c5d972210f33858560405161023193929190611fa1565b60405180910390a250505050565b816001600160a01b03811633148015906102db5750336001600160a01b0316816001600160a01b0316638da5cb5b6040518163ffffffff1660e01b815260040160206040518083038186803b15801561029757600080fd5b505afa1580156102ab573d6000803e3d6000fd5b505050506040513d601f19601f820116820180604052508101906102cf9190611f84565b6001600160a01b031614155b156102f9576040516302bd6bd160e01b815260040160405180910390fd5b6001600160a01b038316600090815260208181526040909120835161032692601490920191850190611865565b50826001600160a01b03167f36195b44a3184513e02477929207751ea9d67026b917ed74d374a7f9e8c5e4d13384604051610362929190611fe1565b60405180910390a2505050565b6001602052806000526040600020600091509050806000016040518060c00160405290816000820180546103a29061200d565b80601f01602080910402602001604051908101604052809291908181526020018280546103ce9061200d565b801561041b5780601f106103f05761010080835404028352916020019161041b565b820191906000526020600020905b8154815290600101906020018083116103fe57829003601f168201915b505050505081526020016001820180546104349061200d565b80601f01602080910402602001604051908101604052809291908181526020018280546104609061200d565b80156104ad5780601f10610482576101008083540402835291602001916104ad565b820191906000526020600020905b81548152906001019060200180831161049057829003601f168201915b505050505081526020016002820180546104c69061200d565b80601f01602080910402602001604051908101604052809291908181526020018280546104f29061200d565b801561053f5780601f106105145761010080835404028352916020019161053f565b820191906000526020600020905b81548152906001019060200180831161052257829003601f168201915b505050505081526020016003820180546105589061200d565b80601f01602080910402602001604051908101604052809291908181526020018280546105849061200d565b80156105d15780601f106105a6576101008083540402835291602001916105d1565b820191906000526020600020905b8154815290600101906020018083116105b457829003601f168201915b505050505081526020016004820180546105ea9061200d565b80601f01602080910402602001604051908101604052809291908181526020018280546106169061200d565b80156106635780601f1061063857610100808354040283529160200191610663565b820191906000526020600020905b81548152906001019060200180831161064657829003601f168201915b5050505050815260200160058201805461067c9061200d565b80601f01602080910402602001604051908101604052809291908181526020018280546106a89061200d565b80156106f55780601f106106ca576101008083540402835291602001916106f5565b820191906000526020600020905b8154815290600101906020018083116106d857829003601f168201915b505050505081525050908060060160405180606001604052908160008201805461071e9061200d565b80601f016020809104026020016040519081016040528092919081815260200182805461074a9061200d565b80156107975780601f1061076c57610100808354040283529160200191610797565b820191906000526020600020905b81548152906001019060200180831161077a57829003601f168201915b505050505081526020016001820180546107b09061200d565b80601f01602080910402602001604051908101604052809291908181526020018280546107dc9061200d565b80156108295780601f106107fe57610100808354040283529160200191610829565b820191906000526020600020905b81548152906001019060200180831161080c57829003601f168201915b505050505081526020016002820180546108429061200d565b80601f016020809104026020016040519081016040528092919081815260200182805461086e9061200d565b80156108bb5780601f10610890576101008083540402835291602001916108bb565b820191906000526020600020905b81548152906001019060200180831161089e57829003601f168201915b505050505081525050908060090180546108d49061200d565b80601f01602080910402602001604051908101604052809291908181526020018280546109009061200d565b801561094d5780601f106109225761010080835404028352916020019161094d565b820191906000526020600020905b81548152906001019060200180831161093057829003601f168201915b50505050509080600a0180546109629061200d565b80601f016020809104026020016040519081016040528092919081815260200182805461098e9061200d565b80156109db5780601f106109b0576101008083540402835291602001916109db565b820191906000526020600020905b8154815290600101906020018083116109be57829003601f168201915b5050505050905084565b816001600160a01b0381163314801590610a815750336001600160a01b0316816001600160a01b0316638da5cb5b6040518163ffffffff1660e01b815260040160206040518083038186803b158015610a3d57600080fd5b505afa158015610a51573d6000803e3d6000fd5b505050506040513d601f19601f82011682018060405250810190610a759190611f84565b6001600160a01b031614155b15610a9f576040516302bd6bd160e01b815260040160405180910390fd5b6001600160a01b03831660009081526002602090815260409091208351610ac8928501906118e9565b50826001600160a01b03167f70deccfc75f688d1fad2a661e4818b3a9939f15bd374bb3b28c5d8b013446b723384604051610362929190612048565b60006020819052908152604090819020815160c081019092528054909190829082906060820190839082908290610b3a9061200d565b80601f0160208091040260200160405190810160405280929190818152602001828054610b669061200d565b8015610bb35780601f10610b8857610100808354040283529160200191610bb3565b820191906000526020600020905b815481529060010190602001808311610b9657829003601f168201915b5050505050815260200160018201604051806060016040529081600082018054610bdc9061200d565b80601f0160208091040260200160405190810160405280929190818152602001828054610c089061200d565b8015610c555780601f10610c2a57610100808354040283529160200191610c55565b820191906000526020600020905b815481529060010190602001808311610c3857829003601f168201915b50505050508152602001600182016040518060a0016040529081600082018054610c7e9061200d565b80601f0160208091040260200160405190810160405280929190818152602001828054610caa9061200d565b8015610cf75780601f10610ccc57610100808354040283529160200191610cf7565b820191906000526020600020905b815481529060010190602001808311610cda57829003601f168201915b505050505081526020016001820154815260200160028201548152602001600382018054610d249061200d565b80601f0160208091040260200160405190810160405280929190818152602001828054610d509061200d565b8015610d9d5780601f10610d7257610100808354040283529160200191610d9d565b820191906000526020600020905b815481529060010190602001808311610d8057829003601f168201915b50505050508152602001600482015481525050815260200160068201604051806080016040529081600082018054610dd49061200d565b80601f0160208091040260200160405190810160405280929190818152602001828054610e009061200d565b8015610e4d5780601f10610e2257610100808354040283529160200191610e4d565b820191906000526020600020905b815481529060010190602001808311610e3057829003601f168201915b50505050508152602001600182018054610e669061200d565b80601f0160208091040260200160405190810160405280929190818152602001828054610e929061200d565b8015610edf5780601f10610eb457610100808354040283529160200191610edf565b820191906000526020600020905b815481529060010190602001808311610ec257829003601f168201915b50505050508152602001600282018054610ef89061200d565b80601f0160208091040260200160405190810160405280929190818152602001828054610f249061200d565b8015610f715780601f10610f4657610100808354040283529160200191610f71565b820191906000526020600020905b815481529060010190602001808311610f5457829003601f168201915b50505050508152602001600382018054610f8a9061200d565b80601f0160208091040260200160405190810160405280929190818152602001828054610fb69061200d565b80156110035780601f10610fd857610100808354040283529160200191611003565b820191906000526020600020905b815481529060010190602001808311610fe657829003601f168201915b505050505081525050815250508152602001600b82016040518060400160405290816000820180546110349061200d565b80601f01602080910402602001604051908101604052809291908181526020018280546110609061200d565b80156110ad5780601f10611082576101008083540402835291602001916110ad565b820191906000526020600020905b81548152906001019060200180831161109057829003601f168201915b505050505081526020016001820180546110c69061200d565b80601f01602080910402602001604051908101604052809291908181526020018280546110f29061200d565b801561113f5780601f106111145761010080835404028352916020019161113f565b820191906000526020600020905b81548152906001019060200180831161112257829003601f168201915b505050505081525050815250508152602001600d82016040518060600160405290816000820180546111709061200d565b80601f016020809104026020016040519081016040528092919081815260200182805461119c9061200d565b80156111e95780601f106111be576101008083540402835291602001916111e9565b820191906000526020600020905b8154815290600101906020018083116111cc57829003601f168201915b505050505081526020016001820180546112029061200d565b80601f016020809104026020016040519081016040528092919081815260200182805461122e9061200d565b801561127b5780601f106112505761010080835404028352916020019161127b565b820191906000526020600020905b81548152906001019060200180831161125e57829003601f168201915b505050505081526020016002820180546112949061200d565b80601f01602080910402602001604051908101604052809291908181526020018280546112c09061200d565b801561130d5780601f106112e25761010080835404028352916020019161130d565b820191906000526020600020905b8154815290600101906020018083116112f057829003601f168201915b50505050508152505081526020016010820160405180606001604052908160008201805461133a9061200d565b80601f01602080910402602001604051908101604052809291908181526020018280546113669061200d565b80156113b35780601f10611388576101008083540402835291602001916113b3565b820191906000526020600020905b81548152906001019060200180831161139657829003601f168201915b505050505081526020016001820180546113cc9061200d565b80601f01602080910402602001604051908101604052809291908181526020018280546113f89061200d565b80156114455780601f1061141a57610100808354040283529160200191611445565b820191906000526020600020905b81548152906001019060200180831161142857829003601f168201915b5050505050815260200160028201805461145e9061200d565b80601f016020809104026020016040519081016040528092919081815260200182805461148a9061200d565b80156114d75780601f106114ac576101008083540402835291602001916114d7565b820191906000526020600020905b8154815290600101906020018083116114ba57829003601f168201915b5050505050815250508152505090806013016040518060c00160405290816000820180546115049061200d565b80601f01602080910402602001604051908101604052809291908181526020018280546115309061200d565b801561157d5780601f106115525761010080835404028352916020019161157d565b820191906000526020600020905b81548152906001019060200180831161156057829003601f168201915b505050505081526020016001820180546115969061200d565b80601f01602080910402602001604051908101604052809291908181526020018280546115c29061200d565b801561160f5780601f106115e45761010080835404028352916020019161160f565b820191906000526020600020905b8154815290600101906020018083116115f257829003601f168201915b505050505081526020016002820180546116289061200d565b80601f01602080910402602001604051908101604052809291908181526020018280546116549061200d565b80156116a15780601f10611676576101008083540402835291602001916116a1565b820191906000526020600020905b81548152906001019060200180831161168457829003601f168201915b505050505081526020016003820180546116ba9061200d565b80601f01602080910402602001604051908101604052809291908181526020018280546116e69061200d565b80156117335780601f1061170857610100808354040283529160200191611733565b820191906000526020600020905b81548152906001019060200180831161171657829003601f168201915b5050505050815260200160048201805461174c9061200d565b80601f01602080910402602001604051908101604052809291908181526020018280546117789061200d565b80156117c55780601f1061179a576101008083540402835291602001916117c5565b820191906000526020600020905b8154815290600101906020018083116117a857829003601f168201915b505050505081526020016005820180546117de9061200d565b80601f016020809104026020016040519081016040528092919081815260200182805461180a9061200d565b80156118575780601f1061182c57610100808354040283529160200191611857565b820191906000526020600020905b81548152906001019060200180831161183a57829003601f168201915b505050505081525050905082565b8280546118719061200d565b90600052602060002090601f01602090048101928261189357600085556118d9565b82601f106118ac57805160ff19168380011785556118d9565b828001600101855582156118d9579182015b828111156118d95782518255916020019190600101906118be565b506118e5929150611942565b5090565b828054828255906000526020600020908101928215611936579160200282015b828111156119365782518051611926918491602090910190611865565b5091602001919060010190611909565b506118e5929150611957565b5b808211156118e55760008155600101611943565b808211156118e557600061196b8282611974565b50600101611957565b5080546119809061200d565b6000825580601f10611990575050565b601f0160209004906000526020600020908101906119ae9190611942565b50565b6001600160a01b03811681146119ae57600080fd5b634e487b7160e01b600052604160045260246000fd5b604051601f8201601f1916810167ffffffffffffffff81118282101715611a0557611a056119c6565b604052919050565b600082601f830112611a1e57600080fd5b813567ffffffffffffffff811115611a3857611a386119c6565b611a4b601f8201601f19166020016119dc565b818152846020838601011115611a6057600080fd5b816020850160208301376000918101602001919091529392505050565b600080600060608486031215611a9257600080fd5b8335611a9d816119b1565b9250602084013567ffffffffffffffff80821115611aba57600080fd5b611ac687838801611a0d565b93506040860135915080821115611adc57600080fd5b50611ae986828701611a0d565b9150509250925092565b60008060408385031215611b0657600080fd5b8235611b11816119b1565b9150602083013567ffffffffffffffff811115611b2d57600080fd5b611b3985828601611a0d565b9150509250929050565b600060208284031215611b5557600080fd5b8135611b60816119b1565b9392505050565b6000815180845260005b81811015611b8d57602081850181015186830182015201611b71565b81811115611b9f576000602083870101525b50601f01601f19169290920160200192915050565b6000815160c08452611bc960c0850182611b67565b905060208301518482036020860152611be28282611b67565b91505060408301518482036040860152611bfc8282611b67565b91505060608301518482036060860152611c168282611b67565b91505060808301518482036080860152611c308282611b67565b91505060a083015184820360a0860152611c4a8282611b67565b95945050505050565b6000815160608452611c686060850182611b67565b905060208301518482036020860152611c818282611b67565b91505060408301518482036040860152611c4a8282611b67565b608081526000611cae6080830187611bb4565b8281036020840152611cc08187611c53565b90508281036040840152611cd48186611b67565b90508281036060840152611ce88185611b67565b979650505050505050565b60008060408385031215611d0657600080fd5b8235611d11816119b1565b915060208381013567ffffffffffffffff80821115611d2f57600080fd5b818601915086601f830112611d4357600080fd5b813581811115611d5557611d556119c6565b8060051b611d648582016119dc565b918252838101850191858101908a841115611d7e57600080fd5b86860192505b83831015611dba57823585811115611d9c5760008081fd5b611daa8c89838a0101611a0d565b8352509186019190860190611d84565b809750505050505050509250929050565b6000815160808452611de06080850182611b67565b905060208301518482036020860152611df98282611b67565b91505060408301518482036040860152611e138282611b67565b91505060608301518482036060860152611c4a8282611b67565b6000815160408452611e426040850182611b67565b905060208301518482036020860152611c4a8282611b67565b6000604080835284516060808386015281518160a0870152611e81610100870182611b67565b9050602080840151609f19808985030160c08a01528151858552611ea786860182611b67565b90508383015185820385870152805160a08352611ec760a0840182611b67565b90508582015186840152898201518a8401528782015183820389850152611eee8282611b67565b915050608082015160808401528985015194508681038a880152611f128186611dcb565b9650505050868601519550808985030160e08a01525050611f338285611e2d565b9350808901519150603f19808886030184890152611f518584611c53565b958a01518887039091016080890152949350611f6d8486611c53565b94508685038188015250505050611c4a8185611bb4565b600060208284031215611f9657600080fd5b8151611b60816119b1565b6001600160a01b0384168152606060208201819052600090611fc590830185611b67565b8281036040840152611fd78185611b67565b9695505050505050565b6001600160a01b038316815260406020820181905260009061200590830184611b67565b949350505050565b600181811c9082168061202157607f821691505b6020821081141561204257634e487b7160e01b600052602260045260246000fd5b50919050565b60006040820160018060a01b0385168352602060408185015281855180845260608601915060608160051b870101935082870160005b828110156120ac57605f1988870301845261209a868351611b67565b9550928401929084019060010161207e565b50939897505050505050505056fea264697066735822122002ca2d1de74763aa0179f7da019a7ccdd6498a24db4de27faae8caba2f34f44a64736f6c63430008090033",
  "linkReferences": {},
  "deployedLinkReferences": {}
}