{
  "_format": "hh-sol-artifact-1",
  "contractName": "DCNTMetadataRenderer",
  "sourceName": "contracts/DCNTMetadataRenderer.sol",
  "abi": [
    {
      "inputs": [
        {
          "internalType": "contract ISharedNFTLogic",
          "name": "_sharedNFTLogic",
          "type": "address"
        }
      ],
      "stateMutability": "nonpayable",
      "type": "constructor"
    },
    {
      "inputs": [],
      "name": "Access_OnlyAdmin",
      "type": "error"
    },
    {
      "anonymous": false,
      "inputs": [
        {
          "indexed": true,
          "internalType": "address",
          "name": "target",
          "type": "address"
        },
        {
          "indexed": false,
          "internalType": "address",
          "name": "sender",
          "type": "address"
        },
        {
          "indexed": false,
          "internalType": "string",
          "name": "newArtist",
          "type": "string"
        }
      ],
      "name": "ArtistUpdated",
      "type": "event"
    },
    {
      "anonymous": false,
      "inputs": [
        {
          "indexed": true,
          "internalType": "address",
          "name": "target",
          "type": "address"
        },
        {
          "indexed": false,
          "internalType": "address",
          "name": "sender",
          "type": "address"
        },
        {
          "indexed": false,
          "internalType": "string",
          "name": "artworkUri",
          "type": "string"
        },
        {
          "indexed": false,
          "internalType": "string",
          "name": "artworkMimeType",
          "type": "string"
        },
        {
          "indexed": false,
          "internalType": "string",
          "name": "artworkNft",
          "type": "string"
        }
      ],
      "name": "ArtworkUpdated",
      "type": "event"
    },
    {
      "anonymous": false,
      "inputs": [
        {
          "indexed": true,
          "internalType": "address",
          "name": "target",
          "type": "address"
        },
        {
          "indexed": false,
          "internalType": "address",
          "name": "sender",
          "type": "address"
        },
        {
          "indexed": false,
          "internalType": "string",
          "name": "license",
          "type": "string"
        },
        {
          "indexed": false,
          "internalType": "string",
          "name": "externalUrl",
          "type": "string"
        },
        {
          "indexed": false,
          "internalType": "string",
          "name": "isrc",
          "type": "string"
        },
        {
          "indexed": false,
          "internalType": "string",
          "name": "genre",
          "type": "string"
        }
      ],
      "name": "AudioQualitativeUpdated",
      "type": "event"
    },
    {
      "anonymous": false,
      "inputs": [
        {
          "indexed": true,
          "internalType": "address",
          "name": "target",
          "type": "address"
        },
        {
          "indexed": false,
          "internalType": "address",
          "name": "sender",
          "type": "address"
        },
        {
          "indexed": false,
          "internalType": "string",
          "name": "key",
          "type": "string"
        },
        {
          "indexed": false,
          "internalType": "uint256",
          "name": "bpm",
          "type": "uint256"
        },
        {
          "indexed": false,
          "internalType": "uint256",
          "name": "duration",
          "type": "uint256"
        },
        {
          "indexed": false,
          "internalType": "string",
          "name": "audioMimeType",
          "type": "string"
        },
        {
          "indexed": false,
          "internalType": "uint256",
          "name": "trackNumber",
          "type": "uint256"
        }
      ],
      "name": "AudioQuantitativeUpdated",
      "type": "event"
    },
    {
      "anonymous": false,
      "inputs": [
        {
          "indexed": true,
          "internalType": "address",
          "name": "target",
          "type": "address"
        },
        {
          "indexed": false,
          "internalType": "address",
          "name": "sender",
          "type": "address"
        },
        {
          "components": [
            {
              "internalType": "string",
              "name": "name",
              "type": "string"
            },
            {
              "internalType": "string",
              "name": "collaboratorType",
              "type": "string"
            }
          ],
          "indexed": false,
          "internalType": "struct IOnChainMetadata.Credit[]",
          "name": "credits",
          "type": "tuple[]"
        }
      ],
      "name": "CreditsUpdated",
      "type": "event"
    },
    {
      "anonymous": false,
      "inputs": [
        {
          "indexed": true,
          "internalType": "address",
          "name": "target",
          "type": "address"
        },
        {
          "indexed": false,
          "internalType": "address",
          "name": "sender",
          "type": "address"
        },
        {
          "indexed": false,
          "internalType": "string",
          "name": "newDescription",
          "type": "string"
        }
      ],
      "name": "DescriptionUpdated",
      "type": "event"
    },
    {
      "anonymous": false,
      "inputs": [
        {
          "indexed": true,
          "internalType": "address",
          "name": "target",
          "type": "address"
        },
        {
          "indexed": false,
          "internalType": "string",
          "name": "description",
          "type": "string"
        },
        {
          "indexed": false,
          "internalType": "string",
          "name": "imageURI",
          "type": "string"
        },
        {
          "indexed": false,
          "internalType": "string",
          "name": "animationURI",
          "type": "string"
        }
      ],
      "name": "EditionInitialized",
      "type": "event"
    },
    {
      "anonymous": false,
      "inputs": [
        {
          "indexed": true,
          "internalType": "address",
          "name": "target",
          "type": "address"
        },
        {
          "indexed": false,
          "internalType": "address",
          "name": "sender",
          "type": "address"
        },
        {
          "indexed": false,
          "internalType": "string",
          "name": "losslessAudio",
          "type": "string"
        }
      ],
      "name": "LosslessAudioUpdated",
      "type": "event"
    },
    {
      "anonymous": false,
      "inputs": [
        {
          "indexed": false,
          "internalType": "address",
          "name": "target",
          "type": "address"
        },
        {
          "indexed": false,
          "internalType": "address",
          "name": "sender",
          "type": "address"
        },
        {
          "indexed": false,
          "internalType": "string",
          "name": "lyrics",
          "type": "string"
        },
        {
          "indexed": false,
          "internalType": "string",
          "name": "lyricsNft",
          "type": "string"
        }
      ],
      "name": "LyricsUpdated",
      "type": "event"
    },
    {
      "anonymous": false,
      "inputs": [
        {
          "indexed": true,
          "internalType": "address",
          "name": "target",
          "type": "address"
        },
        {
          "indexed": false,
          "internalType": "address",
          "name": "sender",
          "type": "address"
        },
        {
          "indexed": false,
          "internalType": "string",
          "name": "imageURI",
          "type": "string"
        },
        {
          "indexed": false,
          "internalType": "string",
          "name": "animationURI",
          "type": "string"
        }
      ],
      "name": "MediaURIsUpdated",
      "type": "event"
    },
    {
      "anonymous": false,
      "inputs": [
        {
          "indexed": true,
          "internalType": "address",
          "name": "target",
          "type": "address"
        },
        {
          "indexed": false,
          "internalType": "address",
          "name": "sender",
          "type": "address"
        },
        {
          "indexed": false,
          "internalType": "string",
          "name": "artworkUri",
          "type": "string"
        },
        {
          "indexed": false,
          "internalType": "string",
          "name": "artworkMimeType",
          "type": "string"
        },
        {
          "indexed": false,
          "internalType": "string",
          "name": "artworkNft",
          "type": "string"
        }
      ],
      "name": "ProjectArtworkUpdated",
      "type": "event"
    },
    {
      "anonymous": false,
      "inputs": [
        {
          "indexed": true,
          "internalType": "address",
          "name": "target",
          "type": "address"
        },
        {
          "indexed": false,
          "internalType": "address",
          "name": "sender",
          "type": "address"
        },
        {
          "indexed": false,
          "internalType": "string",
          "name": "title",
          "type": "string"
        },
        {
          "indexed": false,
          "internalType": "string",
          "name": "description",
          "type": "string"
        },
        {
          "indexed": false,
          "internalType": "string",
          "name": "recordLabel",
          "type": "string"
        },
        {
          "indexed": false,
          "internalType": "string",
          "name": "publisher",
          "type": "string"
        },
        {
          "indexed": false,
          "internalType": "string",
          "name": "locationCreated",
          "type": "string"
        },
        {
          "indexed": false,
          "internalType": "string",
          "name": "releaseDate",
          "type": "string"
        },
        {
          "indexed": false,
          "internalType": "string",
          "name": "projectType",
          "type": "string"
        },
        {
          "indexed": false,
          "internalType": "string",
          "name": "upc",
          "type": "string"
        }
      ],
      "name": "ProjectPublishingDataUpdated",
      "type": "event"
    },
    {
      "anonymous": false,
      "inputs": [
        {
          "indexed": true,
          "internalType": "address",
          "name": "target",
          "type": "address"
        },
        {
          "indexed": false,
          "internalType": "address",
          "name": "sender",
          "type": "address"
        },
        {
          "indexed": false,
          "internalType": "string",
          "name": "title",
          "type": "string"
        },
        {
          "indexed": false,
          "internalType": "string",
          "name": "description",
          "type": "string"
        },
        {
          "indexed": false,
          "internalType": "string",
          "name": "recordLabel",
          "type": "string"
        },
        {
          "indexed": false,
          "internalType": "string",
          "name": "publisher",
          "type": "string"
        },
        {
          "indexed": false,
          "internalType": "string",
          "name": "locationCreated",
          "type": "string"
        },
        {
          "indexed": false,
          "internalType": "string",
          "name": "releaseDate",
          "type": "string"
        }
      ],
      "name": "PublishingDataUpdated",
      "type": "event"
    },
    {
      "anonymous": false,
      "inputs": [
        {
          "indexed": false,
          "internalType": "address",
          "name": "target",
          "type": "address"
        },
        {
          "indexed": false,
          "internalType": "address",
          "name": "sender",
          "type": "address"
        },
        {
          "components": [
            {
              "components": [
                {
                  "components": [
                    {
                      "internalType": "string",
                      "name": "losslessAudio",
                      "type": "string"
                    },
                    {
                      "components": [
                        {
                          "internalType": "string",
                          "name": "artistName",
                          "type": "string"
                        },
                        {
                          "components": [
                            {
                              "internalType": "string",
                              "name": "key",
                              "type": "string"
                            },
                            {
                              "internalType": "uint256",
                              "name": "bpm",
                              "type": "uint256"
                            },
                            {
                              "internalType": "uint256",
                              "name": "duration",
                              "type": "uint256"
                            },
                            {
                              "internalType": "string",
                              "name": "audioMimeType",
                              "type": "string"
                            },
                            {
                              "internalType": "uint256",
                              "name": "trackNumber",
                              "type": "uint256"
                            }
                          ],
                          "internalType": "struct IOnChainMetadata.AudioQuantitative",
                          "name": "audioQuantitative",
                          "type": "tuple"
                        },
                        {
                          "components": [
                            {
                              "internalType": "string",
                              "name": "license",
                              "type": "string"
                            },
                            {
                              "internalType": "string",
                              "name": "externalUrl",
                              "type": "string"
                            },
                            {
                              "internalType": "string",
                              "name": "isrc",
                              "type": "string"
                            },
                            {
                              "internalType": "string",
                              "name": "genre",
                              "type": "string"
                            }
                          ],
                          "internalType": "struct IOnChainMetadata.AudioQualitative",
                          "name": "audioQualitative",
                          "type": "tuple"
                        }
                      ],
                      "internalType": "struct IOnChainMetadata.SongDetails",
                      "name": "songDetails",
                      "type": "tuple"
                    },
                    {
                      "components": [
                        {
                          "internalType": "string",
                          "name": "lyrics",
                          "type": "string"
                        },
                        {
                          "internalType": "string",
                          "name": "lyricsNft",
                          "type": "string"
                        }
                      ],
                      "internalType": "struct IOnChainMetadata.Lyrics",
                      "name": "lyrics",
                      "type": "tuple"
                    }
                  ],
                  "internalType": "struct IOnChainMetadata.Audio",
                  "name": "audio",
                  "type": "tuple"
                },
                {
                  "components": [
                    {
                      "internalType": "string",
                      "name": "artworkUri",
                      "type": "string"
                    },
                    {
                      "internalType": "string",
                      "name": "artworkMimeType",
                      "type": "string"
                    },
                    {
                      "internalType": "string",
                      "name": "artworkNft",
                      "type": "string"
                    }
                  ],
                  "internalType": "struct IOnChainMetadata.Artwork",
                  "name": "artwork",
                  "type": "tuple"
                },
                {
                  "components": [
                    {
                      "internalType": "string",
                      "name": "artworkUri",
                      "type": "string"
                    },
                    {
                      "internalType": "string",
                      "name": "artworkMimeType",
                      "type": "string"
                    },
                    {
                      "internalType": "string",
                      "name": "artworkNft",
                      "type": "string"
                    }
                  ],
                  "internalType": "struct IOnChainMetadata.Artwork",
                  "name": "visualizer",
                  "type": "tuple"
                }
              ],
              "internalType": "struct IOnChainMetadata.SongContent",
              "name": "song",
              "type": "tuple"
            },
            {
              "components": [
                {
                  "internalType": "string",
                  "name": "title",
                  "type": "string"
                },
                {
                  "internalType": "string",
                  "name": "description",
                  "type": "string"
                },
                {
                  "internalType": "string",
                  "name": "recordLabel",
                  "type": "string"
                },
                {
                  "internalType": "string",
                  "name": "publisher",
                  "type": "string"
                },
                {
                  "internalType": "string",
                  "name": "locationCreated",
                  "type": "string"
                },
                {
                  "internalType": "string",
                  "name": "releaseDate",
                  "type": "string"
                }
              ],
              "internalType": "struct IOnChainMetadata.PublishingData",
              "name": "songPublishingData",
              "type": "tuple"
            }
          ],
          "indexed": false,
          "internalType": "struct IOnChainMetadata.SongMetadata",
          "name": "songMetadata",
          "type": "tuple"
        },
        {
          "components": [
            {
              "components": [
                {
                  "internalType": "string",
                  "name": "title",
                  "type": "string"
                },
                {
                  "internalType": "string",
                  "name": "description",
                  "type": "string"
                },
                {
                  "internalType": "string",
                  "name": "recordLabel",
                  "type": "string"
                },
                {
                  "internalType": "string",
                  "name": "publisher",
                  "type": "string"
                },
                {
                  "internalType": "string",
                  "name": "locationCreated",
                  "type": "string"
                },
                {
                  "internalType": "string",
                  "name": "releaseDate",
                  "type": "string"
                }
              ],
              "internalType": "struct IOnChainMetadata.PublishingData",
              "name": "publishingData",
              "type": "tuple"
            },
            {
              "components": [
                {
                  "internalType": "string",
                  "name": "artworkUri",
                  "type": "string"
                },
                {
                  "internalType": "string",
                  "name": "artworkMimeType",
                  "type": "string"
                },
                {
                  "internalType": "string",
                  "name": "artworkNft",
                  "type": "string"
                }
              ],
              "internalType": "struct IOnChainMetadata.Artwork",
              "name": "artwork",
              "type": "tuple"
            },
            {
              "internalType": "string",
              "name": "projectType",
              "type": "string"
            },
            {
              "internalType": "string",
              "name": "upc",
              "type": "string"
            }
          ],
          "indexed": false,
          "internalType": "struct IOnChainMetadata.ProjectMetadata",
          "name": "projectMetadata",
          "type": "tuple"
        },
        {
          "indexed": false,
          "internalType": "string[]",
          "name": "tags",
          "type": "string[]"
        },
        {
          "components": [
            {
              "internalType": "string",
              "name": "name",
              "type": "string"
            },
            {
              "internalType": "string",
              "name": "collaboratorType",
              "type": "string"
            }
          ],
          "indexed": false,
          "internalType": "struct IOnChainMetadata.Credit[]",
          "name": "credits",
          "type": "tuple[]"
        }
      ],
      "name": "SongUpdated",
      "type": "event"
    },
    {
      "anonymous": false,
      "inputs": [
        {
          "indexed": true,
          "internalType": "address",
          "name": "target",
          "type": "address"
        },
        {
          "indexed": false,
          "internalType": "address",
          "name": "sender",
          "type": "address"
        },
        {
          "indexed": false,
          "internalType": "string[]",
          "name": "tags",
          "type": "string[]"
        }
      ],
      "name": "TagsUpdated",
      "type": "event"
    },
    {
      "anonymous": false,
      "inputs": [
        {
          "indexed": true,
          "internalType": "address",
          "name": "target",
          "type": "address"
        },
        {
          "indexed": false,
          "internalType": "address",
          "name": "sender",
          "type": "address"
        },
        {
          "indexed": false,
          "internalType": "string",
          "name": "artworkUri",
          "type": "string"
        },
        {
          "indexed": false,
          "internalType": "string",
          "name": "artworkMimeType",
          "type": "string"
        },
        {
          "indexed": false,
          "internalType": "string",
          "name": "artworkNft",
          "type": "string"
        }
      ],
      "name": "VisualizerUpdated",
      "type": "event"
    },
    {
      "inputs": [
        {
          "internalType": "address",
          "name": "target",
          "type": "address"
        },
        {
          "components": [
            {
              "components": [
                {
                  "components": [
                    {
                      "internalType": "string",
                      "name": "losslessAudio",
                      "type": "string"
                    },
                    {
                      "components": [
                        {
                          "internalType": "string",
                          "name": "artistName",
                          "type": "string"
                        },
                        {
                          "components": [
                            {
                              "internalType": "string",
                              "name": "key",
                              "type": "string"
                            },
                            {
                              "internalType": "uint256",
                              "name": "bpm",
                              "type": "uint256"
                            },
                            {
                              "internalType": "uint256",
                              "name": "duration",
                              "type": "uint256"
                            },
                            {
                              "internalType": "string",
                              "name": "audioMimeType",
                              "type": "string"
                            },
                            {
                              "internalType": "uint256",
                              "name": "trackNumber",
                              "type": "uint256"
                            }
                          ],
                          "internalType": "struct IOnChainMetadata.AudioQuantitative",
                          "name": "audioQuantitative",
                          "type": "tuple"
                        },
                        {
                          "components": [
                            {
                              "internalType": "string",
                              "name": "license",
                              "type": "string"
                            },
                            {
                              "internalType": "string",
                              "name": "externalUrl",
                              "type": "string"
                            },
                            {
                              "internalType": "string",
                              "name": "isrc",
                              "type": "string"
                            },
                            {
                              "internalType": "string",
                              "name": "genre",
                              "type": "string"
                            }
                          ],
                          "internalType": "struct IOnChainMetadata.AudioQualitative",
                          "name": "audioQualitative",
                          "type": "tuple"
                        }
                      ],
                      "internalType": "struct IOnChainMetadata.SongDetails",
                      "name": "songDetails",
                      "type": "tuple"
                    },
                    {
                      "components": [
                        {
                          "internalType": "string",
                          "name": "lyrics",
                          "type": "string"
                        },
                        {
                          "internalType": "string",
                          "name": "lyricsNft",
                          "type": "string"
                        }
                      ],
                      "internalType": "struct IOnChainMetadata.Lyrics",
                      "name": "lyrics",
                      "type": "tuple"
                    }
                  ],
                  "internalType": "struct IOnChainMetadata.Audio",
                  "name": "audio",
                  "type": "tuple"
                },
                {
                  "components": [
                    {
                      "internalType": "string",
                      "name": "artworkUri",
                      "type": "string"
                    },
                    {
                      "internalType": "string",
                      "name": "artworkMimeType",
                      "type": "string"
                    },
                    {
                      "internalType": "string",
                      "name": "artworkNft",
                      "type": "string"
                    }
                  ],
                  "internalType": "struct IOnChainMetadata.Artwork",
                  "name": "artwork",
                  "type": "tuple"
                },
                {
                  "components": [
                    {
                      "internalType": "string",
                      "name": "artworkUri",
                      "type": "string"
                    },
                    {
                      "internalType": "string",
                      "name": "artworkMimeType",
                      "type": "string"
                    },
                    {
                      "internalType": "string",
                      "name": "artworkNft",
                      "type": "string"
                    }
                  ],
                  "internalType": "struct IOnChainMetadata.Artwork",
                  "name": "visualizer",
                  "type": "tuple"
                }
              ],
              "internalType": "struct IOnChainMetadata.SongContent",
              "name": "song",
              "type": "tuple"
            },
            {
              "components": [
                {
                  "internalType": "string",
                  "name": "title",
                  "type": "string"
                },
                {
                  "internalType": "string",
                  "name": "description",
                  "type": "string"
                },
                {
                  "internalType": "string",
                  "name": "recordLabel",
                  "type": "string"
                },
                {
                  "internalType": "string",
                  "name": "publisher",
                  "type": "string"
                },
                {
                  "internalType": "string",
                  "name": "locationCreated",
                  "type": "string"
                },
                {
                  "internalType": "string",
                  "name": "releaseDate",
                  "type": "string"
                }
              ],
              "internalType": "struct IOnChainMetadata.PublishingData",
              "name": "songPublishingData",
              "type": "tuple"
            }
          ],
          "internalType": "struct IOnChainMetadata.SongMetadata",
          "name": "_songMetadata",
          "type": "tuple"
        },
        {
          "components": [
            {
              "components": [
                {
                  "internalType": "string",
                  "name": "title",
                  "type": "string"
                },
                {
                  "internalType": "string",
                  "name": "description",
                  "type": "string"
                },
                {
                  "internalType": "string",
                  "name": "recordLabel",
                  "type": "string"
                },
                {
                  "internalType": "string",
                  "name": "publisher",
                  "type": "string"
                },
                {
                  "internalType": "string",
                  "name": "locationCreated",
                  "type": "string"
                },
                {
                  "internalType": "string",
                  "name": "releaseDate",
                  "type": "string"
                }
              ],
              "internalType": "struct IOnChainMetadata.PublishingData",
              "name": "publishingData",
              "type": "tuple"
            },
            {
              "components": [
                {
                  "internalType": "string",
                  "name": "artworkUri",
                  "type": "string"
                },
                {
                  "internalType": "string",
                  "name": "artworkMimeType",
                  "type": "string"
                },
                {
                  "internalType": "string",
                  "name": "artworkNft",
                  "type": "string"
                }
              ],
              "internalType": "struct IOnChainMetadata.Artwork",
              "name": "artwork",
              "type": "tuple"
            },
            {
              "internalType": "string",
              "name": "projectType",
              "type": "string"
            },
            {
              "internalType": "string",
              "name": "upc",
              "type": "string"
            }
          ],
          "internalType": "struct IOnChainMetadata.ProjectMetadata",
          "name": "_projectMetadata",
          "type": "tuple"
        },
        {
          "internalType": "string[]",
          "name": "_tags",
          "type": "string[]"
        },
        {
          "components": [
            {
              "internalType": "string",
              "name": "name",
              "type": "string"
            },
            {
              "internalType": "string",
              "name": "collaboratorType",
              "type": "string"
            }
          ],
          "internalType": "struct IOnChainMetadata.Credit[]",
          "name": "_credits",
          "type": "tuple[]"
        }
      ],
      "name": "bulkUpdate",
      "outputs": [],
      "stateMutability": "nonpayable",
      "type": "function"
    },
    {
      "inputs": [],
      "name": "contractURI",
      "outputs": [
        {
          "internalType": "string",
          "name": "",
          "type": "string"
        }
      ],
      "stateMutability": "view",
      "type": "function"
    },
    {
      "inputs": [
        {
          "internalType": "bytes",
          "name": "data",
          "type": "bytes"
        }
      ],
      "name": "initializeWithData",
      "outputs": [],
      "stateMutability": "nonpayable",
      "type": "function"
    },
    {
      "inputs": [
        {
          "internalType": "address",
          "name": "",
          "type": "address"
        }
      ],
      "name": "projectMetadatas",
      "outputs": [
        {
          "components": [
            {
              "internalType": "string",
              "name": "title",
              "type": "string"
            },
            {
              "internalType": "string",
              "name": "description",
              "type": "string"
            },
            {
              "internalType": "string",
              "name": "recordLabel",
              "type": "string"
            },
            {
              "internalType": "string",
              "name": "publisher",
              "type": "string"
            },
            {
              "internalType": "string",
              "name": "locationCreated",
              "type": "string"
            },
            {
              "internalType": "string",
              "name": "releaseDate",
              "type": "string"
            }
          ],
          "internalType": "struct IOnChainMetadata.PublishingData",
          "name": "publishingData",
          "type": "tuple"
        },
        {
          "components": [
            {
              "internalType": "string",
              "name": "artworkUri",
              "type": "string"
            },
            {
              "internalType": "string",
              "name": "artworkMimeType",
              "type": "string"
            },
            {
              "internalType": "string",
              "name": "artworkNft",
              "type": "string"
            }
          ],
          "internalType": "struct IOnChainMetadata.Artwork",
          "name": "artwork",
          "type": "tuple"
        },
        {
          "internalType": "string",
          "name": "projectType",
          "type": "string"
        },
        {
          "internalType": "string",
          "name": "upc",
          "type": "string"
        }
      ],
      "stateMutability": "view",
      "type": "function"
    },
    {
      "inputs": [],
      "name": "sharedNFTLogic",
      "outputs": [
        {
          "internalType": "contract ISharedNFTLogic",
          "name": "",
          "type": "address"
        }
      ],
      "stateMutability": "view",
      "type": "function"
    },
    {
      "inputs": [
        {
          "internalType": "address",
          "name": "",
          "type": "address"
        }
      ],
      "name": "songMetadatas",
      "outputs": [
        {
          "components": [
            {
              "components": [
                {
                  "internalType": "string",
                  "name": "losslessAudio",
                  "type": "string"
                },
                {
                  "components": [
                    {
                      "internalType": "string",
                      "name": "artistName",
                      "type": "string"
                    },
                    {
                      "components": [
                        {
                          "internalType": "string",
                          "name": "key",
                          "type": "string"
                        },
                        {
                          "internalType": "uint256",
                          "name": "bpm",
                          "type": "uint256"
                        },
                        {
                          "internalType": "uint256",
                          "name": "duration",
                          "type": "uint256"
                        },
                        {
                          "internalType": "string",
                          "name": "audioMimeType",
                          "type": "string"
                        },
                        {
                          "internalType": "uint256",
                          "name": "trackNumber",
                          "type": "uint256"
                        }
                      ],
                      "internalType": "struct IOnChainMetadata.AudioQuantitative",
                      "name": "audioQuantitative",
                      "type": "tuple"
                    },
                    {
                      "components": [
                        {
                          "internalType": "string",
                          "name": "license",
                          "type": "string"
                        },
                        {
                          "internalType": "string",
                          "name": "externalUrl",
                          "type": "string"
                        },
                        {
                          "internalType": "string",
                          "name": "isrc",
                          "type": "string"
                        },
                        {
                          "internalType": "string",
                          "name": "genre",
                          "type": "string"
                        }
                      ],
                      "internalType": "struct IOnChainMetadata.AudioQualitative",
                      "name": "audioQualitative",
                      "type": "tuple"
                    }
                  ],
                  "internalType": "struct IOnChainMetadata.SongDetails",
                  "name": "songDetails",
                  "type": "tuple"
                },
                {
                  "components": [
                    {
                      "internalType": "string",
                      "name": "lyrics",
                      "type": "string"
                    },
                    {
                      "internalType": "string",
                      "name": "lyricsNft",
                      "type": "string"
                    }
                  ],
                  "internalType": "struct IOnChainMetadata.Lyrics",
                  "name": "lyrics",
                  "type": "tuple"
                }
              ],
              "internalType": "struct IOnChainMetadata.Audio",
              "name": "audio",
              "type": "tuple"
            },
            {
              "components": [
                {
                  "internalType": "string",
                  "name": "artworkUri",
                  "type": "string"
                },
                {
                  "internalType": "string",
                  "name": "artworkMimeType",
                  "type": "string"
                },
                {
                  "internalType": "string",
                  "name": "artworkNft",
                  "type": "string"
                }
              ],
              "internalType": "struct IOnChainMetadata.Artwork",
              "name": "artwork",
              "type": "tuple"
            },
            {
              "components": [
                {
                  "internalType": "string",
                  "name": "artworkUri",
                  "type": "string"
                },
                {
                  "internalType": "string",
                  "name": "artworkMimeType",
                  "type": "string"
                },
                {
                  "internalType": "string",
                  "name": "artworkNft",
                  "type": "string"
                }
              ],
              "internalType": "struct IOnChainMetadata.Artwork",
              "name": "visualizer",
              "type": "tuple"
            }
          ],
          "internalType": "struct IOnChainMetadata.SongContent",
          "name": "song",
          "type": "tuple"
        },
        {
          "components": [
            {
              "internalType": "string",
              "name": "title",
              "type": "string"
            },
            {
              "internalType": "string",
              "name": "description",
              "type": "string"
            },
            {
              "internalType": "string",
              "name": "recordLabel",
              "type": "string"
            },
            {
              "internalType": "string",
              "name": "publisher",
              "type": "string"
            },
            {
              "internalType": "string",
              "name": "locationCreated",
              "type": "string"
            },
            {
              "internalType": "string",
              "name": "releaseDate",
              "type": "string"
            }
          ],
          "internalType": "struct IOnChainMetadata.PublishingData",
          "name": "songPublishingData",
          "type": "tuple"
        }
      ],
      "stateMutability": "view",
      "type": "function"
    },
    {
      "inputs": [
        {
          "internalType": "uint256",
          "name": "tokenId",
          "type": "uint256"
        }
      ],
      "name": "tokenURI",
      "outputs": [
        {
          "internalType": "string",
          "name": "",
          "type": "string"
        }
      ],
      "stateMutability": "view",
      "type": "function"
    },
    {
      "inputs": [
        {
          "internalType": "uint256",
          "name": "tokenId",
          "type": "uint256"
        },
        {
          "internalType": "address",
          "name": "target",
          "type": "address"
        }
      ],
      "name": "tokenURITarget",
      "outputs": [
        {
          "internalType": "string",
          "name": "",
          "type": "string"
        }
      ],
      "stateMutability": "view",
      "type": "function"
    },
    {
      "inputs": [
        {
          "internalType": "address",
          "name": "target",
          "type": "address"
        },
        {
          "components": [
            {
              "internalType": "string",
              "name": "name",
              "type": "string"
            },
            {
              "internalType": "string",
              "name": "collaboratorType",
              "type": "string"
            }
          ],
          "internalType": "struct IOnChainMetadata.Credit[]",
          "name": "_credits",
          "type": "tuple[]"
        }
      ],
      "name": "updateCredits",
      "outputs": [],
      "stateMutability": "nonpayable",
      "type": "function"
    },
    {
      "inputs": [
        {
          "internalType": "address",
          "name": "target",
          "type": "address"
        },
        {
          "internalType": "string",
          "name": "newDescription",
          "type": "string"
        }
      ],
      "name": "updateDescription",
      "outputs": [],
      "stateMutability": "nonpayable",
      "type": "function"
    },
    {
      "inputs": [
        {
          "internalType": "address",
          "name": "target",
          "type": "address"
        },
        {
          "internalType": "string",
          "name": "imageURI",
          "type": "string"
        },
        {
          "internalType": "string",
          "name": "animationURI",
          "type": "string"
        }
      ],
      "name": "updateMediaURIs",
      "outputs": [],
      "stateMutability": "nonpayable",
      "type": "function"
    },
    {
      "inputs": [
        {
          "internalType": "address",
          "name": "target",
          "type": "address"
        },
        {
          "internalType": "string[]",
          "name": "tags",
          "type": "string[]"
        }
      ],
      "name": "updateTags",
      "outputs": [],
      "stateMutability": "nonpayable",
      "type": "function"
    }
  ],
  "bytecode": "0x60a06040523480156200001157600080fd5b50604051620041b5380380620041b5833981016040819052620000349162000046565b6001600160a01b031660805262000078565b6000602082840312156200005957600080fd5b81516001600160a01b03811681146200007157600080fd5b9392505050565b608051614113620000a2600039600081816101b20152818161120c015261251101526141136000f3fe608060405234801561001057600080fd5b50600436106100b45760003560e01c8063b80adf2511610071578063b80adf2514610146578063c87b56dd14610166578063d1fe4b3d14610179578063d5159df71461018c578063d67e9d93146101ad578063e8a3d485146101ec57600080fd5b80631821cdde146100b95780632f17b8f0146100ce578063856a7ffa146100e15780638bbb2cf2146100f4578063af9bb79714610107578063afb5b68414610133575b600080fd5b6100cc6100c7366004612d31565b6101f4565b005b6100cc6100dc366004613108565b61071f565b6100cc6100ef36600461317d565b61087a565b6100cc6101023660046131cd565b610943565b61011a61011536600461321c565b610a73565b60405161012a949392919061337c565b60405180910390f35b6100cc6101413660046133d4565b6110e9565b610159610154366004613419565b611208565b60405161012a9190613449565b61015961017436600461345c565b611360565b6100cc610187366004613475565b61136d565b61019f61019a36600461321c565b6115e3565b60405161012a92919061365e565b6101d47f000000000000000000000000000000000000000000000000000000000000000081565b6040516001600160a01b03909116815260200161012a565b610159612344565b856001600160a01b03811633148015906102905750336001600160a01b0316816001600160a01b0316638da5cb5b6040518163ffffffff1660e01b815260040160206040518083038186803b15801561024c57600080fd5b505afa158015610260573d6000803e3d6000fd5b505050506040513d601f19601f820116820180604052508101906102849190613683565b6001600160a01b031614155b156102ae576040516302bd6bd160e01b815260040160405180910390fd5b6001600160a01b03871660009081526020818152604090912087518051805180518b9585939284926102e39284920190612604565b5060208281015180518051919260018501926103029284920190612604565b5060208281015180518051919260018501926103219284920190612604565b506020828101516001830155604083015160028301556060830151805161034e9260038501920190612604565b5060809190910151600490910155604082015180518051600684019161037991839160200190612604565b5060208281015180516103929260018501920190612604565b50604082015180516103ae916002840191602090910190612604565b50606082015180516103ca916003840191602090910190612604565b50505050604083015180518051919250600b8401916103f0918391602090910190612604565b5060208281015180516104099260018501920190612604565b5050505060208381015180518051919350600d85019261042e92849290910190612604565b5060208281015180516104479260018501920190612604565b5060408201518051610463916002840191602090910190612604565b505050604082015180518051601084019161048391839160200190612604565b50602082810151805161049c9260018501920190612604565b50604082015180516104b8916002840191602090910190612604565b505050506020838101518051805191935060138501926104dd92849290910190612604565b5060208281015180516104f69260018501920190612604565b5060408201518051610512916002840191602090910190612604565b506060820151805161052e916003840191602090910190612604565b506080820151805161054a916004840191602090910190612604565b5060a08201518051610566916005840191602090910190612604565b5050506001600160a01b03891660009081526001602090815260409091208851805180518b9650929450909284926105a19284920190612604565b5060208281015180516105ba9260018501920190612604565b50604082015180516105d6916002840191602090910190612604565b50606082015180516105f2916003840191602090910190612604565b506080820151805161060e916004840191602090910190612604565b5060a0820151805161062a916005840191602090910190612604565b505050602082810151805180519192600685019261064b9284920190612604565b5060208281015180516106649260018501920190612604565b5060408201518051610680916002840191602090910190612604565b5050506040820151805161069e916009840191602090910190612604565b50606082015180516106ba91600a840191602090910190612604565b509050506106c887856110e9565b6106d387848461136d565b7fd8dc0881ec840ecce080f25893fc6ed26eb14e3cb10bdf02b5536bff243a1efa8733888888888860405161070e9796959493929190613804565b60405180910390a150505050505050565b826001600160a01b03811633148015906107bb5750336001600160a01b0316816001600160a01b0316638da5cb5b6040518163ffffffff1660e01b815260040160206040518083038186803b15801561077757600080fd5b505afa15801561078b573d6000803e3d6000fd5b505050506040513d601f19601f820116820180604052508101906107af9190613683565b6001600160a01b031614155b156107d9576040516302bd6bd160e01b815260040160405180910390fd5b6001600160a01b038416600090815260208181526040909120845161080692600d90920191860190612604565b506001600160a01b038416600090815260208181526040909120835161082e92850190612604565b50836001600160a01b03167fc4c1b9223fcebe5f35b9030d3df655018c40e88d70b8a3c63ed851c5d972210f33858560405161086c939291906138fa565b60405180910390a250505050565b600080600083806020019051810190610893919061397f565b3360009081526020818152604090912084519497509295509093506108c19260149092019190860190612604565b503360009081526020818152604090912082516108e092840190612604565b5033600090815260208181526040909120835161090592600d90920191850190612604565b50336001600160a01b03167ff889a5cdc62274389379cbfade0f225b1d30b7395177fd6aeaab61662b1c6edf84848460405161086c939291906139fc565b816001600160a01b03811633148015906109df5750336001600160a01b0316816001600160a01b0316638da5cb5b6040518163ffffffff1660e01b815260040160206040518083038186803b15801561099b57600080fd5b505afa1580156109af573d6000803e3d6000fd5b505050506040513d601f19601f820116820180604052508101906109d39190613683565b6001600160a01b031614155b156109fd576040516302bd6bd160e01b815260040160405180910390fd5b6001600160a01b0383166000908152602081815260409091208351610a2a92601490920191850190612604565b50826001600160a01b03167f36195b44a3184513e02477929207751ea9d67026b917ed74d374a7f9e8c5e4d13384604051610a66929190613a35565b60405180910390a2505050565b6001602052806000526040600020600091509050806000016040518060c0016040529081600082018054610aa690613a59565b80601f0160208091040260200160405190810160405280929190818152602001828054610ad290613a59565b8015610b1f5780601f10610af457610100808354040283529160200191610b1f565b820191906000526020600020905b815481529060010190602001808311610b0257829003601f168201915b50505050508152602001600182018054610b3890613a59565b80601f0160208091040260200160405190810160405280929190818152602001828054610b6490613a59565b8015610bb15780601f10610b8657610100808354040283529160200191610bb1565b820191906000526020600020905b815481529060010190602001808311610b9457829003601f168201915b50505050508152602001600282018054610bca90613a59565b80601f0160208091040260200160405190810160405280929190818152602001828054610bf690613a59565b8015610c435780601f10610c1857610100808354040283529160200191610c43565b820191906000526020600020905b815481529060010190602001808311610c2657829003601f168201915b50505050508152602001600382018054610c5c90613a59565b80601f0160208091040260200160405190810160405280929190818152602001828054610c8890613a59565b8015610cd55780601f10610caa57610100808354040283529160200191610cd5565b820191906000526020600020905b815481529060010190602001808311610cb857829003601f168201915b50505050508152602001600482018054610cee90613a59565b80601f0160208091040260200160405190810160405280929190818152602001828054610d1a90613a59565b8015610d675780601f10610d3c57610100808354040283529160200191610d67565b820191906000526020600020905b815481529060010190602001808311610d4a57829003601f168201915b50505050508152602001600582018054610d8090613a59565b80601f0160208091040260200160405190810160405280929190818152602001828054610dac90613a59565b8015610df95780601f10610dce57610100808354040283529160200191610df9565b820191906000526020600020905b815481529060010190602001808311610ddc57829003601f168201915b5050505050815250509080600601604051806060016040529081600082018054610e2290613a59565b80601f0160208091040260200160405190810160405280929190818152602001828054610e4e90613a59565b8015610e9b5780601f10610e7057610100808354040283529160200191610e9b565b820191906000526020600020905b815481529060010190602001808311610e7e57829003601f168201915b50505050508152602001600182018054610eb490613a59565b80601f0160208091040260200160405190810160405280929190818152602001828054610ee090613a59565b8015610f2d5780601f10610f0257610100808354040283529160200191610f2d565b820191906000526020600020905b815481529060010190602001808311610f1057829003601f168201915b50505050508152602001600282018054610f4690613a59565b80601f0160208091040260200160405190810160405280929190818152602001828054610f7290613a59565b8015610fbf5780601f10610f9457610100808354040283529160200191610fbf565b820191906000526020600020905b815481529060010190602001808311610fa257829003601f168201915b50505050508152505090806009018054610fd890613a59565b80601f016020809104026020016040519081016040528092919081815260200182805461100490613a59565b80156110515780601f1061102657610100808354040283529160200191611051565b820191906000526020600020905b81548152906001019060200180831161103457829003601f168201915b50505050509080600a01805461106690613a59565b80601f016020809104026020016040519081016040528092919081815260200182805461109290613a59565b80156110df5780601f106110b4576101008083540402835291602001916110df565b820191906000526020600020905b8154815290600101906020018083116110c257829003601f168201915b5050505050905084565b816001600160a01b03811633148015906111855750336001600160a01b0316816001600160a01b0316638da5cb5b6040518163ffffffff1660e01b815260040160206040518083038186803b15801561114157600080fd5b505afa158015611155573d6000803e3d6000fd5b505050506040513d601f19601f820116820180604052508101906111799190613683565b6001600160a01b031614155b156111a3576040516302bd6bd160e01b815260040160405180910390fd5b6001600160a01b038316600090815260026020908152604090912083516111cc92850190612688565b50826001600160a01b03167f70deccfc75f688d1fad2a661e4818b3a9939f15bd374bb3b28c5d8b013446b723384604051610a66929190613a94565b60607f00000000000000000000000000000000000000000000000000000000000000006001600160a01b0316630464320b836001600160a01b03166306fdde036040518163ffffffff1660e01b815260040160006040518083038186803b15801561127257600080fd5b505afa158015611286573d6000803e3d6000fd5b505050506040513d6000823e601f3d908101601f191682016040526112ae9190810190613ab8565b6001600160a01b038516600090815260208181526040808320600183528184206003845282852060029094529382902091516001600160e01b031960e088901b16815261130595948b949293909291600401613d8f565b60006040518083038186803b15801561131d57600080fd5b505afa158015611331573d6000803e3d6000fd5b505050506040513d6000823e601f3d908101601f191682016040526113599190810190613ab8565b9392505050565b6060336113598382611208565b826001600160a01b03811633148015906114095750336001600160a01b0316816001600160a01b0316638da5cb5b6040518163ffffffff1660e01b815260040160206040518083038186803b1580156113c557600080fd5b505afa1580156113d9573d6000803e3d6000fd5b505050506040513d601f19601f820116820180604052508101906113fd9190613683565b6001600160a01b031614155b15611427576040516302bd6bd160e01b815260040160405180910390fd5b6001600160a01b0384166000908152600360205260408120611448916126e1565b60005b828110156115a5576001600160a01b038516600090815260036020526040908190208151808301909252908086868581811061148957611489613f06565b905060200281019061149b9190613f1c565b6114a59080613f3c565b8080601f0160208091040260200160405190810160405280939291908181526020018383808284376000920191909152505050908252506020018686858181106114f1576114f1613f06565b90506020028101906115039190613f1c565b611511906020810190613f3c565b8080601f0160208091040260200160405190810160405280939291908181526020018383808284376000920182905250939094525050835460018101855593815260209081902083518051949560020290910193611576935084929190910190612604565b50602082810151805161158f9260018501920190612604565b505050808061159d90613f82565b91505061144b565b50836001600160a01b03167f96e9933dcda4e1f454ca4daf8783c1a245e683873ee5c52bf9df39e5bebb971533858560405161086c93929190613fab565b60006020819052908152604090819020815160c08101909252805490919082908290606082019083908290829061161990613a59565b80601f016020809104026020016040519081016040528092919081815260200182805461164590613a59565b80156116925780601f1061166757610100808354040283529160200191611692565b820191906000526020600020905b81548152906001019060200180831161167557829003601f168201915b50505050508152602001600182016040518060600160405290816000820180546116bb90613a59565b80601f01602080910402602001604051908101604052809291908181526020018280546116e790613a59565b80156117345780601f1061170957610100808354040283529160200191611734565b820191906000526020600020905b81548152906001019060200180831161171757829003601f168201915b50505050508152602001600182016040518060a001604052908160008201805461175d90613a59565b80601f016020809104026020016040519081016040528092919081815260200182805461178990613a59565b80156117d65780601f106117ab576101008083540402835291602001916117d6565b820191906000526020600020905b8154815290600101906020018083116117b957829003601f168201915b50505050508152602001600182015481526020016002820154815260200160038201805461180390613a59565b80601f016020809104026020016040519081016040528092919081815260200182805461182f90613a59565b801561187c5780601f106118515761010080835404028352916020019161187c565b820191906000526020600020905b81548152906001019060200180831161185f57829003601f168201915b505050505081526020016004820154815250508152602001600682016040518060800160405290816000820180546118b390613a59565b80601f01602080910402602001604051908101604052809291908181526020018280546118df90613a59565b801561192c5780601f106119015761010080835404028352916020019161192c565b820191906000526020600020905b81548152906001019060200180831161190f57829003601f168201915b5050505050815260200160018201805461194590613a59565b80601f016020809104026020016040519081016040528092919081815260200182805461197190613a59565b80156119be5780601f10611993576101008083540402835291602001916119be565b820191906000526020600020905b8154815290600101906020018083116119a157829003601f168201915b505050505081526020016002820180546119d790613a59565b80601f0160208091040260200160405190810160405280929190818152602001828054611a0390613a59565b8015611a505780601f10611a2557610100808354040283529160200191611a50565b820191906000526020600020905b815481529060010190602001808311611a3357829003601f168201915b50505050508152602001600382018054611a6990613a59565b80601f0160208091040260200160405190810160405280929190818152602001828054611a9590613a59565b8015611ae25780601f10611ab757610100808354040283529160200191611ae2565b820191906000526020600020905b815481529060010190602001808311611ac557829003601f168201915b505050505081525050815250508152602001600b8201604051806040016040529081600082018054611b1390613a59565b80601f0160208091040260200160405190810160405280929190818152602001828054611b3f90613a59565b8015611b8c5780601f10611b6157610100808354040283529160200191611b8c565b820191906000526020600020905b815481529060010190602001808311611b6f57829003601f168201915b50505050508152602001600182018054611ba590613a59565b80601f0160208091040260200160405190810160405280929190818152602001828054611bd190613a59565b8015611c1e5780601f10611bf357610100808354040283529160200191611c1e565b820191906000526020600020905b815481529060010190602001808311611c0157829003601f168201915b505050505081525050815250508152602001600d8201604051806060016040529081600082018054611c4f90613a59565b80601f0160208091040260200160405190810160405280929190818152602001828054611c7b90613a59565b8015611cc85780601f10611c9d57610100808354040283529160200191611cc8565b820191906000526020600020905b815481529060010190602001808311611cab57829003601f168201915b50505050508152602001600182018054611ce190613a59565b80601f0160208091040260200160405190810160405280929190818152602001828054611d0d90613a59565b8015611d5a5780601f10611d2f57610100808354040283529160200191611d5a565b820191906000526020600020905b815481529060010190602001808311611d3d57829003601f168201915b50505050508152602001600282018054611d7390613a59565b80601f0160208091040260200160405190810160405280929190818152602001828054611d9f90613a59565b8015611dec5780601f10611dc157610100808354040283529160200191611dec565b820191906000526020600020905b815481529060010190602001808311611dcf57829003601f168201915b505050505081525050815260200160108201604051806060016040529081600082018054611e1990613a59565b80601f0160208091040260200160405190810160405280929190818152602001828054611e4590613a59565b8015611e925780601f10611e6757610100808354040283529160200191611e92565b820191906000526020600020905b815481529060010190602001808311611e7557829003601f168201915b50505050508152602001600182018054611eab90613a59565b80601f0160208091040260200160405190810160405280929190818152602001828054611ed790613a59565b8015611f245780601f10611ef957610100808354040283529160200191611f24565b820191906000526020600020905b815481529060010190602001808311611f0757829003601f168201915b50505050508152602001600282018054611f3d90613a59565b80601f0160208091040260200160405190810160405280929190818152602001828054611f6990613a59565b8015611fb65780601f10611f8b57610100808354040283529160200191611fb6565b820191906000526020600020905b815481529060010190602001808311611f9957829003601f168201915b5050505050815250508152505090806013016040518060c0016040529081600082018054611fe390613a59565b80601f016020809104026020016040519081016040528092919081815260200182805461200f90613a59565b801561205c5780601f106120315761010080835404028352916020019161205c565b820191906000526020600020905b81548152906001019060200180831161203f57829003601f168201915b5050505050815260200160018201805461207590613a59565b80601f01602080910402602001604051908101604052809291908181526020018280546120a190613a59565b80156120ee5780601f106120c3576101008083540402835291602001916120ee565b820191906000526020600020905b8154815290600101906020018083116120d157829003601f168201915b5050505050815260200160028201805461210790613a59565b80601f016020809104026020016040519081016040528092919081815260200182805461213390613a59565b80156121805780601f1061215557610100808354040283529160200191612180565b820191906000526020600020905b81548152906001019060200180831161216357829003601f168201915b5050505050815260200160038201805461219990613a59565b80601f01602080910402602001604051908101604052809291908181526020018280546121c590613a59565b80156122125780601f106121e757610100808354040283529160200191612212565b820191906000526020600020905b8154815290600101906020018083116121f557829003601f168201915b5050505050815260200160048201805461222b90613a59565b80601f016020809104026020016040519081016040528092919081815260200182805461225790613a59565b80156122a45780601f10612279576101008083540402835291602001916122a4565b820191906000526020600020905b81548152906001019060200180831161228757829003601f168201915b505050505081526020016005820180546122bd90613a59565b80601f01602080910402602001604051908101604052809291908181526020018280546122e990613a59565b80156123365780601f1061230b57610100808354040283529160200191612336565b820191906000526020600020905b81548152906001019060200180831161231957829003601f168201915b505050505081525050905082565b604080516020808201835260008083523380825291819052928320600d018054606094929392919061237590613a59565b905011156123b9576001600160a01b0382166000908152602081815260409182902091516123a792600d01910161403f565b60405160208183030381529060405290505b6001600160a01b038216600090815260208190526040812060050180548291906123e290613a59565b905011905060008161246857836001600160a01b03166306fdde036040518163ffffffff1660e01b815260040160006040518083038186803b15801561242757600080fd5b505afa15801561243b573d6000803e3d6000fd5b505050506040513d6000823e601f3d908101601f191682016040526124639190810190613ab8565b61250d565b6001600160a01b0384166000908152602081905260409020601301805461248e90613a59565b80601f01602080910402602001604051908101604052809291908181526020018280546124ba90613a59565b80156125075780601f106124dc57610100808354040283529160200191612507565b820191906000526020600020905b8154815290600101906020018083116124ea57829003601f168201915b50505050505b90507f00000000000000000000000000000000000000000000000000000000000000006001600160a01b031663d01fde8c82600080886001600160a01b03166001600160a01b031681526020019081526020016000206013016001018660405160200161257c93929190614061565b6040516020818303038152906040526040518263ffffffff1660e01b81526004016125a79190613449565b60006040518083038186803b1580156125bf57600080fd5b505afa1580156125d3573d6000803e3d6000fd5b505050506040513d6000823e601f3d908101601f191682016040526125fb9190810190613ab8565b94505050505090565b82805461261090613a59565b90600052602060002090601f0160209004810192826126325760008555612678565b82601f1061264b57805160ff1916838001178555612678565b82800160010185558215612678579182015b8281111561267857825182559160200191906001019061265d565b50612684929150612705565b5090565b8280548282559060005260206000209081019282156126d5579160200282015b828111156126d557825180516126c5918491602090910190612604565b50916020019190600101906126a8565b5061268492915061271a565b50805460008255600202906000526020600020908101906127029190612737565b50565b5b808211156126845760008155600101612706565b8082111561268457600061272e8282612762565b5060010161271a565b8082111561268457600061274b8282612762565b612759600183016000612762565b50600201612737565b50805461276e90613a59565b6000825580601f1061277e575050565b601f0160209004906000526020600020908101906127029190612705565b6001600160a01b038116811461270257600080fd5b634e487b7160e01b600052604160045260246000fd5b604051608081016001600160401b03811182821017156127e9576127e96127b1565b60405290565b604080519081016001600160401b03811182821017156127e9576127e96127b1565b604051606081016001600160401b03811182821017156127e9576127e96127b1565b60405160c081016001600160401b03811182821017156127e9576127e96127b1565b60405160a081016001600160401b03811182821017156127e9576127e96127b1565b604051601f8201601f191681016001600160401b038111828210171561289f5761289f6127b1565b604052919050565b60006001600160401b038211156128c0576128c06127b1565b50601f01601f191660200190565b60006128e16128dc846128a7565b612877565b90508281528383830111156128f557600080fd5b828260208301376000602084830101529392505050565b600082601f83011261291d57600080fd5b611359838335602085016128ce565b60006080828403121561293e57600080fd5b6129466127c7565b905081356001600160401b038082111561295f57600080fd5b61296b8583860161290c565b8352602084013591508082111561298157600080fd5b61298d8583860161290c565b602084015260408401359150808211156129a657600080fd5b6129b28583860161290c565b604084015260608401359150808211156129cb57600080fd5b506129d88482850161290c565b60608301525092915050565b6000604082840312156129f657600080fd5b6129fe6127ef565b905081356001600160401b0380821115612a1757600080fd5b612a238583860161290c565b83526020840135915080821115612a3957600080fd5b50612a468482850161290c565b60208301525092915050565b600060608284031215612a6457600080fd5b612a6c612811565b905081356001600160401b0380821115612a8557600080fd5b612a918583860161290c565b83526020840135915080821115612aa757600080fd5b612ab38583860161290c565b60208401526040840135915080821115612acc57600080fd5b50612ad98482850161290c565b60408301525092915050565b600060c08284031215612af757600080fd5b612aff612833565b905081356001600160401b0380821115612b1857600080fd5b612b248583860161290c565b83526020840135915080821115612b3a57600080fd5b612b468583860161290c565b60208401526040840135915080821115612b5f57600080fd5b612b6b8583860161290c565b60408401526060840135915080821115612b8457600080fd5b612b908583860161290c565b60608401526080840135915080821115612ba957600080fd5b612bb58583860161290c565b608084015260a0840135915080821115612bce57600080fd5b50612bdb8482850161290c565b60a08301525092915050565b600060808284031215612bf957600080fd5b612c016127c7565b905081356001600160401b0380821115612c1a57600080fd5b612c2685838601612ae5565b83526020840135915080821115612c3c57600080fd5b61298d85838601612a52565b600082601f830112612c5957600080fd5b813560206001600160401b0380831115612c7557612c756127b1565b8260051b612c84838201612877565b9384528581018301938381019088861115612c9e57600080fd5b84880192505b85831015612cda57823584811115612cbc5760008081fd5b612cca8a87838c010161290c565b8352509184019190840190612ca4565b98975050505050505050565b60008083601f840112612cf857600080fd5b5081356001600160401b03811115612d0f57600080fd5b6020830191508360208260051b8501011115612d2a57600080fd5b9250929050565b60008060008060008060a08789031215612d4a57600080fd5b612d54873561279c565b863595506001600160401b0360208801351115612d7057600080fd5b602087013587016040818a031215612d8757600080fd5b612d8f6127ef565b6001600160401b0382351115612da457600080fd5b6060823583018b031215612db757600080fd5b612dbf612811565b6001600160401b0383358401351115612dd757600080fd5b823583018035016060818d031215612dee57600080fd5b612df6612811565b6001600160401b0382351115612e0b57600080fd5b612e188d8335840161290c565b81526001600160401b0360208301351115612e3257600080fd5b6060602083013583018e031215612e4857600080fd5b612e50612811565b6001600160401b0360208401358401351115612e6b57600080fd5b612e7e8e6020850135850180350161290c565b81526001600160401b03602080850135850101351115612e9d57600080fd5b60a0602084810135850190810135018f031215612eb957600080fd5b612ec1612855565b6001600160401b0360208581013586019081013501351115612ee257600080fd5b612efb8f6020868101358701908101350180350161290c565b8152602084810135850180820135018082013591830191909152604080820135908301526001600160401b036060909101351115612f3857600080fd5b612f548f6020868101358701908101350160608101350161290c565b6060820152602084810135850180820135810160809081013590840152908301919091526001600160401b036040909101351115612f9157600080fd5b612fa78e6020850135850160408101350161292c565b6040820152806020830152506001600160401b0360408301351115612fcb57600080fd5b612fdb8d604084013584016129e4565b60408201528252506001600160401b0383358401602001351115612ffe57600080fd5b6130118b84358501602081013501612a52565b60208201526001600160401b036040843585010135111561303157600080fd5b6130448b84358501604081013501612a52565b604082015281526001600160401b036020830135111561306357600080fd5b6130738a60208401358401612ae5565b60208201529550506001600160401b036040880135111561309357600080fd5b6130a38860408901358901612be7565b93506001600160401b03606088013511156130bd57600080fd5b6130cd8860608901358901612c48565b92506001600160401b03608088013511156130e757600080fd5b6130f78860808901358901612ce6565b969995985093965091949293915050565b60008060006060848603121561311d57600080fd5b83356131288161279c565b925060208401356001600160401b038082111561314457600080fd5b6131508783880161290c565b9350604086013591508082111561316657600080fd5b506131738682870161290c565b9150509250925092565b60006020828403121561318f57600080fd5b81356001600160401b038111156131a557600080fd5b8201601f810184136131b657600080fd5b6131c5848235602084016128ce565b949350505050565b600080604083850312156131e057600080fd5b82356131eb8161279c565b915060208301356001600160401b0381111561320657600080fd5b6132128582860161290c565b9150509250929050565b60006020828403121561322e57600080fd5b81356113598161279c565b60005b8381101561325457818101518382015260200161323c565b83811115613263576000848401525b50505050565b60008151808452613281816020860160208601613239565b601f01601f19169290920160200192915050565b6000815160c084526132aa60c0850182613269565b9050602083015184820360208601526132c38282613269565b915050604083015184820360408601526132dd8282613269565b915050606083015184820360608601526132f78282613269565b915050608083015184820360808601526133118282613269565b91505060a083015184820360a086015261332b8282613269565b95945050505050565b60008151606084526133496060850182613269565b9050602083015184820360208601526133628282613269565b9150506040830151848203604086015261332b8282613269565b60808152600061338f6080830187613295565b82810360208401526133a18187613334565b905082810360408401526133b58186613269565b905082810360608401526133c98185613269565b979650505050505050565b600080604083850312156133e757600080fd5b82356133f28161279c565b915060208301356001600160401b0381111561340d57600080fd5b61321285828601612c48565b6000806040838503121561342c57600080fd5b82359150602083013561343e8161279c565b809150509250929050565b6020815260006113596020830184613269565b60006020828403121561346e57600080fd5b5035919050565b60008060006040848603121561348a57600080fd5b83356134958161279c565b925060208401356001600160401b038111156134b057600080fd5b6134bc86828701612ce6565b9497909650939450505050565b60008151608084526134de6080850182613269565b9050602083015184820360208601526134f78282613269565b915050604083015184820360408601526135118282613269565b9150506060830151848203606086015261332b8282613269565b60008151604084526135406040850182613269565b90506020830151848203602086015261332b8282613269565b6000606082518185528051828387015261357660c0870182613269565b9050602080830151605f19808985030160808a0152815186855261359c87860182613269565b90508383015185820385870152805160a083526135bc60a0840182613269565b9050858201518684015260408083015181850152898301518483038b8601526135e58382613269565b9a505060808301516080850152808601519550878a03818901526136098a876134c9565b988101518d8a03860160a08f01529899506136248a8a61352b565b9950868c015198508c8a03878e015261363d8a8a613334565b9950808c015198508c8a03818e0152505050505050505061332b8282613334565b6040815260006136716040830185613559565b828103602084015261332b8185613295565b60006020828403121561369557600080fd5b81516113598161279c565b6000815180845260208085019450848260051b860182860160005b858110156136e55783830389526136d3838351613269565b988501989250908401906001016136bb565b5090979650505050505050565b6000808335601e1984360301811261370957600080fd5b83016020810192503590506001600160401b0381111561372857600080fd5b803603831315612d2a57600080fd5b81835281816020850137506000828201602090810191909152601f909101601f19169091010190565b60008383855260208086019550808560051b830101846000805b888110156137f657858403601f19018a52823536899003603e1901811261379f578283fd5b880160406137ad82806136f2565b8288526137bd8389018284613737565b925050506137cd878301836136f2565b9250868203888801526137e1828483613737565b9c88019c96505050928501925060010161377a565b509198975050505050505050565b6001600160a01b0388811682528716602082015260c06040808301829052875191830152600090613839610100840182613559565b9050602088015160bf198483030160e08501526138568282613295565b91505082810360608401528651608082526138746080830182613295565b90506020880151828203602084015261388d8282613334565b915050604088015182820360408401526138a78282613269565b915050606088015182820360608401526138c18282613269565b9250505082810360808401526138d781876136a0565b905082810360a08401526138ec818587613760565b9a9950505050505050505050565b6001600160a01b038416815260606020820181905260009061391e90830185613269565b82810360408401526139308185613269565b9695505050505050565b600082601f83011261394b57600080fd5b81516139596128dc826128a7565b81815284602083860101111561396e57600080fd5b6131c5826020830160208701613239565b60008060006060848603121561399457600080fd5b83516001600160401b03808211156139ab57600080fd5b6139b78783880161393a565b945060208601519150808211156139cd57600080fd5b6139d98783880161393a565b935060408601519150808211156139ef57600080fd5b506131738682870161393a565b606081526000613a0f6060830186613269565b8281036020840152613a218186613269565b905082810360408401526139308185613269565b6001600160a01b03831681526040602082018190526000906131c590830184613269565b600181811c90821680613a6d57607f821691505b60208210811415613a8e57634e487b7160e01b600052602260045260246000fd5b50919050565b6001600160a01b03831681526040602082018190526000906131c5908301846136a0565b600060208284031215613aca57600080fd5b81516001600160401b03811115613ae057600080fd5b6131c58482850161393a565b60008154613af981613a59565b808552602060018381168015613b165760018114613b2a57613b58565b60ff19851688840152604088019550613b58565b866000528260002060005b85811015613b505781548a8201860152908301908401613b35565b890184019650505b505050505092915050565b608082526000613b766080840183613aec565b8381036020850152613b8b8160018501613aec565b90508381036040850152613ba28160028501613aec565b905083810360608501526131c58160038501613aec565b604082526000613bcc6040840183613aec565b83810360208501526131c58160018501613aec565b606082526000613bf46060840183613aec565b8381036020850152613c098160018501613aec565b905083810360408501526131c58160028501613aec565b60c082526000613c3360c0840183613aec565b8381036020850152613c488160018501613aec565b90508381036040850152613c5f8160028501613aec565b90508381036060850152613c768160038501613aec565b90508381036080850152613c8d8160048501613aec565b905083810360a08501526131c58160058501613aec565b608082526000613cb76080840183613c20565b8381036020850152613ccc8160068501613be1565b90508381036040850152613ce38160098501613aec565b905083810360608501526131c581600a8501613aec565b6000815480845260208085019450848260051b8601856000528260002060005b858110156136e5578383038952613d318383613bb9565b98850198925060029190910190600101613d1a565b6000815480845260208085019450848260051b8601856000528260002060005b858110156136e5578383038952613d7d8383613aec565b98850198925060019182019101613d66565b60c081526000613da260c0830189613269565b87602084015282810360408401526040815260608060408301528060a0830152613dd0610100830189613aec565b609f19808483030160c0850152828252613def83830160018c01613aec565b828103602084015260a08152613e0b60a0820160028d01613aec565b60038c0154602083015260048c0154604083015281810385830152613e338160058e01613aec565b905060068c015460808301528381036040850152613e548160078e01613b63565b93505050808483030160e085015250613e7081600b8b01613bb9565b9050603f19808483030183850152613e8b82600d8c01613be1565b91508084830301608085015250613ea58160108b01613be1565b90508281036020840152613ebc8160138b01613c20565b9250508382038185015250613ed18187613ca4565b90508281036080840152613ee58186613cfa565b905082810360a0840152613ef98185613d46565b9998505050505050505050565b634e487b7160e01b600052603260045260246000fd5b60008235603e19833603018112613f3257600080fd5b9190910192915050565b6000808335601e19843603018112613f5357600080fd5b8301803591506001600160401b03821115613f6d57600080fd5b602001915036819003821315612d2a57600080fd5b6000600019821415613fa457634e487b7160e01b600052601160045260246000fd5b5060010190565b6001600160a01b038416815260406020820181905260009061332b9083018486613760565b60008154613fdd81613a59565b60018281168015613ff5576001811461400657614035565b60ff19841687528287019450614035565b8560005260208060002060005b8581101561402c5781548a820152908401908201614013565b50505082870194505b5050505092915050565b6c1116101134b6b0b3b2911d101160991b81526000611359600d830184613fd0565b693d913730b6b2911d101160b11b8152835160009061408781600a850160208901613239565b72111610113232b9b1b934b83a34b7b7111d101160691b600a918401918201526140b4601d820186613fd0565b905083516140c6818360208801613239565b61227d60f01b91019081526002019594505050505056fea26469706673582212204e5ca70d00fbfa0384719530aa223f7927111c593923513f11deee681134d7cc64736f6c63430008090033",
  "linkReferences": {},
  "deployedLinkReferences": {}
}