{
  "_format": "hh-sol-artifact-1",
  "contractName": "DCNTStaking",
  "sourceName": "contracts/DCNTStaking.sol",
  "abi": [
    {
      "anonymous": false,
      "inputs": [
        {
          "indexed": false,
          "internalType": "address",
          "name": "owner",
          "type": "address"
        },
        {
          "indexed": false,
          "internalType": "uint256",
          "name": "amount",
          "type": "uint256"
        }
      ],
      "name": "Claimed",
      "type": "event"
    },
    {
      "anonymous": false,
      "inputs": [
        {
          "indexed": false,
          "internalType": "uint8",
          "name": "version",
          "type": "uint8"
        }
      ],
      "name": "Initialized",
      "type": "event"
    },
    {
      "anonymous": false,
      "inputs": [
        {
          "indexed": false,
          "internalType": "address",
          "name": "owner",
          "type": "address"
        },
        {
          "indexed": false,
          "internalType": "uint256",
          "name": "tokenId",
          "type": "uint256"
        },
        {
          "indexed": false,
          "internalType": "uint256",
          "name": "value",
          "type": "uint256"
        }
      ],
      "name": "NFTStaked",
      "type": "event"
    },
    {
      "anonymous": false,
      "inputs": [
        {
          "indexed": false,
          "internalType": "address",
          "name": "owner",
          "type": "address"
        },
        {
          "indexed": false,
          "internalType": "uint256",
          "name": "tokenId",
          "type": "uint256"
        },
        {
          "indexed": false,
          "internalType": "uint256",
          "name": "value",
          "type": "uint256"
        }
      ],
      "name": "NFTUnstaked",
      "type": "event"
    },
    {
      "anonymous": false,
      "inputs": [
        {
          "indexed": true,
          "internalType": "address",
          "name": "previousOwner",
          "type": "address"
        },
        {
          "indexed": true,
          "internalType": "address",
          "name": "newOwner",
          "type": "address"
        }
      ],
      "name": "OwnershipTransferred",
      "type": "event"
    },
    {
      "stateMutability": "payable",
      "type": "fallback"
    },
    {
      "inputs": [
        {
          "internalType": "address",
          "name": "account",
          "type": "address"
        }
      ],
      "name": "balanceOf",
      "outputs": [
        {
          "internalType": "uint256",
          "name": "",
          "type": "uint256"
        }
      ],
      "stateMutability": "view",
      "type": "function"
    },
    {
      "inputs": [
        {
          "internalType": "uint256[]",
          "name": "tokenIds",
          "type": "uint256[]"
        }
      ],
      "name": "claim",
      "outputs": [],
      "stateMutability": "nonpayable",
      "type": "function"
    },
    {
      "inputs": [
        {
          "internalType": "address",
          "name": "account",
          "type": "address"
        },
        {
          "internalType": "uint256[]",
          "name": "tokenIds",
          "type": "uint256[]"
        }
      ],
      "name": "claimForAddress",
      "outputs": [],
      "stateMutability": "nonpayable",
      "type": "function"
    },
    {
      "inputs": [
        {
          "internalType": "address",
          "name": "account",
          "type": "address"
        },
        {
          "internalType": "uint256[]",
          "name": "tokenIds",
          "type": "uint256[]"
        }
      ],
      "name": "earningInfo",
      "outputs": [
        {
          "internalType": "uint256",
          "name": "",
          "type": "uint256"
        }
      ],
      "stateMutability": "view",
      "type": "function"
    },
    {
      "inputs": [],
      "name": "erc20Address",
      "outputs": [
        {
          "internalType": "address",
          "name": "",
          "type": "address"
        }
      ],
      "stateMutability": "view",
      "type": "function"
    },
    {
      "inputs": [
        {
          "internalType": "address",
          "name": "_owner",
          "type": "address"
        },
        {
          "internalType": "address",
          "name": "_nft",
          "type": "address"
        },
        {
          "internalType": "address",
          "name": "_token",
          "type": "address"
        },
        {
          "internalType": "uint256",
          "name": "_vaultDuration",
          "type": "uint256"
        },
        {
          "internalType": "uint256",
          "name": "_totalSupply",
          "type": "uint256"
        }
      ],
      "name": "initialize",
      "outputs": [],
      "stateMutability": "nonpayable",
      "type": "function"
    },
    {
      "inputs": [],
      "name": "nftAddress",
      "outputs": [
        {
          "internalType": "address",
          "name": "",
          "type": "address"
        }
      ],
      "stateMutability": "view",
      "type": "function"
    },
    {
      "inputs": [
        {
          "internalType": "address",
          "name": "",
          "type": "address"
        },
        {
          "internalType": "address",
          "name": "",
          "type": "address"
        },
        {
          "internalType": "uint256",
          "name": "",
          "type": "uint256"
        },
        {
          "internalType": "bytes",
          "name": "",
          "type": "bytes"
        }
      ],
      "name": "onERC721Received",
      "outputs": [
        {
          "internalType": "bytes4",
          "name": "",
          "type": "bytes4"
        }
      ],
      "stateMutability": "pure",
      "type": "function"
    },
    {
      "inputs": [],
      "name": "owner",
      "outputs": [
        {
          "internalType": "address",
          "name": "",
          "type": "address"
        }
      ],
      "stateMutability": "view",
      "type": "function"
    },
    {
      "inputs": [],
      "name": "renounceOwnership",
      "outputs": [],
      "stateMutability": "nonpayable",
      "type": "function"
    },
    {
      "inputs": [
        {
          "internalType": "uint256[]",
          "name": "tokenIds",
          "type": "uint256[]"
        }
      ],
      "name": "stake",
      "outputs": [],
      "stateMutability": "nonpayable",
      "type": "function"
    },
    {
      "inputs": [
        {
          "internalType": "address",
          "name": "account",
          "type": "address"
        }
      ],
      "name": "tokensOfOwner",
      "outputs": [
        {
          "internalType": "uint256[]",
          "name": "ownerTokens",
          "type": "uint256[]"
        }
      ],
      "stateMutability": "view",
      "type": "function"
    },
    {
      "inputs": [],
      "name": "totalClaimed",
      "outputs": [
        {
          "internalType": "uint256",
          "name": "",
          "type": "uint256"
        }
      ],
      "stateMutability": "view",
      "type": "function"
    },
    {
      "inputs": [],
      "name": "totalStaked",
      "outputs": [
        {
          "internalType": "uint256",
          "name": "",
          "type": "uint256"
        }
      ],
      "stateMutability": "view",
      "type": "function"
    },
    {
      "inputs": [],
      "name": "totalSupply",
      "outputs": [
        {
          "internalType": "uint256",
          "name": "",
          "type": "uint256"
        }
      ],
      "stateMutability": "view",
      "type": "function"
    },
    {
      "inputs": [
        {
          "internalType": "address",
          "name": "newOwner",
          "type": "address"
        }
      ],
      "name": "transferOwnership",
      "outputs": [],
      "stateMutability": "nonpayable",
      "type": "function"
    },
    {
      "inputs": [
        {
          "internalType": "uint256[]",
          "name": "tokenIds",
          "type": "uint256[]"
        }
      ],
      "name": "unstake",
      "outputs": [],
      "stateMutability": "nonpayable",
      "type": "function"
    },
    {
      "inputs": [
        {
          "internalType": "uint256",
          "name": "",
          "type": "uint256"
        }
      ],
      "name": "vault",
      "outputs": [
        {
          "internalType": "uint24",
          "name": "tokenId",
          "type": "uint24"
        },
        {
          "internalType": "uint48",
          "name": "timestamp",
          "type": "uint48"
        },
        {
          "internalType": "address",
          "name": "owner",
          "type": "address"
        }
      ],
      "stateMutability": "view",
      "type": "function"
    },
    {
      "inputs": [],
      "name": "vaultEnd",
      "outputs": [
        {
          "internalType": "uint256",
          "name": "",
          "type": "uint256"
        }
      ],
      "stateMutability": "view",
      "type": "function"
    },
    {
      "inputs": [],
      "name": "vaultStart",
      "outputs": [
        {
          "internalType": "uint256",
          "name": "",
          "type": "uint256"
        }
      ],
      "stateMutability": "view",
      "type": "function"
    },
    {
      "inputs": [
        {
          "internalType": "uint256",
          "name": "amount",
          "type": "uint256"
        }
      ],
      "name": "withdraw",
      "outputs": [],
      "stateMutability": "nonpayable",
      "type": "function"
    },
    {
      "stateMutability": "payable",
      "type": "receive"
    }
  ],
  "bytecode": "0x608060405234801561001057600080fd5b5061001a33610023565b6001805561007e565b600080546001600160a01b038381166201000081810262010000600160b01b0319851617855560405193049190911692909183917f8be0079c531659141344cd1fd0a4f28419497f9722a3daafe3b4186f6b6457e091a35050565b6118828061008d6000396000f3fe6080604052600436106101225760003560e01c8063760c4e47116100a55780638da5cb5b1161006c5780638da5cb5b1461039a578063a6b63eb8146103be578063c36be357146103de578063d54ad2a1146103fe578063e449f34114610414578063f2fde38b1461043457005b8063760c4e471461029c5780637e75dd60146102b2578063817b1cd2146102d257806381a36fb6146102e85780638462151c1461036d57005b80632e1a7d4d116100e95780632e1a7d4d146102075780635bf8633a146102275780636ba4c1381461024757806370a0823114610267578063715018a61461028757005b80630fbf0a931461012b578063150b7a021461014b57806318160ddd146101955780631997e5a2146101b9578063276184ae146101cf57005b3661012957005b005b34801561013757600080fd5b506101296101463660046114aa565b610454565b34801561015757600080fd5b50610177610166366004611501565b630a85bd0160e11b95945050505050565b6040516001600160e01b031990911681526020015b60405180910390f35b3480156101a157600080fd5b506101ab60085481565b60405190815260200161018c565b3480156101c557600080fd5b506101ab60055481565b3480156101db57600080fd5b506004546101ef906001600160a01b031681565b6040516001600160a01b03909116815260200161018c565b34801561021357600080fd5b506101296102223660046115a0565b610836565b34801561023357600080fd5b506003546101ef906001600160a01b031681565b34801561025357600080fd5b506101296102623660046114aa565b6108c7565b34801561027357600080fd5b506101ab6102823660046115b9565b610904565b34801561029357600080fd5b50610129610962565b3480156102a857600080fd5b506101ab60065481565b3480156102be57600080fd5b506101ab6102cd3660046115d6565b610976565b3480156102de57600080fd5b506101ab60025481565b3480156102f457600080fd5b5061033c6103033660046115a0565b60096020526000908152604090205462ffffff8116906301000000810465ffffffffffff1690600160481b90046001600160a01b031683565b6040805162ffffff909416845265ffffffffffff90921660208401526001600160a01b03169082015260600161018c565b34801561037957600080fd5b5061038d6103883660046115b9565b610a56565b60405161018c919061162b565b3480156103a657600080fd5b506000546201000090046001600160a01b03166101ef565b3480156103ca57600080fd5b506101296103d936600461166f565b610bd1565b3480156103ea57600080fd5b506101296103f93660046115d6565b610d3f565b34801561040a57600080fd5b506101ab60075481565b34801561042057600080fd5b5061012961042f3660046114aa565b610d7d565b34801561044057600080fd5b5061012961044f3660046115b9565b610db5565b600260015414156104805760405162461bcd60e51b8152600401610477906116ca565b60405180910390fd5b6002600181905580546000918391839061049b908490611717565b90915550600090505b80831461082c578383828181106104bd576104bd61172f565b602090810292909201356000818152600990935260409092205491935050600160481b90046001600160a01b0316156105295760405162461bcd60e51b815260206004820152600e60248201526d185b1c9958591e481cdd185ad95960921b6044820152606401610477565b6003546040516331a9108f60e11b81526004810184905233916001600160a01b031690636352211e9060240160206040518083038186803b15801561056d57600080fd5b505afa158015610581573d6000803e3d6000fd5b505050506040513d601f19601f820116820180604052508101906105a59190611745565b6001600160a01b0316146105ec5760405162461bcd60e51b815260206004820152600e60248201526d3737ba103cb7bab9103a37b5b2b760911b6044820152606401610477565b60035460405163020604bf60e21b81526004810184905230916001600160a01b03169063081812fc9060240160206040518083038186803b15801561063057600080fd5b505afa158015610644573d6000803e3d6000fd5b505050506040513d601f19601f820116820180604052508101906106689190611745565b6001600160a01b0316146106be5760405162461bcd60e51b815260206004820152601960248201527f6e6f7420617070726f76656420666f72207472616e73666572000000000000006044820152606401610477565b600354604051632142170760e11b8152336004820152306024820152604481018490526001600160a01b03909116906342842e0e90606401600060405180830381600087803b15801561071057600080fd5b505af1158015610724573d6000803e3d6000fd5b50506040805133815260208101869052428183015290517f36b3725f1783bad4ff05b7f4c077c3aa68eeb23a4d054ba189db4d01ac278d399350908190036060019150a160405180606001604052808362ffffff16815260200161078a42600654610e2e565b65ffffffffffff908116825233602092830152600085815260098352604090819020845181549486015195909201516001600160a01b0316600160481b027fffffff0000000000000000000000000000000000000000ffffffffffffffffff9590931663010000000268ffffffffffffffffff1990941662ffffff9092169190911792909217929092169190911790558061082481611762565b9150506104a4565b5050600180555050565b61083e610e47565b6004805460405163a9059cbb60e01b81523092810192909252602482018390526001600160a01b03169063a9059cbb90604401602060405180830381600087803b15801561088b57600080fd5b505af115801561089f573d6000803e3d6000fd5b505050506040513d601f19601f820116820180604052508101906108c3919061177d565b5050565b600260015414156108ea5760405162461bcd60e51b8152600401610477906116ca565b60026001556108fc3383836000610ea8565b505060018055565b600080805b600854811161095b576000818152600960205260409020546001600160a01b03858116600160481b909204161415610949578161094581611762565b9250505b8061095381611762565b915050610909565b5092915050565b61096a610e47565b610974600061114d565b565b6000806000805b808514610a4c578585828181106109965761099661172f565b602090810292909201356000818152600984526040908190208151606081018352905462ffffff8116825265ffffffffffff6301000000820416958201959095526001600160a01b03600160481b909504851691810182905291965090928a16149050610a155760405162461bcd60e51b81526004016104779061179f565b602081015165ffffffffffff16610a2b816111a8565b610a359085611717565b935050508080610a4490611762565b91505061097d565b5095945050505050565b6060600060085467ffffffffffffffff811115610a7557610a756117c5565b604051908082528060200260200182016040528015610a9e578160200160208202803683370190505b5090506000805b6008548111610b2d576000818152600960205260409020546001600160a01b03868116600160481b909204161415610b1b57600081815260096020526040902054835162ffffff90911690849084908110610b0257610b0261172f565b602090810291909101015281610b1781611762565b9250505b80610b2581611762565b915050610aa5565b5060008167ffffffffffffffff811115610b4957610b496117c5565b604051908082528060200260200182016040528015610b72578160200160208202803683370190505b50905060005b828114610bc857838181518110610b9157610b9161172f565b6020026020010151828281518110610bab57610bab61172f565b602090810291909101015280610bc081611762565b915050610b78565b50949350505050565b600054610100900460ff1615808015610bf15750600054600160ff909116105b80610c0b5750303b158015610c0b575060005460ff166001145b610c6e5760405162461bcd60e51b815260206004820152602e60248201527f496e697469616c697a61626c653a20636f6e747261637420697320616c72656160448201526d191e481a5b9a5d1a585b1a5e995960921b6064820152608401610477565b6000805460ff191660011790558015610c91576000805461ff0019166101001790555b610c9a8661114d565b600380546001600160a01b038088166001600160a01b031992831617909255600480549287169290911691909117905542600555610cdb83620151806117db565b600554610ce89190611717565b60065560088290558015610d37576000805461ff0019169055604051600181527f7f26b83ff96e1f2b6a682f133852f6798a09c465da95921460cefb3847402498906020015b60405180910390a15b505050505050565b60026001541415610d625760405162461bcd60e51b8152600401610477906116ca565b6002600155610d748383836000610ea8565b50506001805550565b60026001541415610da05760405162461bcd60e51b8152600401610477906116ca565b60026001819055506108fc3383836001610ea8565b610dbd610e47565b6001600160a01b038116610e225760405162461bcd60e51b815260206004820152602660248201527f4f776e61626c653a206e6577206f776e657220697320746865207a65726f206160448201526564647265737360d01b6064820152608401610477565b610e2b8161114d565b50565b600081831015610e3e5782610e40565b815b9392505050565b6000546001600160a01b03620100009091041633146109745760405162461bcd60e51b815260206004820181905260248201527f4f776e61626c653a2063616c6c6572206973206e6f7420746865206f776e65726044820152606401610477565b600080805b80851461105557858582818110610ec657610ec661172f565b602090810292909201356000818152600984526040908190208151606081018352905462ffffff8116825265ffffffffffff6301000000820416958201959095526001600160a01b03600160481b909504851691810182905291965090928a16149050610f455760405162461bcd60e51b81526004016104779061179f565b6000816020015165ffffffffffff1690506000610f6442600654610e2e565b9050610f6f826111a8565b610f799086611717565b945060405180606001604052808762ffffff1681526020018265ffffffffffff1681526020018b6001600160a01b03168152506009600088815260200190815260200160002060008201518160000160006101000a81548162ffffff021916908362ffffff16021790555060208201518160000160036101000a81548165ffffffffffff021916908365ffffffffffff16021790555060408201518160000160096101000a8154816001600160a01b0302191690836001600160a01b03160217905550905050505050808061104d90611762565b915050610ead565b5080156110fd576004805460405163a9059cbb60e01b81526001600160a01b03898116938201939093526024810184905291169063a9059cbb90604401602060405180830381600087803b1580156110ac57600080fd5b505af11580156110c0573d6000803e3d6000fd5b505050506040513d601f19601f820116820180604052508101906110e4919061177d565b5080600760008282546110f79190611717565b90915550505b821561110e5761110e8686866112be565b604080516001600160a01b0388168152602081018390527fd8138f8a3f377c5259ca548e70e4c2de94f129f5a11036a15b69513cba2b426a9101610d2e565b600080546001600160a01b038381166201000081810262010000600160b01b0319851617855560405193049190911692909183917f8be0079c531659141344cd1fd0a4f28419497f9722a3daafe3b4186f6b6457e091a35050565b600480546040516370a0823160e01b8152309281019290925260009182916001600160a01b0316906370a082319060240160206040518083038186803b1580156111f157600080fd5b505afa158015611205573d6000803e3d6000fd5b505050506040513d601f19601f8201168201806040525081019061122991906117fa565b905060006007548261123b9190611717565b9050600060055460065461124f9190611813565b90506000611260620151808361182a565b905060008160085485611273919061182a565b61127d919061182a565b905060008761128e42600654610e2e565b6112989190611813565b9050620151806112a882846117db565b6112b2919061182a565b98975050505050505050565b600082829050600260008282546112d59190611813565b90915550600090505b808314611457578383828181106112f7576112f761172f565b602090810292909201356000818152600984526040908190208151606081018352905462ffffff811682526301000000810465ffffffffffff1695820195909552600160481b9094046001600160a01b0316908401819052909450331490506113725760405162461bcd60e51b81526004016104779061179f565b60008381526009602090815260409182902080546001600160e81b031916905581516001600160a01b0389168152908101859052428183015290517fc486b9458a8637650d84d262414833a5a457bc91ae86b7da110386c8c3fa255b9181900360600190a1600354604051632142170760e11b81523060048201526001600160a01b03888116602483015260448201869052909116906342842e0e90606401600060405180830381600087803b15801561142b57600080fd5b505af115801561143f573d6000803e3d6000fd5b5050505050808061144f90611762565b9150506112de565b5050505050565b60008083601f84011261147057600080fd5b50813567ffffffffffffffff81111561148857600080fd5b6020830191508360208260051b85010111156114a357600080fd5b9250929050565b600080602083850312156114bd57600080fd5b823567ffffffffffffffff8111156114d457600080fd5b6114e08582860161145e565b90969095509350505050565b6001600160a01b0381168114610e2b57600080fd5b60008060008060006080868803121561151957600080fd5b8535611524816114ec565b94506020860135611534816114ec565b935060408601359250606086013567ffffffffffffffff8082111561155857600080fd5b818801915088601f83011261156c57600080fd5b81358181111561157b57600080fd5b89602082850101111561158d57600080fd5b9699959850939650602001949392505050565b6000602082840312156115b257600080fd5b5035919050565b6000602082840312156115cb57600080fd5b8135610e40816114ec565b6000806000604084860312156115eb57600080fd5b83356115f6816114ec565b9250602084013567ffffffffffffffff81111561161257600080fd5b61161e8682870161145e565b9497909650939450505050565b6020808252825182820181905260009190848201906040850190845b8181101561166357835183529284019291840191600101611647565b50909695505050505050565b600080600080600060a0868803121561168757600080fd5b8535611692816114ec565b945060208601356116a2816114ec565b935060408601356116b2816114ec565b94979396509394606081013594506080013592915050565b6020808252601f908201527f5265656e7472616e637947756172643a207265656e7472616e742063616c6c00604082015260600190565b634e487b7160e01b600052601160045260246000fd5b6000821982111561172a5761172a611701565b500190565b634e487b7160e01b600052603260045260246000fd5b60006020828403121561175757600080fd5b8151610e40816114ec565b600060001982141561177657611776611701565b5060010190565b60006020828403121561178f57600080fd5b81518015158114610e4057600080fd5b6020808252600c908201526b3737ba1030b71037bbb732b960a11b604082015260600190565b634e487b7160e01b600052604160045260246000fd5b60008160001904831182151516156117f5576117f5611701565b500290565b60006020828403121561180c57600080fd5b5051919050565b60008282101561182557611825611701565b500390565b60008261184757634e487b7160e01b600052601260045260246000fd5b50049056fea2646970667358221220cacecedf91fd588fa8947b4ebf3452517278c4af2c971eb60cb17b8242eb9a7d64736f6c63430008090033",
  "linkReferences": {},
  "deployedLinkReferences": {}
}