{
  "_format": "hh-sol-artifact-1",
  "contractName": "SplitMain",
  "sourceName": "contracts/splits/SplitMain.sol",
  "abi": [
    {
      "inputs": [],
      "stateMutability": "nonpayable",
      "type": "constructor"
    },
    {
      "inputs": [],
      "name": "Create2Error",
      "type": "error"
    },
    {
      "inputs": [],
      "name": "CreateError",
      "type": "error"
    },
    {
      "inputs": [
        {
          "internalType": "address",
          "name": "newController",
          "type": "address"
        }
      ],
      "name": "InvalidNewController",
      "type": "error"
    },
    {
      "inputs": [
        {
          "internalType": "uint256",
          "name": "accountsLength",
          "type": "uint256"
        },
        {
          "internalType": "uint256",
          "name": "allocationsLength",
          "type": "uint256"
        }
      ],
      "name": "InvalidSplit__AccountsAndAllocationsMismatch",
      "type": "error"
    },
    {
      "inputs": [
        {
          "internalType": "uint256",
          "name": "index",
          "type": "uint256"
        }
      ],
      "name": "InvalidSplit__AccountsOutOfOrder",
      "type": "error"
    },
    {
      "inputs": [
        {
          "internalType": "uint256",
          "name": "index",
          "type": "uint256"
        }
      ],
      "name": "InvalidSplit__AllocationMustBePositive",
      "type": "error"
    },
    {
      "inputs": [
        {
          "internalType": "uint32",
          "name": "allocationsSum",
          "type": "uint32"
        }
      ],
      "name": "InvalidSplit__InvalidAllocationsSum",
      "type": "error"
    },
    {
      "inputs": [
        {
          "internalType": "uint32",
          "name": "distributorFee",
          "type": "uint32"
        }
      ],
      "name": "InvalidSplit__InvalidDistributorFee",
      "type": "error"
    },
    {
      "inputs": [
        {
          "internalType": "bytes32",
          "name": "hash",
          "type": "bytes32"
        }
      ],
      "name": "InvalidSplit__InvalidHash",
      "type": "error"
    },
    {
      "inputs": [
        {
          "internalType": "uint256",
          "name": "accountsLength",
          "type": "uint256"
        }
      ],
      "name": "InvalidSplit__TooFewAccounts",
      "type": "error"
    },
    {
      "inputs": [
        {
          "internalType": "address",
          "name": "sender",
          "type": "address"
        }
      ],
      "name": "Unauthorized",
      "type": "error"
    },
    {
      "anonymous": false,
      "inputs": [
        {
          "indexed": true,
          "internalType": "address",
          "name": "split",
          "type": "address"
        }
      ],
      "name": "CancelControlTransfer",
      "type": "event"
    },
    {
      "anonymous": false,
      "inputs": [
        {
          "indexed": true,
          "internalType": "address",
          "name": "split",
          "type": "address"
        },
        {
          "indexed": true,
          "internalType": "address",
          "name": "previousController",
          "type": "address"
        },
        {
          "indexed": true,
          "internalType": "address",
          "name": "newController",
          "type": "address"
        }
      ],
      "name": "ControlTransfer",
      "type": "event"
    },
    {
      "anonymous": false,
      "inputs": [
        {
          "indexed": true,
          "internalType": "address",
          "name": "split",
          "type": "address"
        }
      ],
      "name": "CreateSplit",
      "type": "event"
    },
    {
      "anonymous": false,
      "inputs": [
        {
          "indexed": true,
          "internalType": "address",
          "name": "split",
          "type": "address"
        },
        {
          "indexed": true,
          "internalType": "contract ERC20",
          "name": "token",
          "type": "address"
        },
        {
          "indexed": false,
          "internalType": "uint256",
          "name": "amount",
          "type": "uint256"
        },
        {
          "indexed": true,
          "internalType": "address",
          "name": "distributorAddress",
          "type": "address"
        }
      ],
      "name": "DistributeERC20",
      "type": "event"
    },
    {
      "anonymous": false,
      "inputs": [
        {
          "indexed": true,
          "internalType": "address",
          "name": "split",
          "type": "address"
        },
        {
          "indexed": false,
          "internalType": "uint256",
          "name": "amount",
          "type": "uint256"
        },
        {
          "indexed": true,
          "internalType": "address",
          "name": "distributorAddress",
          "type": "address"
        }
      ],
      "name": "DistributeETH",
      "type": "event"
    },
    {
      "anonymous": false,
      "inputs": [
        {
          "indexed": true,
          "internalType": "address",
          "name": "split",
          "type": "address"
        },
        {
          "indexed": true,
          "internalType": "address",
          "name": "newPotentialController",
          "type": "address"
        }
      ],
      "name": "InitiateControlTransfer",
      "type": "event"
    },
    {
      "anonymous": false,
      "inputs": [
        {
          "indexed": true,
          "internalType": "address",
          "name": "split",
          "type": "address"
        }
      ],
      "name": "UpdateSplit",
      "type": "event"
    },
    {
      "anonymous": false,
      "inputs": [
        {
          "indexed": true,
          "internalType": "address",
          "name": "account",
          "type": "address"
        },
        {
          "indexed": false,
          "internalType": "uint256",
          "name": "ethAmount",
          "type": "uint256"
        },
        {
          "indexed": false,
          "internalType": "contract ERC20[]",
          "name": "tokens",
          "type": "address[]"
        },
        {
          "indexed": false,
          "internalType": "uint256[]",
          "name": "tokenAmounts",
          "type": "uint256[]"
        }
      ],
      "name": "Withdrawal",
      "type": "event"
    },
    {
      "inputs": [],
      "name": "PERCENTAGE_SCALE",
      "outputs": [
        {
          "internalType": "uint256",
          "name": "",
          "type": "uint256"
        }
      ],
      "stateMutability": "view",
      "type": "function"
    },
    {
      "inputs": [
        {
          "internalType": "address",
          "name": "split",
          "type": "address"
        }
      ],
      "name": "acceptControl",
      "outputs": [],
      "stateMutability": "nonpayable",
      "type": "function"
    },
    {
      "inputs": [
        {
          "internalType": "address",
          "name": "split",
          "type": "address"
        }
      ],
      "name": "cancelControlTransfer",
      "outputs": [],
      "stateMutability": "nonpayable",
      "type": "function"
    },
    {
      "inputs": [
        {
          "internalType": "address[]",
          "name": "accounts",
          "type": "address[]"
        },
        {
          "internalType": "uint32[]",
          "name": "percentAllocations",
          "type": "uint32[]"
        },
        {
          "internalType": "uint32",
          "name": "distributorFee",
          "type": "uint32"
        },
        {
          "internalType": "address",
          "name": "controller",
          "type": "address"
        }
      ],
      "name": "createSplit",
      "outputs": [
        {
          "internalType": "address",
          "name": "split",
          "type": "address"
        }
      ],
      "stateMutability": "nonpayable",
      "type": "function"
    },
    {
      "inputs": [
        {
          "internalType": "address",
          "name": "split",
          "type": "address"
        },
        {
          "internalType": "contract ERC20",
          "name": "token",
          "type": "address"
        },
        {
          "internalType": "address[]",
          "name": "accounts",
          "type": "address[]"
        },
        {
          "internalType": "uint32[]",
          "name": "percentAllocations",
          "type": "uint32[]"
        },
        {
          "internalType": "uint32",
          "name": "distributorFee",
          "type": "uint32"
        },
        {
          "internalType": "address",
          "name": "distributorAddress",
          "type": "address"
        }
      ],
      "name": "distributeERC20",
      "outputs": [],
      "stateMutability": "nonpayable",
      "type": "function"
    },
    {
      "inputs": [
        {
          "internalType": "address",
          "name": "split",
          "type": "address"
        },
        {
          "internalType": "address[]",
          "name": "accounts",
          "type": "address[]"
        },
        {
          "internalType": "uint32[]",
          "name": "percentAllocations",
          "type": "uint32[]"
        },
        {
          "internalType": "uint32",
          "name": "distributorFee",
          "type": "uint32"
        },
        {
          "internalType": "address",
          "name": "distributorAddress",
          "type": "address"
        }
      ],
      "name": "distributeETH",
      "outputs": [],
      "stateMutability": "nonpayable",
      "type": "function"
    },
    {
      "inputs": [
        {
          "internalType": "address",
          "name": "split",
          "type": "address"
        }
      ],
      "name": "getController",
      "outputs": [
        {
          "internalType": "address",
          "name": "",
          "type": "address"
        }
      ],
      "stateMutability": "view",
      "type": "function"
    },
    {
      "inputs": [
        {
          "internalType": "address",
          "name": "account",
          "type": "address"
        },
        {
          "internalType": "contract ERC20",
          "name": "token",
          "type": "address"
        }
      ],
      "name": "getERC20Balance",
      "outputs": [
        {
          "internalType": "uint256",
          "name": "",
          "type": "uint256"
        }
      ],
      "stateMutability": "view",
      "type": "function"
    },
    {
      "inputs": [
        {
          "internalType": "address",
          "name": "account",
          "type": "address"
        }
      ],
      "name": "getETHBalance",
      "outputs": [
        {
          "internalType": "uint256",
          "name": "",
          "type": "uint256"
        }
      ],
      "stateMutability": "view",
      "type": "function"
    },
    {
      "inputs": [
        {
          "internalType": "address",
          "name": "split",
          "type": "address"
        }
      ],
      "name": "getHash",
      "outputs": [
        {
          "internalType": "bytes32",
          "name": "",
          "type": "bytes32"
        }
      ],
      "stateMutability": "view",
      "type": "function"
    },
    {
      "inputs": [
        {
          "internalType": "address",
          "name": "split",
          "type": "address"
        }
      ],
      "name": "getNewPotentialController",
      "outputs": [
        {
          "internalType": "address",
          "name": "",
          "type": "address"
        }
      ],
      "stateMutability": "view",
      "type": "function"
    },
    {
      "inputs": [
        {
          "internalType": "address",
          "name": "split",
          "type": "address"
        }
      ],
      "name": "makeSplitImmutable",
      "outputs": [],
      "stateMutability": "nonpayable",
      "type": "function"
    },
    {
      "inputs": [
        {
          "internalType": "address[]",
          "name": "accounts",
          "type": "address[]"
        },
        {
          "internalType": "uint32[]",
          "name": "percentAllocations",
          "type": "uint32[]"
        },
        {
          "internalType": "uint32",
          "name": "distributorFee",
          "type": "uint32"
        }
      ],
      "name": "predictImmutableSplitAddress",
      "outputs": [
        {
          "internalType": "address",
          "name": "split",
          "type": "address"
        }
      ],
      "stateMutability": "view",
      "type": "function"
    },
    {
      "inputs": [
        {
          "internalType": "address",
          "name": "split",
          "type": "address"
        },
        {
          "internalType": "address",
          "name": "newController",
          "type": "address"
        }
      ],
      "name": "transferControl",
      "outputs": [],
      "stateMutability": "nonpayable",
      "type": "function"
    },
    {
      "inputs": [
        {
          "internalType": "address",
          "name": "split",
          "type": "address"
        },
        {
          "internalType": "contract ERC20",
          "name": "token",
          "type": "address"
        },
        {
          "internalType": "address[]",
          "name": "accounts",
          "type": "address[]"
        },
        {
          "internalType": "uint32[]",
          "name": "percentAllocations",
          "type": "uint32[]"
        },
        {
          "internalType": "uint32",
          "name": "distributorFee",
          "type": "uint32"
        },
        {
          "internalType": "address",
          "name": "distributorAddress",
          "type": "address"
        }
      ],
      "name": "updateAndDistributeERC20",
      "outputs": [],
      "stateMutability": "nonpayable",
      "type": "function"
    },
    {
      "inputs": [
        {
          "internalType": "address",
          "name": "split",
          "type": "address"
        },
        {
          "internalType": "address[]",
          "name": "accounts",
          "type": "address[]"
        },
        {
          "internalType": "uint32[]",
          "name": "percentAllocations",
          "type": "uint32[]"
        },
        {
          "internalType": "uint32",
          "name": "distributorFee",
          "type": "uint32"
        },
        {
          "internalType": "address",
          "name": "distributorAddress",
          "type": "address"
        }
      ],
      "name": "updateAndDistributeETH",
      "outputs": [],
      "stateMutability": "nonpayable",
      "type": "function"
    },
    {
      "inputs": [
        {
          "internalType": "address",
          "name": "split",
          "type": "address"
        },
        {
          "internalType": "address[]",
          "name": "accounts",
          "type": "address[]"
        },
        {
          "internalType": "uint32[]",
          "name": "percentAllocations",
          "type": "uint32[]"
        },
        {
          "internalType": "uint32",
          "name": "distributorFee",
          "type": "uint32"
        }
      ],
      "name": "updateSplit",
      "outputs": [],
      "stateMutability": "nonpayable",
      "type": "function"
    },
    {
      "inputs": [],
      "name": "walletImplementation",
      "outputs": [
        {
          "internalType": "address",
          "name": "",
          "type": "address"
        }
      ],
      "stateMutability": "view",
      "type": "function"
    },
    {
      "inputs": [
        {
          "internalType": "address",
          "name": "account",
          "type": "address"
        },
        {
          "internalType": "uint256",
          "name": "withdrawETH",
          "type": "uint256"
        },
        {
          "internalType": "contract ERC20[]",
          "name": "tokens",
          "type": "address[]"
        }
      ],
      "name": "withdraw",
      "outputs": [],
      "stateMutability": "nonpayable",
      "type": "function"
    },
    {
      "stateMutability": "payable",
      "type": "receive"
    }
  ],
  "bytecode": "0x60a06040523480156200001157600080fd5b50604051620000209062000050565b604051809103906000f0801580156200003d573d6000803e3d6000fd5b506001600160a01b03166080526200005e565b6103598062002ed683390190565b608051612e476200008f600039600081816102b001528181610baa01528181610f9a0152610fcb0152612e476000f3fe6080604052600436106101185760003560e01c806377b1e4e9116100a0578063c7de644011610064578063c7de64401461034e578063d0e4b2f41461036e578063e10e51d61461038e578063e61cb05e146103cb578063ecef0ace146103eb57600080fd5b806377b1e4e91461027e5780638117abc11461029e57806388c662aa146102d2578063a5e3909e1461030e578063c3a8962c1461032e57600080fd5b80633bb66a7b116100e75780633bb66a7b146101cf5780633f26479e146101ef57806352844dd3146102065780636e5f69191461023e5780637601f7821461025e57600080fd5b80631267c6da146101245780631581130214610146578063189cbaa0146101665780631da0b8fc1461018657600080fd5b3661011f57005b600080fd5b34801561013057600080fd5b5061014461013f36600461282e565b61040b565b005b34801561015257600080fd5b506101446101613660046128ab565b6104a6565b34801561017257600080fd5b5061014461018136600461282e565b6107e2565b34801561019257600080fd5b506101bc6101a136600461282e565b6001600160a01b031660009081526002602052604090205490565b6040519081526020015b60405180910390f35b3480156101db57600080fd5b506101bc6101ea36600461282e565b6108ad565b3480156101fb57600080fd5b506101bc620f424081565b34801561021257600080fd5b50610226610221366004612965565b610906565b6040516001600160a01b0390911681526020016101c6565b34801561024a57600080fd5b506101446102593660046129e6565b610bdd565b34801561026a57600080fd5b50610226610279366004612a42565b610ce8565b34801561028a57600080fd5b506101446102993660046128ab565b611072565b3480156102aa57600080fd5b506102267f000000000000000000000000000000000000000000000000000000000000000081565b3480156102de57600080fd5b506102266102ed36600461282e565b6001600160a01b039081166000908152600260205260409020600101541690565b34801561031a57600080fd5b50610144610329366004612ad6565b61137d565b34801561033a57600080fd5b506101bc610349366004612b7e565b611668565b34801561035a57600080fd5b5061014461036936600461282e565b61173c565b34801561037a57600080fd5b50610144610389366004612b7e565b61180b565b34801561039a57600080fd5b506102266103a936600461282e565b6001600160a01b03908116600090815260026020819052604090912001541690565b3480156103d757600080fd5b506101446103e6366004612ad6565b6118dd565b3480156103f757600080fd5b50610144610406366004612bb7565b611bf5565b6001600160a01b0381811660009081526002602052604090206001015482911633146104515760405163472511eb60e11b81523360048201526024015b60405180910390fd5b6001600160a01b038216600081815260026020819052604080832090910180546001600160a01b0319169055517f6c2460a415b84be3720c209fe02f2cad7a6bcba21e8637afe8957b7ec4b6ef879190a25050565b85858080602002602001604051908101604052809392919081815260200183836020028082843760009201919091525050604080516020808902828101820190935288825290935088925087918291850190849080828437600092019190915250508351869250600211159050610535578251604051630e8c626560e41b815260040161044891815260200190565b8151835114610564578251825160405163b34f351d60e01b815260048101929092526024820152604401610448565b620f424061057183611e6e565b63ffffffff16146105a75761058582611e6e565b60405163fcc487c160e01b815263ffffffff9091166004820152602401610448565b82516000190160005b81811015610674578481600101815181106105cd576105cd612c49565b60200260200101516001600160a01b03168582815181106105f0576105f0612c49565b60200260200101516001600160a01b0316106106225760405163ac6bd23360e01b815260048101829052602401610448565b600063ffffffff1684828151811061063c5761063c612c49565b602002602001015163ffffffff16141561066c57604051630db7e4c760e01b815260048101829052602401610448565b6001016105b0565b50600063ffffffff1683828151811061068f5761068f612c49565b602002602001015163ffffffff1614156106bf57604051630db7e4c760e01b815260048101829052602401610448565b50620186a08163ffffffff1611156106f25760405163308440e360e21b815263ffffffff82166004820152602401610448565b6107628b8a8a8080602002602001604051908101604052809392919081815260200183836020028082843760009201919091525050604080516020808e0282810182019093528d82529093508d92508c9182918501908490808284376000920191909152508b9250611eb3915050565b6107d58b8b8b8b8080602002602001604051908101604052809392919081815260200183836020028082843760009201919091525050604080516020808f0282810182019093528e82529093508e92508d9182918501908490808284376000920191909152508c92508b9150611f059050565b5050505050505050505050565b6001600160a01b0381811660009081526002602052604090206001015482911633146108235760405163472511eb60e11b8152336004820152602401610448565b6001600160a01b03808316600081815260026020819052604080832091820180546001600160a01b0319169055600190910154905191931691907f943d69cf2bbe08a9d44b3c4ce6da17d939d758739370620871ce99a6437866d0908490a4506001600160a01b0316600090815260026020526040902060010180546001600160a01b0319169055565b6001600160a01b0381166000908152600260205260408120546108d15760006108dd565b816001600160a01b0316315b6001600160a01b0383166000908152602081905260409020546109009190612c75565b92915050565b600085858080602002602001604051908101604052809392919081815260200183836020028082843760009201919091525050604080516020808902828101820190935288825290935088925087918291850190849080828437600092019190915250508351869250600211159050610997578251604051630e8c626560e41b815260040161044891815260200190565b81518351146109c6578251825160405163b34f351d60e01b815260048101929092526024820152604401610448565b620f42406109d383611e6e565b63ffffffff16146109e75761058582611e6e565b82516000190160005b81811015610ab457848160010181518110610a0d57610a0d612c49565b60200260200101516001600160a01b0316858281518110610a3057610a30612c49565b60200260200101516001600160a01b031610610a625760405163ac6bd23360e01b815260048101829052602401610448565b600063ffffffff16848281518110610a7c57610a7c612c49565b602002602001015163ffffffff161415610aac57604051630db7e4c760e01b815260048101829052602401610448565b6001016109f0565b50600063ffffffff16838281518110610acf57610acf612c49565b602002602001015163ffffffff161415610aff57604051630db7e4c760e01b815260048101829052602401610448565b50620186a08163ffffffff161115610b325760405163308440e360e21b815263ffffffff82166004820152602401610448565b6000610ba38a8a8080602002602001604051908101604052809392919081815260200183836020028082843760009201919091525050604080516020808e0282810182019093528d82529093508d92508c9182918501908490808284376000920191909152508b92506121c3915050565b9050610bcf7f0000000000000000000000000000000000000000000000000000000000000000826121f9565b9a9950505050505050505050565b60008167ffffffffffffffff811115610bf857610bf8612c8d565b604051908082528060200260200182016040528015610c21578160200160208202803683370190505b50905060008415610c3857610c358661229e565b90505b60005b83811015610c9857610c7387868684818110610c5957610c59612c49565b9050602002016020810190610c6e919061282e565b6122f1565b838281518110610c8557610c85612c49565b6020908102919091010152600101610c3b565b50856001600160a01b03167fa9e30bf144f83390a4fe47562a4e16892108102221c674ff538da0b72a83d17482868686604051610cd89493929190612ca3565b60405180910390a2505050505050565b600086868080602002602001604051908101604052809392919081815260200183836020028082843760009201919091525050604080516020808a02828101820190935289825290935089925088918291850190849080828437600092019190915250508351879250600211159050610d79578251604051630e8c626560e41b815260040161044891815260200190565b8151835114610da8578251825160405163b34f351d60e01b815260048101929092526024820152604401610448565b620f4240610db583611e6e565b63ffffffff1614610dc95761058582611e6e565b82516000190160005b81811015610e9657848160010181518110610def57610def612c49565b60200260200101516001600160a01b0316858281518110610e1257610e12612c49565b60200260200101516001600160a01b031610610e445760405163ac6bd23360e01b815260048101829052602401610448565b600063ffffffff16848281518110610e5e57610e5e612c49565b602002602001015163ffffffff161415610e8e57604051630db7e4c760e01b815260048101829052602401610448565b600101610dd2565b50600063ffffffff16838281518110610eb157610eb1612c49565b602002602001015163ffffffff161415610ee157604051630db7e4c760e01b815260048101829052602401610448565b50620186a08163ffffffff161115610f145760405163308440e360e21b815263ffffffff82166004820152602401610448565b6000610f858b8b8080602002602001604051908101604052809392919081815260200183836020028082843760009201919091525050604080516020808f0282810182019093528e82529093508e92508d9182918501908490808284376000920191909152508c92506121c3915050565b90506001600160a01b038616610fc657610fbf7f00000000000000000000000000000000000000000000000000000000000000008261235d565b9450611023565b610fef7f000000000000000000000000000000000000000000000000000000000000000061240d565b6001600160a01b03818116600090815260026020526040902060010180546001600160a01b03191691891691909117905594505b6001600160a01b038516600081815260026020526040808220849055517f8d5f9943c664a3edaf4d3eb18cc5e2c45a7d2dc5869be33d33bbc0fff9bc25909190a2505050509695505050505050565b6001600160a01b0388811660009081526002602052604090206001015489911633146110b35760405163472511eb60e11b8152336004820152602401610448565b86868080602002602001604051908101604052809392919081815260200183836020028082843760009201919091525050604080516020808a02828101820190935289825290935089925088918291850190849080828437600092019190915250508351879250600211159050611142578251604051630e8c626560e41b815260040161044891815260200190565b8151835114611171578251825160405163b34f351d60e01b815260048101929092526024820152604401610448565b620f424061117e83611e6e565b63ffffffff16146111925761058582611e6e565b82516000190160005b8181101561125f578481600101815181106111b8576111b8612c49565b60200260200101516001600160a01b03168582815181106111db576111db612c49565b60200260200101516001600160a01b03161061120d5760405163ac6bd23360e01b815260048101829052602401610448565b600063ffffffff1684828151811061122757611227612c49565b602002602001015163ffffffff16141561125757604051630db7e4c760e01b815260048101829052602401610448565b60010161119b565b50600063ffffffff1683828151811061127a5761127a612c49565b602002602001015163ffffffff1614156112aa57604051630db7e4c760e01b815260048101829052602401610448565b50620186a08163ffffffff1611156112dd5760405163308440e360e21b815263ffffffff82166004820152602401610448565b6112eb8c8b8b8b8b8b6124bc565b61136f8c8c8c8c80806020026020016040519081016040528093929190818152602001838360200280828437600081840152601f19601f820116905080830192505050505050508b8b808060200260200160405190810160405280939291908181526020018383602002808284376000920191909152508d92508c9150611f059050565b505050505050505050505050565b6001600160a01b0387811660009081526002602052604090206001015488911633146113be5760405163472511eb60e11b8152336004820152602401610448565b86868080602002602001604051908101604052809392919081815260200183836020028082843760009201919091525050604080516020808a0282810182019093528982529093508992508891829185019084908082843760009201919091525050835187925060021115905061144d578251604051630e8c626560e41b815260040161044891815260200190565b815183511461147c578251825160405163b34f351d60e01b815260048101929092526024820152604401610448565b620f424061148983611e6e565b63ffffffff161461149d5761058582611e6e565b82516000190160005b8181101561156a578481600101815181106114c3576114c3612c49565b60200260200101516001600160a01b03168582815181106114e6576114e6612c49565b60200260200101516001600160a01b0316106115185760405163ac6bd23360e01b815260048101829052602401610448565b600063ffffffff1684828151811061153257611532612c49565b602002602001015163ffffffff16141561156257604051630db7e4c760e01b815260048101829052602401610448565b6001016114a6565b50600063ffffffff1683828151811061158557611585612c49565b602002602001015163ffffffff1614156115b557604051630db7e4c760e01b815260048101829052602401610448565b50620186a08163ffffffff1611156115e85760405163308440e360e21b815263ffffffff82166004820152602401610448565b6115f68b8b8b8b8b8b6124bc565b6107d58b8b8b8080602002602001604051908101604052809392919081815260200183836020028082843760009201919091525050604080516020808f0282810182019093528e82529093508e92508d9182918501908490808284376000920191909152508c92508b915061257c9050565b6001600160a01b03821660009081526002602052604081205461168c576000611705565b6040516370a0823160e01b81526001600160a01b0384811660048301528316906370a082319060240160206040518083038186803b1580156116cd57600080fd5b505afa1580156116e1573d6000803e3d6000fd5b505050506040513d601f19601f820116820180604052508101906117059190612d34565b6001600160a01b038084166000908152600160209081526040808320938816835292905220546117359190612c75565b9392505050565b6001600160a01b0381811660009081526002602081905260409091200154829116331461177e5760405163472511eb60e11b8152336004820152602401610448565b6001600160a01b03808316600081815260026020819052604080832091820180546001600160a01b0319169055600190910154905133949190911692917f943d69cf2bbe08a9d44b3c4ce6da17d939d758739370620871ce99a6437866d091a4506001600160a01b0316600090815260026020526040902060010180546001600160a01b03191633179055565b6001600160a01b03828116600090815260026020526040902060010154839116331461184c5760405163472511eb60e11b8152336004820152602401610448565b816001600160a01b03811661187f5760405163c369130760e01b81526001600160a01b0382166004820152602401610448565b6001600160a01b03848116600081815260026020819052604080832090910180546001600160a01b0319169488169485179055517f107cf6ea8668d533df1aab5bb8b6315bb0c25f0b6c955558d09368f290668fc79190a350505050565b8585808060200260200160405190810160405280939291908181526020018383602002808284376000920191909152505060408051602080890282810182019093528882529093508892508791829185019084908082843760009201919091525050835186925060021115905061196c578251604051630e8c626560e41b815260040161044891815260200190565b815183511461199b578251825160405163b34f351d60e01b815260048101929092526024820152604401610448565b620f42406119a883611e6e565b63ffffffff16146119bc5761058582611e6e565b82516000190160005b81811015611a89578481600101815181106119e2576119e2612c49565b60200260200101516001600160a01b0316858281518110611a0557611a05612c49565b60200260200101516001600160a01b031610611a375760405163ac6bd23360e01b815260048101829052602401610448565b600063ffffffff16848281518110611a5157611a51612c49565b602002602001015163ffffffff161415611a8157604051630db7e4c760e01b815260048101829052602401610448565b6001016119c5565b50600063ffffffff16838281518110611aa457611aa4612c49565b602002602001015163ffffffff161415611ad457604051630db7e4c760e01b815260048101829052602401610448565b50620186a08163ffffffff161115611b075760405163308440e360e21b815263ffffffff82166004820152602401610448565b611b778a8a8a8080602002602001604051908101604052809392919081815260200183836020028082843760009201919091525050604080516020808e0282810182019093528d82529093508d92508c9182918501908490808284376000920191909152508b9250611eb3915050565b611be98a8a8a8080602002602001604051908101604052809392919081815260200183836020028082843760009201919091525050604080516020808e0282810182019093528d82529093508d92508c9182918501908490808284376000920191909152508b92508a915061257c9050565b50505050505050505050565b6001600160a01b038681166000908152600260205260409020600101548791163314611c365760405163472511eb60e11b8152336004820152602401610448565b85858080602002602001604051908101604052809392919081815260200183836020028082843760009201919091525050604080516020808902828101820190935288825290935088925087918291850190849080828437600092019190915250508351869250600211159050611cc5578251604051630e8c626560e41b815260040161044891815260200190565b8151835114611cf4578251825160405163b34f351d60e01b815260048101929092526024820152604401610448565b620f4240611d0183611e6e565b63ffffffff1614611d155761058582611e6e565b82516000190160005b81811015611de257848160010181518110611d3b57611d3b612c49565b60200260200101516001600160a01b0316858281518110611d5e57611d5e612c49565b60200260200101516001600160a01b031610611d905760405163ac6bd23360e01b815260048101829052602401610448565b600063ffffffff16848281518110611daa57611daa612c49565b602002602001015163ffffffff161415611dda57604051630db7e4c760e01b815260048101829052602401610448565b600101611d1e565b50600063ffffffff16838281518110611dfd57611dfd612c49565b602002602001015163ffffffff161415611e2d57604051630db7e4c760e01b815260048101829052602401610448565b50620186a08163ffffffff161115611e605760405163308440e360e21b815263ffffffff82166004820152602401610448565b611be98a8a8a8a8a8a6124bc565b8051600090815b81811015611eac57838181518110611e8f57611e8f612c49565b602002602001015183611ea29190612d4d565b9250600101611e75565b5050919050565b6000611ec08484846121c3565b6001600160a01b0386166000908152600260205260409020549091508114611efe5760405163dd5ff45760e01b815260048101829052602401610448565b5050505050565b6001600160a01b038581166000818152600160209081526040808320948b16808452949091528082205490516370a0823160e01b815260048101949094529092909183916370a082319060240160206040518083038186803b158015611f6a57600080fd5b505afa158015611f7e573d6000803e3d6000fd5b505050506040513d601f19601f82011682018060405250810190611fa29190612d34565b90508015611faf57600019015b8115611fbc576001820391505b81810192508115611ff0576001600160a01b038089166000908152600160208181526040808420948e168452939052919020555b836001600160a01b0316886001600160a01b03168a6001600160a01b03167fb5ee5dc3d2c31a019bbf2c787e0e9c97971c96aceea1c38c12fc8fd25c536d468660405161203f91815260200190565b60405180910390a463ffffffff8516156120b1576001600160a01b038881166000908152600160205260408120620f424063ffffffff891687020492839290881661208a573361208c565b875b6001600160a01b03168152602081019190915260400160002080549091019055909203915b865160005b8181101561214d576120ec858983815181106120d4576120d4612c49565b602002602001015163ffffffff16620f424091020490565b6001600160a01b038b1660009081526001602052604081208b519091908c908590811061211b5761211b612c49565b6020908102919091018101516001600160a01b03168252810191909152604001600020805490910190556001016120b6565b505080156121b857604051633e0f9fff60e11b81526001600160a01b038981166004830152602482018390528a1690637c1f3ffe90604401600060405180830381600087803b15801561219f57600080fd5b505af11580156121b3573d6000803e3d6000fd5b505050505b505050505050505050565b60008383836040516020016121da93929190612d75565b6040516020818303038152906040528051906020012090509392505050565b6000611735838330604051723d605d80600a3d3981f336603057343d52307f60681b81527f830d2d700a97af574b186c80d40429385d24241565b08a7c559ba283a964d9b160138201527260203da23d3df35b3d3d3d3d363d3d37363d7360681b6033820152606093841b60468201526d5af43d3d93803e605b57fd5bf3ff60901b605a820152921b6068830152607c8201526067808220609c830152605591012090565b6001600160a01b0381166000908152602081905260408120546122c390600190612dfa565b6001600160a01b0383166000818152602081905260409020600190559091506122ec9082612742565b919050565b6001600160a01b038082166000908152600160208181526040808420948716845293905291812054909161232491612dfa565b6001600160a01b038084166000818152600160208181526040808420958a16845294905292902091909155909150610900908483612798565b6000604051723d605d80600a3d3981f336603057343d52307f60681b81527f830d2d700a97af574b186c80d40429385d24241565b08a7c559ba283a964d9b160138201527260203da23d3df35b3d3d3d3d363d3d37363d7360681b60338201528360601b60468201526c5af43d3d93803e605b57fd5bf360981b605a820152826067826000f59150506001600160a01b0381166109005760405163380bbe1360e01b815260040160405180910390fd5b6000604051723d605d80600a3d3981f336603057343d52307f60681b81527f830d2d700a97af574b186c80d40429385d24241565b08a7c559ba283a964d9b160138201527260203da23d3df35b3d3d3d3d363d3d37363d7360681b60338201528260601b60468201526c5af43d3d93803e605b57fd5bf360981b605a8201526067816000f09150506001600160a01b0381166122ec57604051630985da9b60e41b815260040160405180910390fd5b600061252d86868080602002602001604051908101604052809392919081815260200183836020028082843760009201919091525050604080516020808a028281018201909352898252909350899250889182918501908490808284376000920191909152508792506121c3915050565b6001600160a01b0388166000818152600260205260408082208490555192935090917f45e1e99513dd915ac128b94953ca64c6375717ea1894b3114db08cdca51debd29190a250505050505050565b6001600160a01b03851660008181526020819052604081205491319082156125a5576001830392505b5081810182156125cc576001600160a01b0388166000908152602081905260409020600190555b836001600160a01b0316886001600160a01b03167f87c3ca0a87d9b82033e4bc55e6d30621f8d7e0c9d8ca7988edfde8932787b77b8360405161261191815260200190565b60405180910390a363ffffffff85161561267057620f424063ffffffff8616820204806000806001600160a01b03881661264b573361264d565b875b6001600160a01b0316815260208101919091526040016000208054909101905590035b865160005b818110156126da57612693838983815181106120d4576120d4612c49565b6000808b84815181106126a8576126a8612c49565b6020908102919091018101516001600160a01b0316825281019190915260400160002080549091019055600101612675565b5050811561273857604051632ac3affd60e21b8152600481018390526001600160a01b0389169063ab0ebff490602401600060405180830381600087803b15801561272457600080fd5b505af115801561136f573d6000803e3d6000fd5b5050505050505050565b600080600080600085875af19050806127935760405162461bcd60e51b815260206004820152601360248201527211551217d514905394d1915497d19052531151606a1b6044820152606401610448565b505050565b600060405163a9059cbb60e01b8152836004820152826024820152602060006044836000895af13d15601f3d11600160005114161716915050806128105760405162461bcd60e51b815260206004820152600f60248201526e1514905394d1915497d19052531151608a1b6044820152606401610448565b50505050565b6001600160a01b038116811461282b57600080fd5b50565b60006020828403121561284057600080fd5b813561173581612816565b60008083601f84011261285d57600080fd5b50813567ffffffffffffffff81111561287557600080fd5b6020830191508360208260051b850101111561289057600080fd5b9250929050565b803563ffffffff811681146122ec57600080fd5b60008060008060008060008060c0898b0312156128c757600080fd5b88356128d281612816565b975060208901356128e281612816565b9650604089013567ffffffffffffffff808211156128ff57600080fd5b61290b8c838d0161284b565b909850965060608b013591508082111561292457600080fd5b506129318b828c0161284b565b9095509350612944905060808a01612897565b915060a089013561295481612816565b809150509295985092959890939650565b60008060008060006060868803121561297d57600080fd5b853567ffffffffffffffff8082111561299557600080fd5b6129a189838a0161284b565b909750955060208801359150808211156129ba57600080fd5b506129c78882890161284b565b90945092506129da905060408701612897565b90509295509295909350565b600080600080606085870312156129fc57600080fd5b8435612a0781612816565b935060208501359250604085013567ffffffffffffffff811115612a2a57600080fd5b612a368782880161284b565b95989497509550505050565b60008060008060008060808789031215612a5b57600080fd5b863567ffffffffffffffff80821115612a7357600080fd5b612a7f8a838b0161284b565b90985096506020890135915080821115612a9857600080fd5b50612aa589828a0161284b565b9095509350612ab8905060408801612897565b91506060870135612ac881612816565b809150509295509295509295565b600080600080600080600060a0888a031215612af157600080fd5b8735612afc81612816565b9650602088013567ffffffffffffffff80821115612b1957600080fd5b612b258b838c0161284b565b909850965060408a0135915080821115612b3e57600080fd5b50612b4b8a828b0161284b565b9095509350612b5e905060608901612897565b91506080880135612b6e81612816565b8091505092959891949750929550565b60008060408385031215612b9157600080fd5b8235612b9c81612816565b91506020830135612bac81612816565b809150509250929050565b60008060008060008060808789031215612bd057600080fd5b8635612bdb81612816565b9550602087013567ffffffffffffffff80821115612bf857600080fd5b612c048a838b0161284b565b90975095506040890135915080821115612c1d57600080fd5b50612c2a89828a0161284b565b9094509250612c3d905060608801612897565b90509295509295509295565b634e487b7160e01b600052603260045260246000fd5b634e487b7160e01b600052601160045260246000fd5b60008219821115612c8857612c88612c5f565b500190565b634e487b7160e01b600052604160045260246000fd5b84815260606020808301829052908201849052600090859060808401835b87811015612cef578335612cd481612816565b6001600160a01b031682529282019290820190600101612cc1565b508481036040860152855180825290820192508186019060005b81811015612d2557825185529383019391830191600101612d09565b50929998505050505050505050565b600060208284031215612d4657600080fd5b5051919050565b600063ffffffff808316818516808303821115612d6c57612d6c612c5f565b01949350505050565b835160009082906020808801845b83811015612da85781516001600160a01b031685529382019390820190600101612d83565b5050865181880193925060005b81811015612dd757845163ffffffff1684529382019392820192600101612db5565b50505060e09490941b6001600160e01b0319168452505060049091019392505050565b600082821015612e0c57612e0c612c5f565b50039056fea26469706673582212209b19803e4ce32d6375955f621a8f77af5806910bf679d243e97f7b59e14ef4b164736f6c6343000809003360a060405234801561001057600080fd5b503360805260805161030f61004a60003960008181604b0152818160bc015281816101080152818161013c0152610186015261030f6000f3fe6080604052600436106100345760003560e01c80630e769b2b146100395780637c1f3ffe14610089578063ab0ebff41461009e575b600080fd5b34801561004557600080fd5b5061006d7f000000000000000000000000000000000000000000000000000000000000000081565b6040516001600160a01b03909116815260200160405180910390f35b61009c610097366004610288565b6100b1565b005b61009c6100ac3660046102c0565b610131565b336001600160a01b037f000000000000000000000000000000000000000000000000000000000000000016146100f9576040516282b42960e81b815260040160405180910390fd5b61012d6001600160a01b0383167f0000000000000000000000000000000000000000000000000000000000000000836101af565b5050565b336001600160a01b037f00000000000000000000000000000000000000000000000000000000000000001614610179576040516282b42960e81b815260040160405180910390fd5b6101ac6001600160a01b037f00000000000000000000000000000000000000000000000000000000000000001682610232565b50565b600060405163a9059cbb60e01b8152836004820152826024820152602060006044836000895af13d15601f3d116001600051141617169150508061022c5760405162461bcd60e51b815260206004820152600f60248201526e1514905394d1915497d19052531151608a1b60448201526064015b60405180910390fd5b50505050565b600080600080600085875af19050806102835760405162461bcd60e51b815260206004820152601360248201527211551217d514905394d1915497d19052531151606a1b6044820152606401610223565b505050565b6000806040838503121561029b57600080fd5b82356001600160a01b03811681146102b257600080fd5b946020939093013593505050565b6000602082840312156102d257600080fd5b503591905056fea2646970667358221220e7d040ad7bc5d71a7ecd9d10d5de95667e11e566d764d38bf3ebbc967b065d0f64736f6c63430008090033",
  "linkReferences": {},
  "deployedLinkReferences": {}
}