{
  "_format": "hh-sol-artifact-1",
  "contractName": "DCNT721A",
  "sourceName": "contracts/DCNT721A.sol",
  "abi": [
    {
      "inputs": [],
      "name": "ApprovalCallerNotOwnerNorApproved",
      "type": "error"
    },
    {
      "inputs": [],
      "name": "ApprovalQueryForNonexistentToken",
      "type": "error"
    },
    {
      "inputs": [],
      "name": "ApproveToCaller",
      "type": "error"
    },
    {
      "inputs": [],
      "name": "BalanceQueryForZeroAddress",
      "type": "error"
    },
    {
      "inputs": [],
      "name": "MintERC2309QuantityExceedsLimit",
      "type": "error"
    },
    {
      "inputs": [],
      "name": "MintToZeroAddress",
      "type": "error"
    },
    {
      "inputs": [],
      "name": "MintZeroQuantity",
      "type": "error"
    },
    {
      "inputs": [],
      "name": "OwnerQueryForNonexistentToken",
      "type": "error"
    },
    {
      "inputs": [],
      "name": "OwnershipNotInitializedForExtraData",
      "type": "error"
    },
    {
      "inputs": [],
      "name": "TransferCallerNotOwnerNorApproved",
      "type": "error"
    },
    {
      "inputs": [],
      "name": "TransferFromIncorrectOwner",
      "type": "error"
    },
    {
      "inputs": [],
      "name": "TransferToNonERC721ReceiverImplementer",
      "type": "error"
    },
    {
      "inputs": [],
      "name": "TransferToZeroAddress",
      "type": "error"
    },
    {
      "inputs": [],
      "name": "URIQueryForNonexistentToken",
      "type": "error"
    },
    {
      "anonymous": false,
      "inputs": [
        {
          "indexed": true,
          "internalType": "address",
          "name": "owner",
          "type": "address"
        },
        {
          "indexed": true,
          "internalType": "address",
          "name": "approved",
          "type": "address"
        },
        {
          "indexed": true,
          "internalType": "uint256",
          "name": "tokenId",
          "type": "uint256"
        }
      ],
      "name": "Approval",
      "type": "event"
    },
    {
      "anonymous": false,
      "inputs": [
        {
          "indexed": true,
          "internalType": "address",
          "name": "owner",
          "type": "address"
        },
        {
          "indexed": true,
          "internalType": "address",
          "name": "operator",
          "type": "address"
        },
        {
          "indexed": false,
          "internalType": "bool",
          "name": "approved",
          "type": "bool"
        }
      ],
      "name": "ApprovalForAll",
      "type": "event"
    },
    {
      "anonymous": false,
      "inputs": [
        {
          "indexed": true,
          "internalType": "uint256",
          "name": "fromTokenId",
          "type": "uint256"
        },
        {
          "indexed": false,
          "internalType": "uint256",
          "name": "toTokenId",
          "type": "uint256"
        },
        {
          "indexed": true,
          "internalType": "address",
          "name": "from",
          "type": "address"
        },
        {
          "indexed": true,
          "internalType": "address",
          "name": "to",
          "type": "address"
        }
      ],
      "name": "ConsecutiveTransfer",
      "type": "event"
    },
    {
      "anonymous": false,
      "inputs": [
        {
          "indexed": false,
          "internalType": "uint8",
          "name": "version",
          "type": "uint8"
        }
      ],
      "name": "Initialized",
      "type": "event"
    },
    {
      "anonymous": false,
      "inputs": [
        {
          "indexed": false,
          "internalType": "address",
          "name": "sender",
          "type": "address"
        },
        {
          "indexed": false,
          "internalType": "uint256",
          "name": "tokenId_",
          "type": "uint256"
        }
      ],
      "name": "Minted",
      "type": "event"
    },
    {
      "anonymous": false,
      "inputs": [
        {
          "indexed": true,
          "internalType": "address",
          "name": "previousOwner",
          "type": "address"
        },
        {
          "indexed": true,
          "internalType": "address",
          "name": "newOwner",
          "type": "address"
        }
      ],
      "name": "OwnershipTransferred",
      "type": "event"
    },
    {
      "anonymous": false,
      "inputs": [
        {
          "indexed": true,
          "internalType": "address",
          "name": "from",
          "type": "address"
        },
        {
          "indexed": true,
          "internalType": "address",
          "name": "to",
          "type": "address"
        },
        {
          "indexed": true,
          "internalType": "uint256",
          "name": "tokenId",
          "type": "uint256"
        }
      ],
      "name": "Transfer",
      "type": "event"
    },
    {
      "inputs": [],
      "name": "MAX_TOKENS",
      "outputs": [
        {
          "internalType": "uint256",
          "name": "",
          "type": "uint256"
        }
      ],
      "stateMutability": "view",
      "type": "function"
    },
    {
      "inputs": [
        {
          "internalType": "uint256",
          "name": "newCap",
          "type": "uint256"
        }
      ],
      "name": "adjustCap",
      "outputs": [],
      "stateMutability": "nonpayable",
      "type": "function"
    },
    {
      "inputs": [
        {
          "internalType": "address",
          "name": "to",
          "type": "address"
        },
        {
          "internalType": "uint256",
          "name": "tokenId",
          "type": "uint256"
        }
      ],
      "name": "approve",
      "outputs": [],
      "stateMutability": "nonpayable",
      "type": "function"
    },
    {
      "inputs": [
        {
          "internalType": "address",
          "name": "owner",
          "type": "address"
        }
      ],
      "name": "balanceOf",
      "outputs": [
        {
          "internalType": "uint256",
          "name": "",
          "type": "uint256"
        }
      ],
      "stateMutability": "view",
      "type": "function"
    },
    {
      "inputs": [],
      "name": "baseURI",
      "outputs": [
        {
          "internalType": "string",
          "name": "",
          "type": "string"
        }
      ],
      "stateMutability": "view",
      "type": "function"
    },
    {
      "inputs": [],
      "name": "contractURI",
      "outputs": [
        {
          "internalType": "string",
          "name": "",
          "type": "string"
        }
      ],
      "stateMutability": "view",
      "type": "function"
    },
    {
      "inputs": [
        {
          "internalType": "address[]",
          "name": "accounts",
          "type": "address[]"
        },
        {
          "internalType": "uint32[]",
          "name": "percentAllocations",
          "type": "uint32[]"
        },
        {
          "internalType": "uint32",
          "name": "distributorFee",
          "type": "uint32"
        }
      ],
      "name": "createSplit",
      "outputs": [],
      "stateMutability": "nonpayable",
      "type": "function"
    },
    {
      "inputs": [
        {
          "internalType": "address",
          "name": "account",
          "type": "address"
        },
        {
          "internalType": "uint256",
          "name": "withdrawETH",
          "type": "uint256"
        },
        {
          "internalType": "contract ERC20[]",
          "name": "tokens",
          "type": "address[]"
        },
        {
          "internalType": "address[]",
          "name": "accounts",
          "type": "address[]"
        },
        {
          "internalType": "uint32[]",
          "name": "percentAllocations",
          "type": "uint32[]"
        },
        {
          "internalType": "uint32",
          "name": "distributorFee",
          "type": "uint32"
        },
        {
          "internalType": "address",
          "name": "distributorAddress",
          "type": "address"
        }
      ],
      "name": "distributeAndWithdraw",
      "outputs": [],
      "stateMutability": "nonpayable",
      "type": "function"
    },
    {
      "inputs": [
        {
          "internalType": "contract ERC20",
          "name": "token",
          "type": "address"
        },
        {
          "internalType": "address[]",
          "name": "accounts",
          "type": "address[]"
        },
        {
          "internalType": "uint32[]",
          "name": "percentAllocations",
          "type": "uint32[]"
        },
        {
          "internalType": "uint32",
          "name": "distributorFee",
          "type": "uint32"
        },
        {
          "internalType": "address",
          "name": "distributorAddress",
          "type": "address"
        }
      ],
      "name": "distributeERC20",
      "outputs": [],
      "stateMutability": "nonpayable",
      "type": "function"
    },
    {
      "inputs": [
        {
          "internalType": "address[]",
          "name": "accounts",
          "type": "address[]"
        },
        {
          "internalType": "uint32[]",
          "name": "percentAllocations",
          "type": "uint32[]"
        },
        {
          "internalType": "uint32",
          "name": "distributorFee",
          "type": "uint32"
        },
        {
          "internalType": "address",
          "name": "distributorAddress",
          "type": "address"
        }
      ],
      "name": "distributeETH",
      "outputs": [],
      "stateMutability": "nonpayable",
      "type": "function"
    },
    {
      "inputs": [],
      "name": "flipSaleState",
      "outputs": [],
      "stateMutability": "nonpayable",
      "type": "function"
    },
    {
      "inputs": [
        {
          "internalType": "uint256",
          "name": "tokenId",
          "type": "uint256"
        }
      ],
      "name": "getApproved",
      "outputs": [
        {
          "internalType": "address",
          "name": "",
          "type": "address"
        }
      ],
      "stateMutability": "view",
      "type": "function"
    },
    {
      "inputs": [],
      "name": "hasAdjustableCap",
      "outputs": [
        {
          "internalType": "bool",
          "name": "",
          "type": "bool"
        }
      ],
      "stateMutability": "view",
      "type": "function"
    },
    {
      "inputs": [
        {
          "internalType": "address",
          "name": "_owner",
          "type": "address"
        },
        {
          "components": [
            {
              "internalType": "string",
              "name": "name",
              "type": "string"
            },
            {
              "internalType": "string",
              "name": "symbol",
              "type": "string"
            },
            {
              "internalType": "bool",
              "name": "hasAdjustableCap",
              "type": "bool"
            },
            {
              "internalType": "uint256",
              "name": "maxTokens",
              "type": "uint256"
            },
            {
              "internalType": "uint256",
              "name": "tokenPrice",
              "type": "uint256"
            },
            {
              "internalType": "uint256",
              "name": "maxTokenPurchase",
              "type": "uint256"
            },
            {
              "internalType": "bytes32",
              "name": "presaleMerkleRoot",
              "type": "bytes32"
            },
            {
              "internalType": "uint256",
              "name": "presaleStart",
              "type": "uint256"
            },
            {
              "internalType": "uint256",
              "name": "presaleEnd",
              "type": "uint256"
            },
            {
              "internalType": "uint256",
              "name": "saleStart",
              "type": "uint256"
            },
            {
              "internalType": "uint256",
              "name": "saleEnd",
              "type": "uint256"
            },
            {
              "internalType": "uint256",
              "name": "royaltyBPS",
              "type": "uint256"
            }
          ],
          "internalType": "struct EditionConfig",
          "name": "_editionConfig",
          "type": "tuple"
        },
        {
          "components": [
            {
              "internalType": "string",
              "name": "contractURI",
              "type": "string"
            },
            {
              "internalType": "string",
              "name": "metadataURI",
              "type": "string"
            },
            {
              "internalType": "bytes",
              "name": "metadataRendererInit",
              "type": "bytes"
            },
            {
              "internalType": "address",
              "name": "parentIP",
              "type": "address"
            }
          ],
          "internalType": "struct MetadataConfig",
          "name": "_metadataConfig",
          "type": "tuple"
        },
        {
          "components": [
            {
              "internalType": "address",
              "name": "tokenAddress",
              "type": "address"
            },
            {
              "internalType": "uint88",
              "name": "minBalance",
              "type": "uint88"
            },
            {
              "internalType": "enum SaleType",
              "name": "saleType",
              "type": "uint8"
            }
          ],
          "internalType": "struct TokenGateConfig",
          "name": "_tokenGateConfig",
          "type": "tuple"
        },
        {
          "internalType": "address",
          "name": "_metadataRenderer",
          "type": "address"
        },
        {
          "internalType": "address",
          "name": "_splitMain",
          "type": "address"
        }
      ],
      "name": "initialize",
      "outputs": [],
      "stateMutability": "nonpayable",
      "type": "function"
    },
    {
      "inputs": [
        {
          "internalType": "address",
          "name": "owner",
          "type": "address"
        },
        {
          "internalType": "address",
          "name": "operator",
          "type": "address"
        }
      ],
      "name": "isApprovedForAll",
      "outputs": [
        {
          "internalType": "bool",
          "name": "",
          "type": "bool"
        }
      ],
      "stateMutability": "view",
      "type": "function"
    },
    {
      "inputs": [],
      "name": "maxTokenPurchase",
      "outputs": [
        {
          "internalType": "uint256",
          "name": "",
          "type": "uint256"
        }
      ],
      "stateMutability": "view",
      "type": "function"
    },
    {
      "inputs": [],
      "name": "metadataRenderer",
      "outputs": [
        {
          "internalType": "address",
          "name": "",
          "type": "address"
        }
      ],
      "stateMutability": "view",
      "type": "function"
    },
    {
      "inputs": [
        {
          "internalType": "uint256",
          "name": "numberOfTokens",
          "type": "uint256"
        }
      ],
      "name": "mint",
      "outputs": [],
      "stateMutability": "payable",
      "type": "function"
    },
    {
      "inputs": [
        {
          "internalType": "address[]",
          "name": "recipients",
          "type": "address[]"
        }
      ],
      "name": "mintAirdrop",
      "outputs": [],
      "stateMutability": "nonpayable",
      "type": "function"
    },
    {
      "inputs": [
        {
          "internalType": "uint256",
          "name": "quantity",
          "type": "uint256"
        },
        {
          "internalType": "uint256",
          "name": "maxQuantity",
          "type": "uint256"
        },
        {
          "internalType": "uint256",
          "name": "pricePerToken",
          "type": "uint256"
        },
        {
          "internalType": "bytes32[]",
          "name": "merkleProof",
          "type": "bytes32[]"
        }
      ],
      "name": "mintPresale",
      "outputs": [],
      "stateMutability": "payable",
      "type": "function"
    },
    {
      "inputs": [],
      "name": "name",
      "outputs": [
        {
          "internalType": "string",
          "name": "",
          "type": "string"
        }
      ],
      "stateMutability": "view",
      "type": "function"
    },
    {
      "inputs": [],
      "name": "owner",
      "outputs": [
        {
          "internalType": "address",
          "name": "",
          "type": "address"
        }
      ],
      "stateMutability": "view",
      "type": "function"
    },
    {
      "inputs": [
        {
          "internalType": "uint256",
          "name": "tokenId",
          "type": "uint256"
        }
      ],
      "name": "ownerOf",
      "outputs": [
        {
          "internalType": "address",
          "name": "",
          "type": "address"
        }
      ],
      "stateMutability": "view",
      "type": "function"
    },
    {
      "inputs": [],
      "name": "parentIP",
      "outputs": [
        {
          "internalType": "address",
          "name": "",
          "type": "address"
        }
      ],
      "stateMutability": "view",
      "type": "function"
    },
    {
      "inputs": [],
      "name": "presaleEnd",
      "outputs": [
        {
          "internalType": "uint256",
          "name": "",
          "type": "uint256"
        }
      ],
      "stateMutability": "view",
      "type": "function"
    },
    {
      "inputs": [],
      "name": "presaleStart",
      "outputs": [
        {
          "internalType": "uint256",
          "name": "",
          "type": "uint256"
        }
      ],
      "stateMutability": "view",
      "type": "function"
    },
    {
      "inputs": [],
      "name": "renounceOwnership",
      "outputs": [],
      "stateMutability": "nonpayable",
      "type": "function"
    },
    {
      "inputs": [
        {
          "internalType": "uint256",
          "name": "numReserved",
          "type": "uint256"
        }
      ],
      "name": "reserveDCNT",
      "outputs": [],
      "stateMutability": "nonpayable",
      "type": "function"
    },
    {
      "inputs": [],
      "name": "royaltyBPS",
      "outputs": [
        {
          "internalType": "uint256",
          "name": "",
          "type": "uint256"
        }
      ],
      "stateMutability": "view",
      "type": "function"
    },
    {
      "inputs": [
        {
          "internalType": "uint256",
          "name": "tokenId",
          "type": "uint256"
        },
        {
          "internalType": "uint256",
          "name": "salePrice",
          "type": "uint256"
        }
      ],
      "name": "royaltyInfo",
      "outputs": [
        {
          "internalType": "address",
          "name": "receiver",
          "type": "address"
        },
        {
          "internalType": "uint256",
          "name": "royaltyAmount",
          "type": "uint256"
        }
      ],
      "stateMutability": "view",
      "type": "function"
    },
    {
      "inputs": [
        {
          "internalType": "address",
          "name": "from",
          "type": "address"
        },
        {
          "internalType": "address",
          "name": "to",
          "type": "address"
        },
        {
          "internalType": "uint256",
          "name": "tokenId",
          "type": "uint256"
        }
      ],
      "name": "safeTransferFrom",
      "outputs": [],
      "stateMutability": "nonpayable",
      "type": "function"
    },
    {
      "inputs": [
        {
          "internalType": "address",
          "name": "from",
          "type": "address"
        },
        {
          "internalType": "address",
          "name": "to",
          "type": "address"
        },
        {
          "internalType": "uint256",
          "name": "tokenId",
          "type": "uint256"
        },
        {
          "internalType": "bytes",
          "name": "_data",
          "type": "bytes"
        }
      ],
      "name": "safeTransferFrom",
      "outputs": [],
      "stateMutability": "nonpayable",
      "type": "function"
    },
    {
      "inputs": [],
      "name": "saleEnd",
      "outputs": [
        {
          "internalType": "uint256",
          "name": "",
          "type": "uint256"
        }
      ],
      "stateMutability": "view",
      "type": "function"
    },
    {
      "inputs": [],
      "name": "saleIsActive",
      "outputs": [
        {
          "internalType": "bool",
          "name": "_saleIsActive",
          "type": "bool"
        }
      ],
      "stateMutability": "view",
      "type": "function"
    },
    {
      "inputs": [],
      "name": "saleIsPaused",
      "outputs": [
        {
          "internalType": "bool",
          "name": "",
          "type": "bool"
        }
      ],
      "stateMutability": "view",
      "type": "function"
    },
    {
      "inputs": [],
      "name": "saleStart",
      "outputs": [
        {
          "internalType": "uint256",
          "name": "",
          "type": "uint256"
        }
      ],
      "stateMutability": "view",
      "type": "function"
    },
    {
      "inputs": [
        {
          "internalType": "address",
          "name": "operator",
          "type": "address"
        },
        {
          "internalType": "bool",
          "name": "approved",
          "type": "bool"
        }
      ],
      "name": "setApprovalForAll",
      "outputs": [],
      "stateMutability": "nonpayable",
      "type": "function"
    },
    {
      "inputs": [
        {
          "internalType": "string",
          "name": "uri",
          "type": "string"
        }
      ],
      "name": "setBaseURI",
      "outputs": [],
      "stateMutability": "nonpayable",
      "type": "function"
    },
    {
      "inputs": [
        {
          "internalType": "string",
          "name": "uri",
          "type": "string"
        }
      ],
      "name": "setContractURI",
      "outputs": [],
      "stateMutability": "nonpayable",
      "type": "function"
    },
    {
      "inputs": [
        {
          "internalType": "address",
          "name": "_metadataRenderer",
          "type": "address"
        }
      ],
      "name": "setMetadataRenderer",
      "outputs": [],
      "stateMutability": "nonpayable",
      "type": "function"
    },
    {
      "inputs": [
        {
          "internalType": "bytes32",
          "name": "_presaleMerkleRoot",
          "type": "bytes32"
        }
      ],
      "name": "setPresaleMerkleRoot",
      "outputs": [],
      "stateMutability": "nonpayable",
      "type": "function"
    },
    {
      "inputs": [],
      "name": "splitMain",
      "outputs": [
        {
          "internalType": "address",
          "name": "",
          "type": "address"
        }
      ],
      "stateMutability": "view",
      "type": "function"
    },
    {
      "inputs": [],
      "name": "splitWallet",
      "outputs": [
        {
          "internalType": "address",
          "name": "",
          "type": "address"
        }
      ],
      "stateMutability": "view",
      "type": "function"
    },
    {
      "inputs": [
        {
          "internalType": "bytes4",
          "name": "interfaceId",
          "type": "bytes4"
        }
      ],
      "name": "supportsInterface",
      "outputs": [
        {
          "internalType": "bool",
          "name": "",
          "type": "bool"
        }
      ],
      "stateMutability": "view",
      "type": "function"
    },
    {
      "inputs": [],
      "name": "symbol",
      "outputs": [
        {
          "internalType": "string",
          "name": "",
          "type": "string"
        }
      ],
      "stateMutability": "view",
      "type": "function"
    },
    {
      "inputs": [],
      "name": "tokenGateConfig",
      "outputs": [
        {
          "internalType": "address",
          "name": "tokenAddress",
          "type": "address"
        },
        {
          "internalType": "uint88",
          "name": "minBalance",
          "type": "uint88"
        },
        {
          "internalType": "enum SaleType",
          "name": "saleType",
          "type": "uint8"
        }
      ],
      "stateMutability": "view",
      "type": "function"
    },
    {
      "inputs": [],
      "name": "tokenPrice",
      "outputs": [
        {
          "internalType": "uint256",
          "name": "",
          "type": "uint256"
        }
      ],
      "stateMutability": "view",
      "type": "function"
    },
    {
      "inputs": [
        {
          "internalType": "uint256",
          "name": "tokenId",
          "type": "uint256"
        }
      ],
      "name": "tokenURI",
      "outputs": [
        {
          "internalType": "string",
          "name": "",
          "type": "string"
        }
      ],
      "stateMutability": "view",
      "type": "function"
    },
    {
      "inputs": [],
      "name": "totalSupply",
      "outputs": [
        {
          "internalType": "uint256",
          "name": "",
          "type": "uint256"
        }
      ],
      "stateMutability": "view",
      "type": "function"
    },
    {
      "inputs": [
        {
          "internalType": "address",
          "name": "from",
          "type": "address"
        },
        {
          "internalType": "address",
          "name": "to",
          "type": "address"
        },
        {
          "internalType": "uint256",
          "name": "tokenId",
          "type": "uint256"
        }
      ],
      "name": "transferFrom",
      "outputs": [],
      "stateMutability": "nonpayable",
      "type": "function"
    },
    {
      "inputs": [
        {
          "internalType": "address",
          "name": "newOwner",
          "type": "address"
        }
      ],
      "name": "transferOwnership",
      "outputs": [],
      "stateMutability": "nonpayable",
      "type": "function"
    },
    {
      "inputs": [
        {
          "internalType": "uint256",
          "name": "transferETH",
          "type": "uint256"
        },
        {
          "internalType": "contract ERC20[]",
          "name": "tokens",
          "type": "address[]"
        }
      ],
      "name": "transferToSplit",
      "outputs": [],
      "stateMutability": "nonpayable",
      "type": "function"
    },
    {
      "inputs": [
        {
          "internalType": "uint256",
          "name": "newStart",
          "type": "uint256"
        }
      ],
      "name": "updateSaleStart",
      "outputs": [],
      "stateMutability": "nonpayable",
      "type": "function"
    },
    {
      "inputs": [],
      "name": "withdraw",
      "outputs": [],
      "stateMutability": "nonpayable",
      "type": "function"
    }
  ],
  "bytecode": "0x60806040523480156200001157600080fd5b506200001d3362000023565b6200007f565b600980546001600160a01b038381166201000081810262010000600160b01b031985161790945560405193909204169182907f8be0079c531659141344cd1fd0a4f28419497f9722a3daafe3b4186f6b6457e090600090a35050565b613ca5806200008f6000396000f3fe6080604052600436106103345760003560e01c8063727a612e116101ab578063c4559d5a116100f7578063e8a3d48511610095578063f0cc8b621161006f578063f0cc8b6214610977578063f2fde38b14610997578063f47c84c5146109b7578063fd4fe8a8146109cd57600080fd5b8063e8a3d48514610904578063e985e9c514610919578063eb8d24441461096257600080fd5b8063c9ef5eee116100d1578063c9ef5eee14610894578063d58d458a146108b4578063de8801e5146108d4578063e6c350c1146108ea57600080fd5b8063c4559d5a14610834578063c595317014610854578063c87b56dd1461087457600080fd5b806395d89b4111610164578063ab0bcc411161013e578063ab0bcc41146107d2578063b88d4fde146107e8578063b9c9d93a14610808578063c10b93581461081e57600080fd5b806395d89b411461078a578063a0712d681461079f578063a22cb465146107b257600080fd5b8063727a612e146106dc57806379ab7c8e146106ef5780637ff9b5961461070f5780638da5cb5b14610725578063931cf0f414610749578063938e3d7b1461076a57600080fd5b806328d7b276116102855780636352211e1161022357806370319970116101fd578063703199701461066757806370a0823114610687578063713b9787146106a7578063715018a6146106c757600080fd5b80636352211e146106125780636c0360eb146106325780636c1951ae1461064757600080fd5b80633ccfd60b1161025f5780633ccfd60b1461059d57806342842e0e146105b2578063435fe1b5146105d257806355f804b3146105f257600080fd5b806328d7b276146105295780632a55205a1461054957806334918dfd1461058857600080fd5b806309aa3dcf116102f25780631dbdedbd116102cc5780631dbdedbd14610487578063229f3e29146104d357806323b872dd146104e9578063284a44a81461050957600080fd5b806309aa3dcf1461042a5780630e769b2b1461044e57806318160ddd1461046e57600080fd5b80625f16fb14610339578063015893c51461035b57806301ffc9a71461037b57806306fdde03146103b0578063081812fc146103d2578063095ea7b31461040a575b600080fd5b34801561034557600080fd5b50610359610354366004612d73565b6109ed565b005b34801561036757600080fd5b50610359610376366004612e1a565b610acb565b34801561038757600080fd5b5061039b610396366004612eb0565b610c55565b60405190151581526020015b60405180910390f35b3480156103bc57600080fd5b506103c5610c80565b6040516103a79190612f25565b3480156103de57600080fd5b506103f26103ed366004612f38565b610d12565b6040516001600160a01b0390911681526020016103a7565b34801561041657600080fd5b50610359610425366004612f51565b610d56565b34801561043657600080fd5b50610440600c5481565b6040519081526020016103a7565b34801561045a57600080fd5b506017546103f2906001600160a01b031681565b34801561047a57600080fd5b5060015460005403610440565b34801561049357600080fd5b506008546104c4906001600160a01b03811690600160a01b81046001600160581b031690600160f81b900460ff1683565b6040516103a793929190612f93565b3480156104df57600080fd5b5061044060155481565b3480156104f557600080fd5b50610359610504366004612fde565b610df6565b34801561051557600080fd5b50610359610524366004613116565b610f84565b34801561053557600080fd5b50610359610544366004612f38565b61102e565b34801561055557600080fd5b506105696105643660046131ea565b61103b565b604080516001600160a01b0390931683526020830191909152016103a7565b34801561059457600080fd5b506103596110e8565b3480156105a957600080fd5b50610359611104565b3480156105be57600080fd5b506103596105cd366004612fde565b611212565b3480156105de57600080fd5b506103596105ed366004612f38565b611232565b3480156105fe57600080fd5b5061035961060d366004613289565b61123f565b34801561061e57600080fd5b506103f261062d366004612f38565b61125e565b34801561063e57600080fd5b506103c5611269565b34801561065357600080fd5b50610359610662366004612f38565b6112f7565b34801561067357600080fd5b506012546103f2906001600160a01b031681565b34801561069357600080fd5b506104406106a23660046132bd565b611367565b3480156106b357600080fd5b506018546103f2906001600160a01b031681565b3480156106d357600080fd5b506103596113b5565b6103596106ea3660046132da565b6113c9565b3480156106fb57600080fd5b5061035961070a36600461333a565b6117d4565b34801561071b57600080fd5b50610440600b5481565b34801561073157600080fd5b506009546201000090046001600160a01b03166103f2565b34801561075557600080fd5b5060095461039b90600160b01b900460ff1681565b34801561077657600080fd5b50610359610785366004613289565b61185b565b34801561079657600080fd5b506103c5611876565b6103596107ad366004612f38565b611885565b3480156107be57600080fd5b506103596107cd36600461338f565b611c18565b3480156107de57600080fd5b50610440600d5481565b3480156107f457600080fd5b506103596108033660046133c8565b611cae565b34801561081457600080fd5b5061044060135481565b34801561082a57600080fd5b50610440600e5481565b34801561084057600080fd5b5061035961084f366004613433565b611cf2565b34801561086057600080fd5b5061035961086f3660046134c6565b611dc3565b34801561088057600080fd5b506103c561088f366004612f38565b611eb7565b3480156108a057600080fd5b506103596108af36600461364e565b611f79565b3480156108c057600080fd5b506103596108cf366004612f38565b612292565b3480156108e057600080fd5b5061044060145481565b3480156108f657600080fd5b50600f5461039b9060ff1681565b34801561091057600080fd5b506103c5612354565b34801561092557600080fd5b5061039b6109343660046137bf565b6001600160a01b03918216600090815260076020908152604080832093909416825291909152205460ff1690565b34801561096e57600080fd5b5061039b612403565b34801561098357600080fd5b506019546103f2906001600160a01b031681565b3480156109a357600080fd5b506103596109b23660046132bd565b61241d565b3480156109c357600080fd5b50610440600a5481565b3480156109d957600080fd5b506103596109e83660046132bd565b612493565b6000610a016018546001600160a01b031690565b6001600160a01b03161415610a315760405162461bcd60e51b8152600401610a28906137ed565b60405180910390fd5b610a3a876124bd565b6017546001600160a01b03166001600160a01b03166315811302610a666018546001600160a01b031690565b898989898989896040518963ffffffff1660e01b8152600401610a9098979695949392919061389e565b600060405180830381600087803b158015610aaa57600080fd5b505af1158015610abe573d6000803e3d6000fd5b5050505050505050505050565b610ad36125da565b6000610ae76017546001600160a01b031690565b6001600160a01b03161415610b325760405162461bcd60e51b815260206004820152601160248201527014dc1b1a5d13585a5b881b9bdd081cd95d607a1b6044820152606401610a28565b6000610b466018546001600160a01b031690565b6001600160a01b031614610b945760405162461bcd60e51b815260206004820152601560248201527414dc1b1a5d08185b1c9958591e4818dc99585d1959605a1b6044820152606401610a28565b6000610ba86017546001600160a01b031690565b6001600160a01b0316637601f7828787878787336040518763ffffffff1660e01b8152600401610bdd96959493929190613900565b602060405180830381600087803b158015610bf757600080fd5b505af1158015610c0b573d6000803e3d6000fd5b505050506040513d601f19601f82011682018060405250810190610c2f9190613951565b601880546001600160a01b0319166001600160a01b03831617905590505b505050505050565b600063152a902d60e11b6001600160e01b031983161480610c7a5750610c7a8261263b565b92915050565b606060028054610c8f9061396e565b80601f0160208091040260200160405190810160405280929190818152602001828054610cbb9061396e565b8015610d085780601f10610cdd57610100808354040283529160200191610d08565b820191906000526020600020905b815481529060010190602001808311610ceb57829003601f168201915b5050505050905090565b6000610d1d82612689565b610d3a576040516333d1c03960e21b815260040160405180910390fd5b506000908152600660205260409020546001600160a01b031690565b6000610d618261125e565b9050336001600160a01b03821614610d9a57610d7d8133610934565b610d9a576040516367d9dca160e11b815260040160405180910390fd5b60008281526006602052604080822080546001600160a01b0319166001600160a01b0387811691821790925591518593918516917f8c5be1e5ebec7d5bd14f71427d1e84f3dd0314c0f7b2291e5b200ac8c7c3b92591a4505050565b6000610e01826126b0565b9050836001600160a01b0316816001600160a01b031614610e345760405162a1148160e81b815260040160405180910390fd5b60008281526006602052604090208054338082146001600160a01b03881690911417610e8157610e648633610934565b610e8157604051632ce44b5f60e11b815260040160405180910390fd5b6001600160a01b038516610ea857604051633a954ecd60e21b815260040160405180910390fd5b8015610eb357600082555b6001600160a01b038681166000908152600560205260408082208054600019019055918716808252919020805460010190554260a01b17600160e11b17600085815260046020526040902055600160e11b8316610f3e5760018401600081815260046020526040902054610f3c576000548114610f3c5760008181526004602052604090208490555b505b83856001600160a01b0316876001600160a01b03167fddf252ad1be2c89b69c2b068fc378daa952ba7f163c4a11628f55a4df523b3ef60405160405180910390a4610c4d565b6000610f986018546001600160a01b031690565b6001600160a01b03161415610fbf5760405162461bcd60e51b8152600401610a28906137ed565b8715610fd357610fd3868686868686611cf2565b60005b875181101561101757611007888281518110610ff457610ff46139a9565b60200260200101518888888888886109ed565b611010816139d5565b9050610fd6565b50611023898989612718565b505050505050505050565b6110366125da565b601655565b60008061104784612689565b6110875760405162461bcd60e51b81526020600482015260116024820152702737b732bc34b9ba32b73a103a37b5b2b760791b6044820152606401610a28565b6018546001600160a01b0316156110ab576018546001600160a01b031691506110c0565b6009546201000090046001600160a01b031691505b6000612710601354856110d391906139f0565b6110dd9190613a0f565b9150505b9250929050565b6110f06125da565b600f805460ff19811660ff90911615179055565b61110c6125da565b60006111206018546001600160a01b031690565b6001600160a01b0316146111825760405162461bcd60e51b8152602060048201526024808201527f43616e6e6f74207769746864726177207769746820616e2061637469766520736044820152631c1b1a5d60e21b6064820152608401610a28565b604051600090339047908381818185875af1925050503d80600081146111c4576040519150601f19603f3d011682016040523d82523d6000602084013e6111c9565b606091505b505090508061120f5760405162461bcd60e51b8152602060048201526012602482015271436f756c64206e6f7420776974686472617760701b6044820152606401610a28565b50565b61122d83838360405180602001604052806000815250611cae565b505050565b61123a6125da565b600d55565b6112476125da565b805161125a906010906020840190612c5d565b5050565b6000610c7a826126b0565b601080546112769061396e565b80601f01602080910402602001604051908101604052809291908181526020018280546112a29061396e565b80156112ef5780601f106112c4576101008083540402835291602001916112ef565b820191906000526020600020905b8154815290600101906020018083116112d257829003601f168201915b505050505081565b6112ff6125da565b600054600a5461130f8383613a31565b1061132c5760405162461bcd60e51b8152600401610a2890613a49565b60005b8281101561122d57611355336113458385613a31565b611350906001613a31565b61277a565b8061135f816139d5565b91505061132f565b60006001600160a01b038216611390576040516323d3ad8160e21b815260040160405180910390fd5b506001600160a01b03166000908152600560205260409020546001600160401b031690565b6113bd6125da565b6113c76000612794565b565b6008546001906001600160a01b03161580159061143257506000600854600160f81b900460ff16600281111561140157611401612f7d565b1480611432575080801561143257506001600854600160f81b900460ff16600281111561143057611430612f7d565b145b8061146357508015801561146357506002600854600160f81b900460ff16600281111561146157611461612f7d565b145b1561153e576008546040516370a0823160e01b8152336004820152600160a01b82046001600160581b0316916001600160a01b0316906370a0823190602401602060405180830381600087803b1580156114bc57600080fd5b505af11580156114d0573d6000803e3d6000fd5b505050506040513d601f19601f820116820180604052508101906114f49190613a7e565b101561153e5760405162461bcd60e51b81526020600482015260196024820152783237903737ba1037bbb7103932b8bab4b932b2103a37b5b2b760391b6044820152606401610a28565b601454421015801561155257506015544211155b61158c5760405162461bcd60e51b815260206004820152600b60248201526a6e6f742070726573616c6560a81b6044820152606401610a28565b600054600f5460ff16156115e25760405162461bcd60e51b815260206004820152601b60248201527f53616c65206d7573742062652061637469766520746f206d696e7400000000006044820152606401610a28565b600a546115ef8883613a31565b111561160d5760405162461bcd60e51b8152600401610a2890613a49565b611690848480806020026020016040519081016040528093929190818152602001838360200280828437600092019190915250506016546040516bffffffffffffffffffffffff193360601b166020820152603481018c9052605481018b90529092506074019050604051602081830303815290604052805190602001206127f0565b6116cb5760405162461bcd60e51b815260206004820152600c60248201526b1b9bdd08185c1c1c9bdd995960a21b6044820152606401610a28565b6116d587866139f0565b3410156117195760405162461bcd60e51b8152602060048201526012602482015271496e73756666696369656e742066756e647360701b6044820152606401610a28565b858761172433611367565b61172e9190613a31565b111561176e5760405162461bcd60e51b815260206004820152600f60248201526e6d696e74656420746f6f206d616e7960881b6044820152606401610a28565b611778338861277a565b60005b878110156117ca5760408051338152602081018490526001909301927f30385c845b448a36257a6a1716e6ad2e1bc2cbe333cde1e69fe849ad6511adfe910160405180910390a160010161177b565b5050505050505050565b60006117e86018546001600160a01b031690565b6001600160a01b0316141561180f5760405162461bcd60e51b8152600401610a28906137ed565b811561181d5761181d612806565b60005b815181101561122d5761184b82828151811061183e5761183e6139a9565b60200260200101516124bd565b611854816139d5565b9050611820565b6118636125da565b805161125a906011906020840190612c5d565b606060038054610c8f9061396e565b6008546000906001600160a01b0316158015906118ee57506000600854600160f81b900460ff1660028111156118bd576118bd612f7d565b14806118ee57508080156118ee57506001600854600160f81b900460ff1660028111156118ec576118ec612f7d565b145b8061191f57508015801561191f57506002600854600160f81b900460ff16600281111561191d5761191d612f7d565b145b156119fa576008546040516370a0823160e01b8152336004820152600160a01b82046001600160581b0316916001600160a01b0316906370a0823190602401602060405180830381600087803b15801561197857600080fd5b505af115801561198c573d6000803e3d6000fd5b505050506040513d601f19601f820116820180604052508101906119b09190613a7e565b10156119fa5760405162461bcd60e51b81526020600482015260196024820152783237903737ba1037bbb7103932b8bab4b932b2103a37b5b2b760391b6044820152606401610a28565b600054600d54421015611a4f5760405162461bcd60e51b815260206004820152601960248201527f53616c657320617265206e6f7420616374697665207965742e000000000000006044820152606401610a28565b600f5460ff1615611aa25760405162461bcd60e51b815260206004820152601b60248201527f53616c65206d7573742062652061637469766520746f206d696e7400000000006044820152606401610a28565b600a54611aaf8483613a31565b1115611acd5760405162461bcd60e51b8152600401610a2890613a49565b600a54811115611b0a5760405162461bcd60e51b815260206004820152600860248201526714d3d3110813d55560c21b6044820152606401610a28565b82600b54611b1891906139f0565b341015611b5c5760405162461bcd60e51b8152602060048201526012602482015271496e73756666696369656e742066756e647360701b6044820152606401610a28565b600c5415611bb657600c54831115611bb65760405162461bcd60e51b815260206004820152601c60248201527f4578636565646564206d6178206e756d62657220706572206d696e74000000006044820152606401610a28565b611bc0338461277a565b60005b83811015611c125760408051338152602081018490526001909301927f30385c845b448a36257a6a1716e6ad2e1bc2cbe333cde1e69fe849ad6511adfe910160405180910390a1600101611bc3565b50505050565b6001600160a01b038216331415611c425760405163b06307db60e01b815260040160405180910390fd5b3360008181526007602090815260408083206001600160a01b03871680855290835292819020805460ff191686151590811790915590519081529192917f17307eab39ab6107e8899845ad3d59bd9653f200f220920489ca2b5937696c31910160405180910390a35050565b611cb9848484610df6565b6001600160a01b0383163b15611c1257611cd5848484846128ba565b611c12576040516368d2bf6b60e11b815260040160405180910390fd5b6000611d066018546001600160a01b031690565b6001600160a01b03161415611d2d5760405162461bcd60e51b8152600401610a28906137ed565b611d35612806565b6017546001600160a01b03166001600160a01b031663e61cb05e611d616018546001600160a01b031690565b8888888888886040518863ffffffff1660e01b8152600401611d899796959493929190613a97565b600060405180830381600087803b158015611da357600080fd5b505af1158015611db7573d6000803e3d6000fd5b50505050505050505050565b611dcb6125da565b600054600a548190611ddd8483613a31565b1115611dfb5760405162461bcd60e51b8152600401610a2890613a49565b8183015b80831015611eb057611e3a8585848603818110611e1e57611e1e6139a9565b9050602002016020810190611e3391906132bd565b600161277a565b7f30385c845b448a36257a6a1716e6ad2e1bc2cbe333cde1e69fe849ad6511adfe8585848603818110611e6f57611e6f6139a9565b9050602002016020810190611e8491906132bd565b604080516001600160a01b039092168252602082018690520160405180910390a1600190920191611dff565b5050505050565b6060611ec282612689565b611edf57604051630a14c4b560e41b815260040160405180910390fd5b6012546001600160a01b031615611f705760125460405163c87b56dd60e01b8152600481018490526001600160a01b039091169063c87b56dd9060240160006040518083038186803b158015611f3457600080fd5b505afa158015611f48573d6000803e3d6000fd5b505050506040513d6000823e601f3d908101601f19168201604052610c7a9190810190613af0565b610c7a826129b2565b600954610100900460ff1615808015611f995750600954600160ff909116105b80611fb35750303b158015611fb3575060095460ff166001145b6120165760405162461bcd60e51b815260206004820152602e60248201527f496e697469616c697a61626c653a20636f6e747261637420697320616c72656160448201526d191e481a5b9a5d1a585b1a5e995960921b6064820152608401610a28565b6009805460ff191660011790558015612039576009805461ff0019166101001790555b61204287612794565b8551805161205891600291602090910190612c5d565b50602080870151805161206f926003920190612c5d565b5060008055606080870151600a556080870151600b5560a0870151600c55610120870151600d55610140870151600e5561016087015160135560408088015160098054911515600160b01b0260ff60b01b1990921691909117905590860151601980546001600160a01b039283166001600160a01b03199182161790915560178054868416921691909117905585516008805460208901516001600160581b0316600160a01b026001600160f81b031990911692909316919091179190911780825591860151869282906001600160f81b0316600160f81b83600281111561215957612159612f7d565b0217905550505060c086015160165560e08601516014556101008601516015556001600160a01b0383161580159061219657506000856040015151115b1561221457601280546001600160a01b0319166001600160a01b03851690811790915560408681015190516342b53ffd60e11b815263856a7ffa916121dd91600401612f25565b600060405180830381600087803b1580156121f757600080fd5b505af115801561220b573d6000803e3d6000fd5b50505050612243565b8451805161222a91601191602090910190612c5d565b506020808601518051612241926010920190612c5d565b505b8015612289576009805461ff0019169055604051600181527f7f26b83ff96e1f2b6a682f133852f6798a09c465da95921460cefb38474024989060200160405180910390a15b50505050505050565b61229a6125da565b600954600160b01b900460ff166123015760405162461bcd60e51b815260206004820152602560248201527f63616e6e6f742061646a7573742073697a65206f66207468697320636f6c6c6560448201526431ba34b7b760d91b6064820152608401610a28565b8061230b60005490565b111561234f5760405162461bcd60e51b8152602060048201526013602482015272063616e6e6f742064656372656173652063617606c1b6044820152606401610a28565b600a55565b6012546060906001600160a01b03166123745760118054610c8f9061396e565b601260009054906101000a90046001600160a01b03166001600160a01b031663e8a3d4856040518163ffffffff1660e01b815260040160006040518083038186803b1580156123c257600080fd5b505afa1580156123d6573d6000803e3d6000fd5b505050506040513d6000823e601f3d908101601f191682016040526123fe9190810190613af0565b905090565b6000600d5442101580156123fe575050600f5460ff161590565b6124256125da565b6001600160a01b03811661248a5760405162461bcd60e51b815260206004820152602660248201527f4f776e61626c653a206e6577206f776e657220697320746865207a65726f206160448201526564647265737360d01b6064820152608401610a28565b61120f81612794565b61249b6125da565b601280546001600160a01b0319166001600160a01b0392909216919091179055565b6040516370a0823160e01b81523060048201526000906001600160a01b038316906370a082319060240160206040518083038186803b1580156124ff57600080fd5b505afa158015612513573d6000803e3d6000fd5b505050506040513d601f19601f820116820180604052508101906125379190613a7e565b9050816001600160a01b031663a9059cbb61255a6018546001600160a01b031690565b6040516001600160e01b031960e084901b1681526001600160a01b03909116600482015260248101849052604401602060405180830381600087803b1580156125a257600080fd5b505af11580156125b6573d6000803e3d6000fd5b505050506040513d601f19601f8201168201806040525081019061122d9190613b66565b6009546001600160a01b03620100009091041633146113c75760405162461bcd60e51b815260206004820181905260248201527f4f776e61626c653a2063616c6c6572206973206e6f7420746865206f776e65726044820152606401610a28565b60006301ffc9a760e01b6001600160e01b03198316148061266c57506380ac58cd60e01b6001600160e01b03198316145b80610c7a5750506001600160e01b031916635b5e139f60e01b1490565b6000805482108015610c7a575050600090815260046020526040902054600160e01b161590565b6000816000548110156126ff57600081815260046020526040902054600160e01b81166126fd575b806126f65750600019016000818152600460205260409020546126d8565b9392505050565b505b604051636f96cda160e11b815260040160405180910390fd5b601754604051636e5f691960e01b81526001600160a01b0390911690636e5f69199061274c90869086908690600401613b83565b600060405180830381600087803b15801561276657600080fd5b505af1158015612289573d6000803e3d6000fd5b61125a828260405180602001604052806000815250612a36565b600980546001600160a01b038381166201000081810262010000600160b01b031985161790945560405193909204169182907f8be0079c531659141344cd1fd0a4f28419497f9722a3daafe3b4186f6b6457e090600090a35050565b6000826127fd8584612a9c565b14949350505050565b600061281a6018546001600160a01b031690565b6001600160a01b03164760405160006040518083038185875af1925050503d8060008114612864576040519150601f19603f3d011682016040523d82523d6000602084013e612869565b606091505b505090508061120f5760405162461bcd60e51b815260206004820152601f60248201527f436f756c64206e6f74207472616e736665722045544820746f2073706c6974006044820152606401610a28565b604051630a85bd0160e11b81526000906001600160a01b0385169063150b7a02906128ef903390899088908890600401613be6565b602060405180830381600087803b15801561290957600080fd5b505af1925050508015612939575060408051601f3d908101601f1916820190925261293691810190613c23565b60015b612994573d808015612967576040519150601f19603f3d011682016040523d82523d6000602084013e61296c565b606091505b50805161298c576040516368d2bf6b60e11b815260040160405180910390fd5b805181602001fd5b6001600160e01b031916630a85bd0160e11b1490505b949350505050565b60606129bd82612689565b6129da57604051630a14c4b560e41b815260040160405180910390fd5b60006129e4612ae9565b9050805160001415612a0557604051806020016040528060008152506126f6565b80612a0f84612af8565b604051602001612a20929190613c40565b6040516020818303038152906040529392505050565b612a408383612b3a565b6001600160a01b0383163b1561122d576000548281035b612a6a60008683806001019450866128ba565b612a87576040516368d2bf6b60e11b815260040160405180910390fd5b818110612a57578160005414611eb057600080fd5b600081815b8451811015612ae157612acd82868381518110612ac057612ac06139a9565b6020026020010151612c31565b915080612ad9816139d5565b915050612aa1565b509392505050565b606060108054610c8f9061396e565b604080516080019081905280825b600183039250600a81066030018353600a900480612b2357612b28565b612b06565b50819003601f19909101908152919050565b60005481612b5b5760405163b562e8dd60e01b815260040160405180910390fd5b6001600160a01b03831660008181526005602090815260408083208054680100000000000000018802019055848352600490915281206001851460e11b4260a01b178317905582840190839083907fddf252ad1be2c89b69c2b068fc378daa952ba7f163c4a11628f55a4df523b3ef8180a4600183015b818114612c0a57808360007fddf252ad1be2c89b69c2b068fc378daa952ba7f163c4a11628f55a4df523b3ef600080a4600101612bd2565b5081612c2857604051622e076360e81b815260040160405180910390fd5b60005550505050565b6000818310612c4d5760008281526020849052604090206126f6565b5060009182526020526040902090565b828054612c699061396e565b90600052602060002090601f016020900481019282612c8b5760008555612cd1565b82601f10612ca457805160ff1916838001178555612cd1565b82800160010185558215612cd1579182015b82811115612cd1578251825591602001919060010190612cb6565b50612cdd929150612ce1565b5090565b5b80821115612cdd5760008155600101612ce2565b6001600160a01b038116811461120f57600080fd5b60008083601f840112612d1d57600080fd5b5081356001600160401b03811115612d3457600080fd5b6020830191508360208260051b85010111156110e157600080fd5b803563ffffffff81168114612d6357600080fd5b919050565b8035612d6381612cf6565b600080600080600080600060a0888a031215612d8e57600080fd5b8735612d9981612cf6565b965060208801356001600160401b0380821115612db557600080fd5b612dc18b838c01612d0b565b909850965060408a0135915080821115612dda57600080fd5b50612de78a828b01612d0b565b9095509350612dfa905060608901612d4f565b91506080880135612e0a81612cf6565b8091505092959891949750929550565b600080600080600060608688031215612e3257600080fd5b85356001600160401b0380821115612e4957600080fd5b612e5589838a01612d0b565b90975095506020880135915080821115612e6e57600080fd5b50612e7b88828901612d0b565b9094509250612e8e905060408701612d4f565b90509295509295909350565b6001600160e01b03198116811461120f57600080fd5b600060208284031215612ec257600080fd5b81356126f681612e9a565b60005b83811015612ee8578181015183820152602001612ed0565b83811115611c125750506000910152565b60008151808452612f11816020860160208601612ecd565b601f01601f19169290920160200192915050565b6020815260006126f66020830184612ef9565b600060208284031215612f4a57600080fd5b5035919050565b60008060408385031215612f6457600080fd5b8235612f6f81612cf6565b946020939093013593505050565b634e487b7160e01b600052602160045260246000fd5b6001600160a01b03841681526001600160581b03831660208201526060810160038310612fd057634e487b7160e01b600052602160045260246000fd5b826040830152949350505050565b600080600060608486031215612ff357600080fd5b8335612ffe81612cf6565b9250602084013561300e81612cf6565b929592945050506040919091013590565b634e487b7160e01b600052604160045260246000fd5b60405161018081016001600160401b03811182821017156130585761305861301f565b60405290565b604051601f8201601f191681016001600160401b03811182821017156130865761308661301f565b604052919050565b600082601f83011261309f57600080fd5b813560206001600160401b038211156130ba576130ba61301f565b8160051b6130c982820161305e565b92835284810182019282810190878511156130e357600080fd5b83870192505b8483101561310b5782356130fc81612cf6565b825291830191908301906130e9565b979650505050505050565b600080600080600080600080600060e08a8c03121561313457600080fd5b893561313f81612cf6565b985060208a0135975060408a01356001600160401b038082111561316257600080fd5b61316e8d838e0161308e565b985060608c013591508082111561318457600080fd5b6131908d838e01612d0b565b909850965060808c01359150808211156131a957600080fd5b506131b68c828d01612d0b565b90955093506131c9905060a08b01612d4f565b915060c08a01356131d981612cf6565b809150509295985092959850929598565b600080604083850312156131fd57600080fd5b50508035926020909101359150565b60006001600160401b038211156132255761322561301f565b50601f01601f191660200190565b600082601f83011261324457600080fd5b81356132576132528261320c565b61305e565b81815284602083860101111561326c57600080fd5b816020850160208301376000918101602001919091529392505050565b60006020828403121561329b57600080fd5b81356001600160401b038111156132b157600080fd5b6129aa84828501613233565b6000602082840312156132cf57600080fd5b81356126f681612cf6565b6000806000806000608086880312156132f257600080fd5b85359450602086013593506040860135925060608601356001600160401b0381111561331d57600080fd5b61332988828901612d0b565b969995985093965092949392505050565b6000806040838503121561334d57600080fd5b8235915060208301356001600160401b0381111561336a57600080fd5b6110dd8582860161308e565b801515811461120f57600080fd5b8035612d6381613376565b600080604083850312156133a257600080fd5b82356133ad81612cf6565b915060208301356133bd81613376565b809150509250929050565b600080600080608085870312156133de57600080fd5b84356133e981612cf6565b935060208501356133f981612cf6565b92506040850135915060608501356001600160401b0381111561341b57600080fd5b61342787828801613233565b91505092959194509250565b6000806000806000806080878903121561344c57600080fd5b86356001600160401b038082111561346357600080fd5b61346f8a838b01612d0b565b9098509650602089013591508082111561348857600080fd5b5061349589828a01612d0b565b90955093506134a8905060408801612d4f565b915060608701356134b881612cf6565b809150509295509295509295565b600080602083850312156134d957600080fd5b82356001600160401b038111156134ef57600080fd5b6134fb85828601612d0b565b90969095509350505050565b60006080828403121561351957600080fd5b604051608081016001600160401b03828210818311171561353c5761353c61301f565b81604052829350843591508082111561355457600080fd5b61356086838701613233565b8352602085013591508082111561357657600080fd5b61358286838701613233565b6020840152604085013591508082111561359b57600080fd5b506135a885828601613233565b60408301525060608301356135bc81612cf6565b6060919091015292915050565b6000606082840312156135db57600080fd5b604051606081018181106001600160401b03821117156135fd576135fd61301f565b604052905080823561360e81612cf6565b815260208301356001600160581b038116811461362a57600080fd5b602082015260408301356003811061364157600080fd5b6040919091015292915050565b60008060008060008061010080888a03121561366957600080fd5b873561367481612cf6565b965060208801356001600160401b038082111561369057600080fd5b90890190610180828c0312156136a557600080fd5b6136ad613035565b8235828111156136bc57600080fd5b6136c88d828601613233565b8252506020830135828111156136dd57600080fd5b6136e98d828601613233565b6020830152506136fb60408401613384565b6040820152606083013560608201526080830135608082015260a083013560a082015260c083013560c082015260e083013560e082015283830135848201526101209350838301358482015261014093508383013584820152610160935083830135848201528098505060408a013592508083111561377957600080fd5b505061378789828a01613507565b94505061379788606089016135c9565b92506137a560c08801612d68565b91506137b360e08801612d68565b90509295509295509295565b600080604083850312156137d257600080fd5b82356137dd81612cf6565b915060208301356133bd81612cf6565b60208082526015908201527414dc1b1a5d081b9bdd0818dc99585d1959081e595d605a1b604082015260600190565b8183526000602080850194508260005b8581101561385a57813561383f81612cf6565b6001600160a01b03168752958201959082019060010161382c565b509495945050505050565b8183526000602080850194508260005b8581101561385a5763ffffffff61388b83612d4f565b1687529582019590820190600101613875565b600060018060a01b03808b168352808a16602084015260c060408401526138c960c08401898b61381c565b83810360608501526138dc81888a613865565b63ffffffff969096166080850152509290921660a090910152509695505050505050565b60808152600061391460808301888a61381c565b8281036020840152613927818789613865565b63ffffffff95909516604084015250506001600160a01b0391909116606090910152949350505050565b60006020828403121561396357600080fd5b81516126f681612cf6565b600181811c9082168061398257607f821691505b602082108114156139a357634e487b7160e01b600052602260045260246000fd5b50919050565b634e487b7160e01b600052603260045260246000fd5b634e487b7160e01b600052601160045260246000fd5b60006000198214156139e9576139e96139bf565b5060010190565b6000816000190483118215151615613a0a57613a0a6139bf565b500290565b600082613a2c57634e487b7160e01b600052601260045260246000fd5b500490565b60008219821115613a4457613a446139bf565b500190565b6020808252818101527f507572636861736520776f756c6420657863656564206d617820737570706c79604082015260600190565b600060208284031215613a9057600080fd5b5051919050565b600060018060a01b03808a16835260a06020840152613aba60a08401898b61381c565b8381036040850152613acd81888a613865565b63ffffffff96909616606085015250929092166080909101525095945050505050565b600060208284031215613b0257600080fd5b81516001600160401b03811115613b1857600080fd5b8201601f81018413613b2957600080fd5b8051613b376132528261320c565b818152856020838501011115613b4c57600080fd5b613b5d826020830160208601612ecd565b95945050505050565b600060208284031215613b7857600080fd5b81516126f681613376565b6001600160a01b038481168252602080830185905260606040840181905284519084018190526000928583019290916080860190855b81811015613bd7578551851683529483019491830191600101613bb9565b50909998505050505050505050565b6001600160a01b0385811682528416602082015260408101839052608060608201819052600090613c1990830184612ef9565b9695505050505050565b600060208284031215613c3557600080fd5b81516126f681612e9a565b60008351613c52818460208801612ecd565b835190830190613c66818360208801612ecd565b0194935050505056fea2646970667358221220d62c02beff9055d7e71a6f922511102ea2a6748e2eee1e6937c6a898ceda62f464736f6c63430008090033",
  "linkReferences": {},
  "deployedLinkReferences": {}
}