{
  "_format": "hh-sol-artifact-1",
  "contractName": "DCNTRentalMarket",
  "sourceName": "contracts/DCNTRentalMarket.sol",
  "abi": [
    {
      "inputs": [],
      "stateMutability": "nonpayable",
      "type": "constructor"
    },
    {
      "anonymous": false,
      "inputs": [
        {
          "indexed": true,
          "internalType": "address",
          "name": "nft",
          "type": "address"
        },
        {
          "indexed": true,
          "internalType": "uint256",
          "name": "tokenId",
          "type": "uint256"
        },
        {
          "indexed": true,
          "internalType": "address",
          "name": "user",
          "type": "address"
        },
        {
          "indexed": false,
          "internalType": "uint64",
          "name": "expires",
          "type": "uint64"
        }
      ],
      "name": "Rent",
      "type": "event"
    },
    {
      "anonymous": false,
      "inputs": [
        {
          "indexed": true,
          "internalType": "address",
          "name": "nft",
          "type": "address"
        },
        {
          "indexed": true,
          "internalType": "uint256",
          "name": "tokenId",
          "type": "uint256"
        },
        {
          "components": [
            {
              "internalType": "bool",
              "name": "isListed",
              "type": "bool"
            },
            {
              "internalType": "uint256",
              "name": "pricePerDay",
              "type": "uint256"
            },
            {
              "internalType": "uint16",
              "name": "minDays",
              "type": "uint16"
            },
            {
              "internalType": "uint16",
              "name": "maxDays",
              "type": "uint16"
            }
          ],
          "indexed": false,
          "internalType": "struct DCNTRentalMarket.Rentable",
          "name": "rentable",
          "type": "tuple"
        }
      ],
      "name": "SetRentable",
      "type": "event"
    },
    {
      "inputs": [
        {
          "internalType": "address",
          "name": "_nft",
          "type": "address"
        },
        {
          "internalType": "uint256",
          "name": "_tokenId",
          "type": "uint256"
        }
      ],
      "name": "getRentable",
      "outputs": [
        {
          "components": [
            {
              "internalType": "bool",
              "name": "isListed",
              "type": "bool"
            },
            {
              "internalType": "uint256",
              "name": "pricePerDay",
              "type": "uint256"
            },
            {
              "internalType": "uint16",
              "name": "minDays",
              "type": "uint16"
            },
            {
              "internalType": "uint16",
              "name": "maxDays",
              "type": "uint16"
            }
          ],
          "internalType": "struct DCNTRentalMarket.Rentable",
          "name": "",
          "type": "tuple"
        }
      ],
      "stateMutability": "view",
      "type": "function"
    },
    {
      "inputs": [
        {
          "internalType": "address",
          "name": "_nft",
          "type": "address"
        },
        {
          "internalType": "uint256",
          "name": "_tokenId",
          "type": "uint256"
        },
        {
          "internalType": "uint16",
          "name": "_days",
          "type": "uint16"
        }
      ],
      "name": "rent",
      "outputs": [],
      "stateMutability": "payable",
      "type": "function"
    },
    {
      "inputs": [
        {
          "internalType": "address",
          "name": "",
          "type": "address"
        },
        {
          "internalType": "uint256",
          "name": "",
          "type": "uint256"
        }
      ],
      "name": "rentables",
      "outputs": [
        {
          "internalType": "bool",
          "name": "isListed",
          "type": "bool"
        },
        {
          "internalType": "uint256",
          "name": "pricePerDay",
          "type": "uint256"
        },
        {
          "internalType": "uint16",
          "name": "minDays",
          "type": "uint16"
        },
        {
          "internalType": "uint16",
          "name": "maxDays",
          "type": "uint16"
        }
      ],
      "stateMutability": "view",
      "type": "function"
    },
    {
      "inputs": [
        {
          "internalType": "address",
          "name": "_nft",
          "type": "address"
        },
        {
          "internalType": "uint256",
          "name": "_tokenId",
          "type": "uint256"
        },
        {
          "internalType": "bool",
          "name": "_isListed",
          "type": "bool"
        },
        {
          "internalType": "uint256",
          "name": "_pricePerDay",
          "type": "uint256"
        },
        {
          "internalType": "uint16",
          "name": "_minDays",
          "type": "uint16"
        },
        {
          "internalType": "uint16",
          "name": "_maxDays",
          "type": "uint16"
        }
      ],
      "name": "setRentable",
      "outputs": [],
      "stateMutability": "nonpayable",
      "type": "function"
    },
    {
      "inputs": [
        {
          "internalType": "address",
          "name": "_nft",
          "type": "address"
        },
        {
          "internalType": "uint256",
          "name": "_tokenId",
          "type": "uint256"
        }
      ],
      "name": "toggleListed",
      "outputs": [],
      "stateMutability": "nonpayable",
      "type": "function"
    }
  ],
  "bytecode": "0x608060405234801561001057600080fd5b50611123806100206000396000f3fe60806040526004361061004a5760003560e01c8063012400201461004f5780630bb07b2d146100d657806318da9a76146100f8578063461ed95714610118578063e800af0e146101f9575b600080fd5b34801561005b57600080fd5b506100a561006a366004610eb5565b600060208181529281526040808220909352908152208054600182015460029092015460ff909116919061ffff808216916201000090041684565b604080519415158552602085019390935261ffff918216928401929092521660608201526080015b60405180910390f35b3480156100e257600080fd5b506100f66100f1366004610f06565b61020c565b005b34801561010457600080fd5b506100f6610113366004610eb5565b610514565b34801561012457600080fd5b506101bc610133366004610eb5565b604080516080810182526000808252602082018190529181018290526060810191909152506001600160a01b0382166000908152602081815260408083208484528252918290208251608081018452815460ff16151581526001820154928101929092526002015461ffff80821693830193909352620100009004909116606082015292915050565b60408051825115158152602080840151908201528282015161ffff90811692820192909252606092830151909116918101919091526080016100cd565b6100f6610207366004610f70565b610729565b6040516301ffc9a760e01b8152632b424ad760e21b60048201526001600160a01b038716906301ffc9a79060240160206040518083038186803b15801561025257600080fd5b505afa158015610266573d6000803e3d6000fd5b505050506040513d601f19601f8201168201806040525081019061028a9190610fae565b6102db5760405162461bcd60e51b815260206004820152601c60248201527f4e465420646f6573206e6f7420737570706f727420455243343930370000000060448201526064015b60405180910390fd5b60405163020604bf60e21b81526004810186905230906001600160a01b0388169063081812fc9060240160206040518083038186803b15801561031d57600080fd5b505afa158015610331573d6000803e3d6000fd5b505050506040513d601f19601f820116820180604052508101906103559190610fd2565b6001600160a01b03161461037b5760405162461bcd60e51b81526004016102d290610fef565b6040516331a9108f60e11b81526004810186905233906001600160a01b03881690636352211e9060240160206040518083038186803b1580156103bd57600080fd5b505afa1580156103d1573d6000803e3d6000fd5b505050506040513d601f19601f820116820180604052508101906103f59190610fd2565b6001600160a01b0316146104575760405162461bcd60e51b815260206004820152602360248201527f4d75737420626520746f6b656e206f776e657220746f207365742072656e7461604482015262626c6560e81b60648201526084016102d2565b6001600160a01b038616600081815260208181526040808320898452825291829020805488151560ff19909116811782556001820188905560028201805461ffff888116620100000263ffffffff199092168a8216179190911791829055855160ff909316151583529382018990528084168286015260101c909216606083015291519192889290917fbdc1ced66ad0d34286214b879e9c2d5fdd2b0df3867772e916f95c1a276530fb919081900360800190a350505050505050565b60405163020604bf60e21b81526004810182905230906001600160a01b0384169063081812fc9060240160206040518083038186803b15801561055657600080fd5b505afa15801561056a573d6000803e3d6000fd5b505050506040513d601f19601f8201168201806040525081019061058e9190610fd2565b6001600160a01b0316146105b45760405162461bcd60e51b81526004016102d290610fef565b6040516331a9108f60e11b81526004810182905233906001600160a01b03841690636352211e9060240160206040518083038186803b1580156105f657600080fd5b505afa15801561060a573d6000803e3d6000fd5b505050506040513d601f19601f8201168201806040525081019061062e9190610fd2565b6001600160a01b03161461068e5760405162461bcd60e51b815260206004820152602160248201527f4d75737420626520746f6b656e206f776e657220746f20736574206c697374656044820152601960fa1b60648201526084016102d2565b6001600160a01b038216600081815260208181526040808320858452825291829020805460ff8082161560ff19909216821783558451911615158152600182015492810192909252600281015461ffff8082169484019490945260101c9092166060820152909183917fbdc1ced66ad0d34286214b879e9c2d5fdd2b0df3867772e916f95c1a276530fb9060800160405180910390a3505050565b6001600160a01b0383166000818152602081815260408083208684528252918290208251608081018452815460ff16151581526001820154928101929092526002015461ffff8082168385015262010000909104166060820152905163020604bf60e21b8152600481018590529091309163081812fc9060240160206040518083038186803b1580156107bb57600080fd5b505afa1580156107cf573d6000803e3d6000fd5b505050506040513d601f19601f820116820180604052508101906107f39190610fd2565b6001600160a01b0316146108195760405162461bcd60e51b81526004016102d290610fef565b80516108755760405162461bcd60e51b815260206004820152602560248201527f52656e74616c7320617265206e6f742061637469766520666f722074686973206044820152643a37b5b2b760d91b60648201526084016102d2565b604051636178f8a560e11b8152600481018490526000906001600160a01b0386169063c2f1f14a9060240160206040518083038186803b1580156108b857600080fd5b505afa1580156108cc573d6000803e3d6000fd5b505050506040513d601f19601f820116820180604052508101906108f09190610fd2565b6001600160a01b0316146109465760405162461bcd60e51b815260206004820152601760248201527f546f6b656e20697320616c72656164792072656e74656400000000000000000060448201526064016102d2565b806040015161ffff168261ffff161015801561096e5750806060015161ffff168261ffff1611155b6109ba5760405162461bcd60e51b815260206004820152601760248201527f496e76616c69642072656e74616c206475726174696f6e00000000000000000060448201526064016102d2565b6001600160a01b03841660009081526020818152604080832086845290915290206001015480610a2c5760405162461bcd60e51b815260206004820152601b60248201527f52656e74616c2066656520686173206e6f74206265656e20736574000000000060448201526064016102d2565b6000610a3c61ffff851683611046565b90503481811015610a8f5760405162461bcd60e51b815260206004820181905260248201527f4e6f7420656e6f7567682066756e64732073656e7420666f722072656e74616c60448201526064016102d2565b6040516301ffc9a760e01b815263152a902d60e11b60048201526001600160a01b038816906301ffc9a79060240160206040518083038186803b158015610ad557600080fd5b505afa158015610ae9573d6000803e3d6000fd5b505050506040513d601f19601f82011682018060405250810190610b0d9190610fae565b15610c7f5760405163152a902d60e11b8152600481018790526024810183905260009081906001600160a01b038a1690632a55205a90604401604080518083038186803b158015610b5d57600080fd5b505afa158015610b71573d6000803e3d6000fd5b505050506040513d601f19601f82011682018060405250810190610b959190611065565b90925090506001600160a01b03821615801590610bb25750600081115b15610c7c576000826001600160a01b03168260405160006040518083038185875af1925050503d8060008114610c04576040519150601f19603f3d011682016040523d82523d6000602084013e610c09565b606091505b5050905080610c6e5760405162461bcd60e51b815260206004820152602b60248201527f4661696c656420746f2073656e6420726f79616c747920746f20726f79616c7460448201526a1e481c9958da5c1a595b9d60aa1b60648201526084016102d2565b610c788285611093565b9350505b50505b6040516331a9108f60e11b8152600481018790526000906001600160a01b03891690636352211e9060240160206040518083038186803b158015610cc257600080fd5b505afa158015610cd6573d6000803e3d6000fd5b505050506040513d601f19601f82011682018060405250810190610cfa9190610fd2565b90506000816001600160a01b03168360405160006040518083038185875af1925050503d8060008114610d49576040519150601f19603f3d011682016040523d82523d6000602084013e610d4e565b606091505b5050905080610db05760405162461bcd60e51b815260206004820152602860248201527f4661696c656420746f2073656e642072656e74616c2066656520746f20746f6b60448201526732b71037bbb732b960c11b60648201526084016102d2565b6000610dc361ffff8916620151806110aa565b610dd29062ffffff16426110d5565b6040516370182b2f60e11b8152600481018b905233602482015267ffffffffffffffff821660448201529091506001600160a01b038b169063e030565e90606401600060405180830381600087803b158015610e2d57600080fd5b505af1158015610e41573d6000803e3d6000fd5b505060405167ffffffffffffffff841681523392508b91506001600160a01b038d16907fba36d6be14be4f2010b3fd28baa5330fa1f5b30f4f5a9c167b8e60918c3aff969060200160405180910390a450505050505050505050565b6001600160a01b0381168114610eb257600080fd5b50565b60008060408385031215610ec857600080fd5b8235610ed381610e9d565b946020939093013593505050565b8015158114610eb257600080fd5b803561ffff81168114610f0157600080fd5b919050565b60008060008060008060c08789031215610f1f57600080fd5b8635610f2a81610e9d565b9550602087013594506040870135610f4181610ee1565b935060608701359250610f5660808801610eef565b9150610f6460a08801610eef565b90509295509295509295565b600080600060608486031215610f8557600080fd5b8335610f9081610e9d565b925060208401359150610fa560408501610eef565b90509250925092565b600060208284031215610fc057600080fd5b8151610fcb81610ee1565b9392505050565b600060208284031215610fe457600080fd5b8151610fcb81610e9d565b60208082526021908201527f546f6b656e206973206e6f7420617070726f76656420666f722072656e74616c6040820152607360f81b606082015260800190565b634e487b7160e01b600052601160045260246000fd5b600081600019048311821515161561106057611060611030565b500290565b6000806040838503121561107857600080fd5b825161108381610e9d565b6020939093015192949293505050565b6000828210156110a5576110a5611030565b500390565b600062ffffff808316818516818304811182151516156110cc576110cc611030565b02949350505050565b600082198211156110e8576110e8611030565b50019056fea2646970667358221220f60a0c4bd3520ee9b4ae1fd0db6c1ea7c90ac517643f4ae12e75cd849f88a50c64736f6c63430008090033",
  "linkReferences": {},
  "deployedLinkReferences": {}
}