{
  "_format": "hh-sol-artifact-1",
  "contractName": "DCNTCrescendo",
  "sourceName": "contracts/DCNTCrescendo.sol",
  "abi": [
    {
      "anonymous": false,
      "inputs": [
        {
          "indexed": true,
          "internalType": "address",
          "name": "owner",
          "type": "address"
        },
        {
          "indexed": true,
          "internalType": "address",
          "name": "operator",
          "type": "address"
        },
        {
          "indexed": false,
          "internalType": "bool",
          "name": "approved",
          "type": "bool"
        }
      ],
      "name": "ApprovalForAll",
      "type": "event"
    },
    {
      "anonymous": false,
      "inputs": [
        {
          "indexed": true,
          "internalType": "address",
          "name": "sender",
          "type": "address"
        },
        {
          "indexed": false,
          "internalType": "uint256",
          "name": "amount",
          "type": "uint256"
        },
        {
          "indexed": false,
          "internalType": "uint256",
          "name": "id",
          "type": "uint256"
        },
        {
          "indexed": false,
          "internalType": "uint256",
          "name": "reimbursement",
          "type": "uint256"
        }
      ],
      "name": "CurvedBurn",
      "type": "event"
    },
    {
      "anonymous": false,
      "inputs": [
        {
          "indexed": true,
          "internalType": "address",
          "name": "sender",
          "type": "address"
        },
        {
          "indexed": false,
          "internalType": "uint256",
          "name": "amount",
          "type": "uint256"
        },
        {
          "indexed": false,
          "internalType": "uint256",
          "name": "id",
          "type": "uint256"
        },
        {
          "indexed": false,
          "internalType": "uint256",
          "name": "deposit",
          "type": "uint256"
        }
      ],
      "name": "CurvedMint",
      "type": "event"
    },
    {
      "anonymous": false,
      "inputs": [
        {
          "indexed": false,
          "internalType": "uint8",
          "name": "version",
          "type": "uint8"
        }
      ],
      "name": "Initialized",
      "type": "event"
    },
    {
      "anonymous": false,
      "inputs": [
        {
          "indexed": true,
          "internalType": "address",
          "name": "previousOwner",
          "type": "address"
        },
        {
          "indexed": true,
          "internalType": "address",
          "name": "newOwner",
          "type": "address"
        }
      ],
      "name": "OwnershipTransferred",
      "type": "event"
    },
    {
      "anonymous": false,
      "inputs": [
        {
          "indexed": true,
          "internalType": "address",
          "name": "operator",
          "type": "address"
        },
        {
          "indexed": true,
          "internalType": "address",
          "name": "from",
          "type": "address"
        },
        {
          "indexed": true,
          "internalType": "address",
          "name": "to",
          "type": "address"
        },
        {
          "indexed": false,
          "internalType": "uint256[]",
          "name": "ids",
          "type": "uint256[]"
        },
        {
          "indexed": false,
          "internalType": "uint256[]",
          "name": "amounts",
          "type": "uint256[]"
        }
      ],
      "name": "TransferBatch",
      "type": "event"
    },
    {
      "anonymous": false,
      "inputs": [
        {
          "indexed": true,
          "internalType": "address",
          "name": "operator",
          "type": "address"
        },
        {
          "indexed": true,
          "internalType": "address",
          "name": "from",
          "type": "address"
        },
        {
          "indexed": true,
          "internalType": "address",
          "name": "to",
          "type": "address"
        },
        {
          "indexed": false,
          "internalType": "uint256",
          "name": "id",
          "type": "uint256"
        },
        {
          "indexed": false,
          "internalType": "uint256",
          "name": "amount",
          "type": "uint256"
        }
      ],
      "name": "TransferSingle",
      "type": "event"
    },
    {
      "anonymous": false,
      "inputs": [
        {
          "indexed": false,
          "internalType": "string",
          "name": "value",
          "type": "string"
        },
        {
          "indexed": true,
          "internalType": "uint256",
          "name": "id",
          "type": "uint256"
        }
      ],
      "name": "URI",
      "type": "event"
    },
    {
      "inputs": [
        {
          "internalType": "address",
          "name": "",
          "type": "address"
        },
        {
          "internalType": "uint256",
          "name": "",
          "type": "uint256"
        }
      ],
      "name": "balanceOf",
      "outputs": [
        {
          "internalType": "uint256",
          "name": "",
          "type": "uint256"
        }
      ],
      "stateMutability": "view",
      "type": "function"
    },
    {
      "inputs": [
        {
          "internalType": "address[]",
          "name": "owners",
          "type": "address[]"
        },
        {
          "internalType": "uint256[]",
          "name": "ids",
          "type": "uint256[]"
        }
      ],
      "name": "balanceOfBatch",
      "outputs": [
        {
          "internalType": "uint256[]",
          "name": "balances",
          "type": "uint256[]"
        }
      ],
      "stateMutability": "view",
      "type": "function"
    },
    {
      "inputs": [
        {
          "internalType": "uint256",
          "name": "id",
          "type": "uint256"
        }
      ],
      "name": "buy",
      "outputs": [],
      "stateMutability": "payable",
      "type": "function"
    },
    {
      "inputs": [
        {
          "internalType": "uint256",
          "name": "amount",
          "type": "uint256"
        },
        {
          "internalType": "uint256",
          "name": "id",
          "type": "uint256"
        }
      ],
      "name": "calculateCurvedBurnReturn",
      "outputs": [
        {
          "internalType": "uint256",
          "name": "",
          "type": "uint256"
        }
      ],
      "stateMutability": "view",
      "type": "function"
    },
    {
      "inputs": [
        {
          "internalType": "uint256",
          "name": "amount",
          "type": "uint256"
        },
        {
          "internalType": "uint256",
          "name": "id",
          "type": "uint256"
        }
      ],
      "name": "calculateCurvedMintReturn",
      "outputs": [
        {
          "internalType": "uint256",
          "name": "",
          "type": "uint256"
        }
      ],
      "stateMutability": "view",
      "type": "function"
    },
    {
      "inputs": [],
      "name": "contractURI",
      "outputs": [
        {
          "internalType": "string",
          "name": "",
          "type": "string"
        }
      ],
      "stateMutability": "view",
      "type": "function"
    },
    {
      "inputs": [
        {
          "internalType": "address[]",
          "name": "accounts",
          "type": "address[]"
        },
        {
          "internalType": "uint32[]",
          "name": "percentAllocations",
          "type": "uint32[]"
        },
        {
          "internalType": "uint32",
          "name": "distributorFee",
          "type": "uint32"
        }
      ],
      "name": "createSplit",
      "outputs": [],
      "stateMutability": "nonpayable",
      "type": "function"
    },
    {
      "inputs": [
        {
          "internalType": "address",
          "name": "account",
          "type": "address"
        },
        {
          "internalType": "uint256",
          "name": "withdrawETH",
          "type": "uint256"
        },
        {
          "internalType": "contract ERC20[]",
          "name": "tokens",
          "type": "address[]"
        },
        {
          "internalType": "address[]",
          "name": "accounts",
          "type": "address[]"
        },
        {
          "internalType": "uint32[]",
          "name": "percentAllocations",
          "type": "uint32[]"
        },
        {
          "internalType": "uint32",
          "name": "distributorFee",
          "type": "uint32"
        },
        {
          "internalType": "address",
          "name": "distributorAddress",
          "type": "address"
        }
      ],
      "name": "distributeAndWithdraw",
      "outputs": [],
      "stateMutability": "nonpayable",
      "type": "function"
    },
    {
      "inputs": [
        {
          "internalType": "address",
          "name": "account",
          "type": "address"
        },
        {
          "internalType": "uint256",
          "name": "withdrawETH",
          "type": "uint256"
        },
        {
          "internalType": "contract ERC20[]",
          "name": "tokens",
          "type": "address[]"
        },
        {
          "internalType": "address[]",
          "name": "accounts",
          "type": "address[]"
        },
        {
          "internalType": "uint32[]",
          "name": "percentAllocations",
          "type": "uint32[]"
        },
        {
          "internalType": "uint32",
          "name": "distributorFee",
          "type": "uint32"
        },
        {
          "internalType": "address",
          "name": "distributorAddress",
          "type": "address"
        }
      ],
      "name": "distributeAndWithdrawFund",
      "outputs": [],
      "stateMutability": "nonpayable",
      "type": "function"
    },
    {
      "inputs": [
        {
          "internalType": "contract ERC20",
          "name": "token",
          "type": "address"
        },
        {
          "internalType": "address[]",
          "name": "accounts",
          "type": "address[]"
        },
        {
          "internalType": "uint32[]",
          "name": "percentAllocations",
          "type": "uint32[]"
        },
        {
          "internalType": "uint32",
          "name": "distributorFee",
          "type": "uint32"
        },
        {
          "internalType": "address",
          "name": "distributorAddress",
          "type": "address"
        }
      ],
      "name": "distributeERC20",
      "outputs": [],
      "stateMutability": "nonpayable",
      "type": "function"
    },
    {
      "inputs": [
        {
          "internalType": "address[]",
          "name": "accounts",
          "type": "address[]"
        },
        {
          "internalType": "uint32[]",
          "name": "percentAllocations",
          "type": "uint32[]"
        },
        {
          "internalType": "uint32",
          "name": "distributorFee",
          "type": "uint32"
        },
        {
          "internalType": "address",
          "name": "distributorAddress",
          "type": "address"
        }
      ],
      "name": "distributeETH",
      "outputs": [],
      "stateMutability": "nonpayable",
      "type": "function"
    },
    {
      "inputs": [],
      "name": "flipSaleState",
      "outputs": [],
      "stateMutability": "nonpayable",
      "type": "function"
    },
    {
      "inputs": [],
      "name": "hitch",
      "outputs": [
        {
          "internalType": "uint256",
          "name": "",
          "type": "uint256"
        }
      ],
      "stateMutability": "view",
      "type": "function"
    },
    {
      "inputs": [
        {
          "internalType": "address",
          "name": "_owner",
          "type": "address"
        },
        {
          "components": [
            {
              "internalType": "string",
              "name": "name",
              "type": "string"
            },
            {
              "internalType": "string",
              "name": "symbol",
              "type": "string"
            },
            {
              "internalType": "uint256",
              "name": "initialPrice",
              "type": "uint256"
            },
            {
              "internalType": "uint256",
              "name": "step1",
              "type": "uint256"
            },
            {
              "internalType": "uint256",
              "name": "step2",
              "type": "uint256"
            },
            {
              "internalType": "uint256",
              "name": "hitch",
              "type": "uint256"
            },
            {
              "internalType": "uint256",
              "name": "takeRateBPS",
              "type": "uint256"
            },
            {
              "internalType": "uint256",
              "name": "unlockDate",
              "type": "uint256"
            },
            {
              "internalType": "uint256",
              "name": "saleStart",
              "type": "uint256"
            },
            {
              "internalType": "uint256",
              "name": "royaltyBPS",
              "type": "uint256"
            }
          ],
          "internalType": "struct CrescendoConfig",
          "name": "_config",
          "type": "tuple"
        },
        {
          "components": [
            {
              "internalType": "string",
              "name": "contractURI",
              "type": "string"
            },
            {
              "internalType": "string",
              "name": "metadataURI",
              "type": "string"
            },
            {
              "internalType": "bytes",
              "name": "metadataRendererInit",
              "type": "bytes"
            },
            {
              "internalType": "address",
              "name": "parentIP",
              "type": "address"
            }
          ],
          "internalType": "struct MetadataConfig",
          "name": "_metadataConfig",
          "type": "tuple"
        },
        {
          "internalType": "address",
          "name": "_metadataRenderer",
          "type": "address"
        },
        {
          "internalType": "address",
          "name": "_splitMain",
          "type": "address"
        }
      ],
      "name": "initialize",
      "outputs": [],
      "stateMutability": "nonpayable",
      "type": "function"
    },
    {
      "inputs": [
        {
          "internalType": "address",
          "name": "",
          "type": "address"
        },
        {
          "internalType": "address",
          "name": "",
          "type": "address"
        }
      ],
      "name": "isApprovedForAll",
      "outputs": [
        {
          "internalType": "bool",
          "name": "",
          "type": "bool"
        }
      ],
      "stateMutability": "view",
      "type": "function"
    },
    {
      "inputs": [],
      "name": "liquidity",
      "outputs": [
        {
          "internalType": "uint256",
          "name": "",
          "type": "uint256"
        }
      ],
      "stateMutability": "view",
      "type": "function"
    },
    {
      "inputs": [],
      "name": "metadataRenderer",
      "outputs": [
        {
          "internalType": "address",
          "name": "",
          "type": "address"
        }
      ],
      "stateMutability": "view",
      "type": "function"
    },
    {
      "inputs": [],
      "name": "name",
      "outputs": [
        {
          "internalType": "string",
          "name": "",
          "type": "string"
        }
      ],
      "stateMutability": "view",
      "type": "function"
    },
    {
      "inputs": [],
      "name": "owner",
      "outputs": [
        {
          "internalType": "address",
          "name": "",
          "type": "address"
        }
      ],
      "stateMutability": "view",
      "type": "function"
    },
    {
      "inputs": [],
      "name": "parentIP",
      "outputs": [
        {
          "internalType": "address",
          "name": "",
          "type": "address"
        }
      ],
      "stateMutability": "view",
      "type": "function"
    },
    {
      "inputs": [],
      "name": "renounceOwnership",
      "outputs": [],
      "stateMutability": "nonpayable",
      "type": "function"
    },
    {
      "inputs": [],
      "name": "reserveAmt",
      "outputs": [
        {
          "internalType": "uint256",
          "name": "",
          "type": "uint256"
        }
      ],
      "stateMutability": "view",
      "type": "function"
    },
    {
      "inputs": [],
      "name": "royaltyBPS",
      "outputs": [
        {
          "internalType": "uint256",
          "name": "",
          "type": "uint256"
        }
      ],
      "stateMutability": "view",
      "type": "function"
    },
    {
      "inputs": [
        {
          "internalType": "uint256",
          "name": "tokenId",
          "type": "uint256"
        },
        {
          "internalType": "uint256",
          "name": "salePrice",
          "type": "uint256"
        }
      ],
      "name": "royaltyInfo",
      "outputs": [
        {
          "internalType": "address",
          "name": "receiver",
          "type": "address"
        },
        {
          "internalType": "uint256",
          "name": "royaltyAmount",
          "type": "uint256"
        }
      ],
      "stateMutability": "view",
      "type": "function"
    },
    {
      "inputs": [
        {
          "internalType": "address",
          "name": "from",
          "type": "address"
        },
        {
          "internalType": "address",
          "name": "to",
          "type": "address"
        },
        {
          "internalType": "uint256[]",
          "name": "ids",
          "type": "uint256[]"
        },
        {
          "internalType": "uint256[]",
          "name": "amounts",
          "type": "uint256[]"
        },
        {
          "internalType": "bytes",
          "name": "data",
          "type": "bytes"
        }
      ],
      "name": "safeBatchTransferFrom",
      "outputs": [],
      "stateMutability": "nonpayable",
      "type": "function"
    },
    {
      "inputs": [
        {
          "internalType": "address",
          "name": "from",
          "type": "address"
        },
        {
          "internalType": "address",
          "name": "to",
          "type": "address"
        },
        {
          "internalType": "uint256",
          "name": "id",
          "type": "uint256"
        },
        {
          "internalType": "uint256",
          "name": "amount",
          "type": "uint256"
        },
        {
          "internalType": "bytes",
          "name": "data",
          "type": "bytes"
        }
      ],
      "name": "safeTransferFrom",
      "outputs": [],
      "stateMutability": "nonpayable",
      "type": "function"
    },
    {
      "inputs": [],
      "name": "saleIsActive",
      "outputs": [
        {
          "internalType": "bool",
          "name": "_saleIsActive",
          "type": "bool"
        }
      ],
      "stateMutability": "view",
      "type": "function"
    },
    {
      "inputs": [],
      "name": "saleIsPaused",
      "outputs": [
        {
          "internalType": "bool",
          "name": "",
          "type": "bool"
        }
      ],
      "stateMutability": "view",
      "type": "function"
    },
    {
      "inputs": [],
      "name": "saleStart",
      "outputs": [
        {
          "internalType": "uint256",
          "name": "",
          "type": "uint256"
        }
      ],
      "stateMutability": "view",
      "type": "function"
    },
    {
      "inputs": [
        {
          "internalType": "uint256",
          "name": "id",
          "type": "uint256"
        }
      ],
      "name": "sell",
      "outputs": [],
      "stateMutability": "nonpayable",
      "type": "function"
    },
    {
      "inputs": [
        {
          "internalType": "address",
          "name": "operator",
          "type": "address"
        },
        {
          "internalType": "bool",
          "name": "approved",
          "type": "bool"
        }
      ],
      "name": "setApprovalForAll",
      "outputs": [],
      "stateMutability": "nonpayable",
      "type": "function"
    },
    {
      "inputs": [
        {
          "internalType": "address",
          "name": "_metadataRenderer",
          "type": "address"
        }
      ],
      "name": "setMetadataRenderer",
      "outputs": [],
      "stateMutability": "nonpayable",
      "type": "function"
    },
    {
      "inputs": [],
      "name": "splitMain",
      "outputs": [
        {
          "internalType": "address",
          "name": "",
          "type": "address"
        }
      ],
      "stateMutability": "view",
      "type": "function"
    },
    {
      "inputs": [],
      "name": "splitWallet",
      "outputs": [
        {
          "internalType": "address",
          "name": "",
          "type": "address"
        }
      ],
      "stateMutability": "view",
      "type": "function"
    },
    {
      "inputs": [],
      "name": "step1",
      "outputs": [
        {
          "internalType": "uint256",
          "name": "",
          "type": "uint256"
        }
      ],
      "stateMutability": "view",
      "type": "function"
    },
    {
      "inputs": [],
      "name": "step2",
      "outputs": [
        {
          "internalType": "uint256",
          "name": "",
          "type": "uint256"
        }
      ],
      "stateMutability": "view",
      "type": "function"
    },
    {
      "inputs": [
        {
          "internalType": "bytes4",
          "name": "interfaceId",
          "type": "bytes4"
        }
      ],
      "name": "supportsInterface",
      "outputs": [
        {
          "internalType": "bool",
          "name": "",
          "type": "bool"
        }
      ],
      "stateMutability": "view",
      "type": "function"
    },
    {
      "inputs": [],
      "name": "symbol",
      "outputs": [
        {
          "internalType": "string",
          "name": "",
          "type": "string"
        }
      ],
      "stateMutability": "view",
      "type": "function"
    },
    {
      "inputs": [],
      "name": "takeRateBPS",
      "outputs": [
        {
          "internalType": "uint256",
          "name": "",
          "type": "uint256"
        }
      ],
      "stateMutability": "view",
      "type": "function"
    },
    {
      "inputs": [
        {
          "internalType": "uint256",
          "name": "id",
          "type": "uint256"
        }
      ],
      "name": "totalSupply",
      "outputs": [
        {
          "internalType": "uint256",
          "name": "",
          "type": "uint256"
        }
      ],
      "stateMutability": "view",
      "type": "function"
    },
    {
      "inputs": [],
      "name": "totalWithdrawn",
      "outputs": [
        {
          "internalType": "uint256",
          "name": "",
          "type": "uint256"
        }
      ],
      "stateMutability": "view",
      "type": "function"
    },
    {
      "inputs": [
        {
          "internalType": "uint256",
          "name": "transferETH",
          "type": "uint256"
        },
        {
          "internalType": "contract ERC20[]",
          "name": "tokens",
          "type": "address[]"
        }
      ],
      "name": "transferFundToSplit",
      "outputs": [],
      "stateMutability": "nonpayable",
      "type": "function"
    },
    {
      "inputs": [
        {
          "internalType": "address",
          "name": "newOwner",
          "type": "address"
        }
      ],
      "name": "transferOwnership",
      "outputs": [],
      "stateMutability": "nonpayable",
      "type": "function"
    },
    {
      "inputs": [
        {
          "internalType": "uint256",
          "name": "transferETH",
          "type": "uint256"
        },
        {
          "internalType": "contract ERC20[]",
          "name": "tokens",
          "type": "address[]"
        }
      ],
      "name": "transferToSplit",
      "outputs": [],
      "stateMutability": "nonpayable",
      "type": "function"
    },
    {
      "inputs": [],
      "name": "unlockDate",
      "outputs": [
        {
          "internalType": "uint256",
          "name": "",
          "type": "uint256"
        }
      ],
      "stateMutability": "view",
      "type": "function"
    },
    {
      "inputs": [
        {
          "internalType": "string",
          "name": "contractURI_",
          "type": "string"
        }
      ],
      "name": "updateContractURI",
      "outputs": [],
      "stateMutability": "nonpayable",
      "type": "function"
    },
    {
      "inputs": [
        {
          "internalType": "string",
          "name": "uri_",
          "type": "string"
        }
      ],
      "name": "updateUri",
      "outputs": [],
      "stateMutability": "nonpayable",
      "type": "function"
    },
    {
      "inputs": [
        {
          "internalType": "uint256",
          "name": "",
          "type": "uint256"
        }
      ],
      "name": "uri",
      "outputs": [
        {
          "internalType": "string",
          "name": "",
          "type": "string"
        }
      ],
      "stateMutability": "view",
      "type": "function"
    },
    {
      "inputs": [],
      "name": "withdraw",
      "outputs": [],
      "stateMutability": "nonpayable",
      "type": "function"
    },
    {
      "inputs": [],
      "name": "withdrawFund",
      "outputs": [],
      "stateMutability": "nonpayable",
      "type": "function"
    }
  ],
  "bytecode": "0x60806040526000600e553480156200001657600080fd5b50620000223362000028565b62000084565b600280546001600160a01b038381166201000081810262010000600160b01b031985161790945560405193909204169182907f8be0079c531659141344cd1fd0a4f28419497f9722a3daafe3b4186f6b6457e090600090a35050565b613cd880620000946000396000f3fe6080604052600436106102c75760003560e01c80638da5cb5b11610175578063d40a71fb116100dc578063e985e9c511610095578063f0cc8b621161006f578063f0cc8b6214610872578063f242432a14610892578063f2fde38b146108b2578063fd4fe8a8146108d257600080fd5b8063e985e9c514610802578063eb8d24441461083d578063ee37778d1461085257600080fd5b8063d40a71fb14610775578063d96a094a1461078b578063e07fa3c11461079e578063e4849b32146107b3578063e6c350c1146107d3578063e8a3d485146107ed57600080fd5b8063a3111abd1161012e578063a3111abd146106c7578063ab0bcc41146106e7578063af548ffb146106fd578063b9c9d93a14610712578063bd85b03914610728578063c4559d5a1461075557600080fd5b80638da5cb5b146106185780638f4ed3331461063c57806390619fa81461065257806394a11aea1461067257806395d89b4114610692578063a22cb465146106a757600080fd5b806334918dfd11610234578063570b3c6a116101ed578063713b9787116101c7578063713b9787146105a3578063715018a6146105c357806379ab7c8e146105d85780637e5b1e24146105f857600080fd5b8063570b3c6a1461054d57806369ac57211461056d578063703199701461058357600080fd5b806334918dfd146104b4578063350aa191146104c95780633ccfd60b146104df57806343a58f06146104f45780634b3197131461050a5780634e1273f41461052057600080fd5b80630e89341c116102865780630e89341c146103e05780631a6865021461040057806327715d8014610415578063284a44a8146104355780632a55205a146104555780632eb2c2d61461049457600080fd5b80625f16fb146102cc578062fdd58e146102ee578063015893c51461033657806301ffc9a71461035657806306fdde03146103865780630e769b2b146103a8575b600080fd5b3480156102d857600080fd5b506102ec6102e7366004612ba3565b6108f2565b005b3480156102fa57600080fd5b50610323610309366004612c4a565b600060208181529281526040808220909352908152205481565b6040519081526020015b60405180910390f35b34801561034257600080fd5b506102ec610351366004612c76565b6109d0565b34801561036257600080fd5b50610376610371366004612d0c565b610b5a565b604051901515815260200161032d565b34801561039257600080fd5b5061039b610b85565b60405161032d9190612d81565b3480156103b457600080fd5b506012546103c8906001600160a01b031681565b6040516001600160a01b03909116815260200161032d565b3480156103ec57600080fd5b5061039b6103fb366004612d94565b610c17565b34801561040c57600080fd5b50610323610d3d565b34801561042157600080fd5b506102ec610430366004612f7b565b610d6c565b34801561044157600080fd5b506102ec610450366004613137565b611004565b34801561046157600080fd5b5061047561047036600461320b565b6110ae565b604080516001600160a01b03909316835260208301919091520161032d565b3480156104a057600080fd5b506102ec6104af36600461326e565b611130565b3480156104c057600080fd5b506102ec6113e2565b3480156104d557600080fd5b50610323600a5481565b3480156104eb57600080fd5b506102ec6113fe565b34801561050057600080fd5b5061032360095481565b34801561051657600080fd5b50610323600e5481565b34801561052c57600080fd5b5061054061053b36600461332c565b6114dc565b60405161032d9190613397565b34801561055957600080fd5b506102ec6105683660046133db565b611610565b34801561057957600080fd5b5061032360115481565b34801561058f57600080fd5b506014546103c8906001600160a01b031681565b3480156105af57600080fd5b506013546103c8906001600160a01b031681565b3480156105cf57600080fd5b506102ec611624565b3480156105e457600080fd5b506102ec6105f3366004613417565b611638565b34801561060457600080fd5b506102ec6106133660046133db565b6116c4565b34801561062457600080fd5b506002546201000090046001600160a01b03166103c8565b34801561064857600080fd5b5061032360085481565b34801561065e57600080fd5b506102ec61066d366004613417565b6116df565b34801561067e57600080fd5b506102ec61068d366004613137565b61177b565b34801561069e57600080fd5b5061039b61189e565b3480156106b357600080fd5b506102ec6106c2366004613461565b6118ad565b3480156106d357600080fd5b506103236106e236600461320b565b611919565b3480156106f357600080fd5b50610323600f5481565b34801561070957600080fd5b50610323611972565b34801561071e57600080fd5b50610323600b5481565b34801561073457600080fd5b50610323610743366004612d94565b6000908152600c602052604090205490565b34801561076157600080fd5b506102ec61077036600461349a565b61199e565b34801561078157600080fd5b5061032360075481565b6102ec610799366004612d94565b611a63565b3480156107aa57600080fd5b506102ec611d0c565b3480156107bf57600080fd5b506102ec6107ce366004612d94565b611e08565b3480156107df57600080fd5b506010546103769060ff1681565b3480156107f957600080fd5b5061039b61209f565b34801561080e57600080fd5b5061037661081d36600461352d565b600160209081526000928352604080842090915290825290205460ff1681565b34801561084957600080fd5b5061037661214a565b34801561085e57600080fd5b5061032361086d36600461320b565b612164565b34801561087e57600080fd5b506015546103c8906001600160a01b031681565b34801561089e57600080fd5b506102ec6108ad36600461355b565b6121e4565b3480156108be57600080fd5b506102ec6108cd3660046135d6565b6123e5565b3480156108de57600080fd5b506102ec6108ed3660046135d6565b61245b565b60006109066013546001600160a01b031690565b6001600160a01b031614156109365760405162461bcd60e51b815260040161092d906135f3565b60405180910390fd5b61093f87612485565b6012546001600160a01b03166001600160a01b0316631581130261096b6013546001600160a01b031690565b898989898989896040518963ffffffff1660e01b81526004016109959897969594939291906136a4565b600060405180830381600087803b1580156109af57600080fd5b505af11580156109c3573d6000803e3d6000fd5b5050505050505050505050565b6109d86125a2565b60006109ec6012546001600160a01b031690565b6001600160a01b03161415610a375760405162461bcd60e51b815260206004820152601160248201527014dc1b1a5d13585a5b881b9bdd081cd95d607a1b604482015260640161092d565b6000610a4b6013546001600160a01b031690565b6001600160a01b031614610a995760405162461bcd60e51b815260206004820152601560248201527414dc1b1a5d08185b1c9958591e4818dc99585d1959605a1b604482015260640161092d565b6000610aad6012546001600160a01b031690565b6001600160a01b0316637601f7828787878787336040518763ffffffff1660e01b8152600401610ae296959493929190613706565b602060405180830381600087803b158015610afc57600080fd5b505af1158015610b10573d6000803e3d6000fd5b505050506040513d601f19601f82011682018060405250810190610b349190613757565b601380546001600160a01b0319166001600160a01b03831617905590505b505050505050565b600063152a902d60e11b6001600160e01b031983161480610b7f5750610b7f82612603565b92915050565b606060038054610b9490613774565b80601f0160208091040260200160405190810160405280929190818152602001828054610bc090613774565b8015610c0d5780601f10610be257610100808354040283529160200191610c0d565b820191906000526020600020905b815481529060010190602001808311610bf057829003601f168201915b5050505050905090565b6014546060906001600160a01b031615610cab5760145460405163c87b56dd60e01b8152600160048201526001600160a01b039091169063c87b56dd9060240160006040518083038186803b158015610c6f57600080fd5b505afa158015610c83573d6000803e3d6000fd5b505050506040513d6000823e601f3d908101601f19168201604052610b7f91908101906137af565b60058054610cb890613774565b80601f0160208091040260200160405190810160405280929190818152602001828054610ce490613774565b8015610d315780601f10610d0657610100808354040283529160200191610d31565b820191906000526020600020905b815481529060010190602001808311610d1457829003601f168201915b50505050509050919050565b6000612710600e5447610d50919061383b565b600a54610d5d9190613853565b610d679190613872565b905090565b600254610100900460ff1615808015610d8c5750600254600160ff909116105b80610da65750303b158015610da6575060025460ff166001145b610e095760405162461bcd60e51b815260206004820152602e60248201527f496e697469616c697a61626c653a20636f6e747261637420697320616c72656160448201526d191e481a5b9a5d1a585b1a5e995960921b606482015260840161092d565b6002805460ff191660011790558015610e2c576002805461ff0019166101001790555b610e3586612651565b604085015160008052600d60209081527f81955a0a11e65eac625c29e8882660bae4e165a75d72780094acae8ece9a29ee919091556060860151600755608086015160085560a086015160095560c0860151600a5560e086015160115585518051610ea4926003920190612a8d565b506020808601518051610ebb926004920190612a8d565b50610100850151600f55610120850151600b55601280546001600160a01b038085166001600160a01b03199283161790925560608601516015805491841691909216179055831615801590610f1557506000846040015151115b15610f9357601480546001600160a01b0319166001600160a01b03851690811790915560408581015190516342b53ffd60e11b815263856a7ffa91610f5c91600401612d81565b600060405180830381600087803b158015610f7657600080fd5b505af1158015610f8a573d6000803e3d6000fd5b50505050610fb7565b83518051610fa991600691602090910190612a8d565b50610fb784602001516126ad565b8015610b52576002805461ff0019169055604051600181527f7f26b83ff96e1f2b6a682f133852f6798a09c465da95921460cefb38474024989060200160405180910390a1505050505050565b60006110186013546001600160a01b031690565b6001600160a01b0316141561103f5760405162461bcd60e51b815260040161092d906135f3565b87156110535761105386868686868661199e565b60005b87518110156110975761108788828151811061107457611074613894565b60200260200101518888888888886108f2565b611090816138aa565b9050611056565b506110a38989896126c0565b505050505050505050565b60008083156110cf5760405162461bcd60e51b815260040161092d906138c5565b6013546001600160a01b0316156110f3576013546001600160a01b03169150611108565b6002546201000090046001600160a01b031691505b6000612710600b548561111b9190613853565b6111259190613872565b9150505b9250929050565b8483146111715760405162461bcd60e51b815260206004820152600f60248201526e0988a9c8ea890be9a92a69a82a8869608b1b604482015260640161092d565b336001600160a01b03891614806111ab57506001600160a01b038816600090815260016020908152604080832033845290915290205460ff165b6111e85760405162461bcd60e51b815260206004820152600e60248201526d1393d517d055551213d49256915160921b604482015260640161092d565b60008060005b878110156112a35788888281811061120857611208613894565b90506020020135925086868281811061122357611223613894565b6001600160a01b038e16600090815260208181526040808320898452825282208054939091029490940135955085939250906112609084906138fc565b90915550506001600160a01b038a166000908152602081815260408083208684529091528120805484929061129690849061383b565b90915550506001016111ee565b50886001600160a01b03168a6001600160a01b0316336001600160a01b03167f4a39dc06d4c0dbc64b70af90fd698a233a518aa5d07e595d983b8c0526c8f7fb8b8b8b8b6040516112f79493929190613949565b60405180910390a46001600160a01b0389163b156113ad5760405163bc197c8160e01b808252906001600160a01b038b169063bc197c819061134b9033908f908e908e908e908e908e908e90600401613999565b602060405180830381600087803b15801561136557600080fd5b505af1158015611379573d6000803e3d6000fd5b505050506040513d601f19601f8201168201806040525081019061139d91906139fd565b6001600160e01b031916146113ba565b6001600160a01b03891615155b6113d65760405162461bcd60e51b815260040161092d90613a1a565b50505050505050505050565b6113ea6125a2565b6010805460ff19811660ff90911615179055565b6114066125a2565b600061141a6013546001600160a01b031690565b6001600160a01b0316146114405760405162461bcd60e51b815260040161092d90613a44565b6000600e5461144d610d3d565b61145791906138fc565b905080600e600082825461146b919061383b565b9091555050604051600090339083908381818185875af1925050503d80600081146114b2576040519150601f19603f3d011682016040523d82523d6000602084013e6114b7565b606091505b50509050806114d85760405162461bcd60e51b815260040161092d90613a88565b5050565b606083821461151f5760405162461bcd60e51b815260206004820152600f60248201526e0988a9c8ea890be9a92a69a82a8869608b1b604482015260640161092d565b836001600160401b0381111561153757611537612dad565b604051908082528060200260200182016040528015611560578160200160208202803683370190505b50905060005b848110156116075760008087878481811061158357611583613894565b905060200201602081019061159891906135d6565b6001600160a01b03166001600160a01b0316815260200190815260200160002060008585848181106115cc576115cc613894565b905060200201358152602001908152602001600020548282815181106115f4576115f4613894565b6020908102919091010152600101611566565b50949350505050565b6116186125a2565b611621816126ad565b50565b61162c6125a2565b6116366000612651565b565b600061164c6013546001600160a01b031690565b6001600160a01b031614156116735760405162461bcd60e51b815260040161092d906135f3565b81156116815761168161272b565b60005b81518110156116bf576116af8282815181106116a2576116a2613894565b6020026020010151612485565b6116b8816138aa565b9050611684565b505050565b6116cc6125a2565b80516114d8906006906020840190612a8d565b60006116f36013546001600160a01b031690565b6001600160a01b0316141561171a5760405162461bcd60e51b815260040161092d906135f3565b60115442101561173c5760405162461bcd60e51b815260040161092d90613ab6565b811561174a5761174a6127fe565b60005b81518110156116bf5761176b8282815181106116a2576116a2613894565b611774816138aa565b905061174d565b600061178f6013546001600160a01b031690565b6001600160a01b031614156117b65760405162461bcd60e51b815260040161092d906135f3565b6011544210156117d85760405162461bcd60e51b815260040161092d90613ab6565b871561186d576117e66127fe565b6012546001600160a01b03166001600160a01b031663e61cb05e6118126013546001600160a01b031690565b8888888888886040518863ffffffff1660e01b815260040161183a9796959493929190613aed565b600060405180830381600087803b15801561185457600080fd5b505af1158015611868573d6000803e3d6000fd5b505050505b60005b87518110156110975761188e88828151811061107457611074613894565b611897816138aa565b9050611870565b606060048054610b9490613774565b3360008181526001602090815260408083206001600160a01b03871680855290835292819020805460ff191686151590811790915590519081529192917f17307eab39ab6107e8899845ad3d59bd9653f200f220920489ca2b5937696c31910160405180910390a35050565b60008260011461195d5760405162461bcd60e51b815260206004820152600f60248201526e6d617820616d6f756e74206973203160881b604482015260640161092d565b506000908152600d6020526040902054919050565b6000612710600e5447611985919061383b565b600a54611994906127106138fc565b610d5d9190613853565b60006119b26013546001600160a01b031690565b6001600160a01b031614156119d95760405162461bcd60e51b815260040161092d906135f3565b6119e161272b565b6012546001600160a01b03166001600160a01b031663e61cb05e611a0d6013546001600160a01b031690565b8888888888886040518863ffffffff1660e01b8152600401611a359796959493929190613aed565b600060405180830381600087803b158015611a4f57600080fd5b505af11580156113d6573d6000803e3d6000fd5b600f54421015611ab15760405162461bcd60e51b815260206004820152601960248201527829b0b632b99030b932903737ba1030b1ba34bb32903cb2ba1760391b604482015260640161092d565b6011544210611b025760405162461bcd60e51b815260206004820152601b60248201527f53616c657320617265206e6f206c6f6e676572206163746976652e0000000000604482015260640161092d565b60105460ff1615611b255760405162461bcd60e51b815260040161092d90613b46565b6000611b32600183611919565b905080341015611b795760405162461bcd60e51b8152602060048201526012602482015271496e73756666696369656e742066756e647360701b604482015260640161092d565b8115611b975760405162461bcd60e51b815260040161092d906138c5565b6000611ba382346138fc565b1115611c1a57600033611bb683346138fc565b604051600081818185875af1925050503d8060008114611bf2576040519150601f19603f3d011682016040523d82523d6000602084013e611bf7565b606091505b5050905080611c185760405162461bcd60e51b815260040161092d90613a88565b505b611c3633836001604051806020016040528060008152506128b2565b6000828152600c60205260408120805460019290611c5590849061383b565b909155505060408051600181526020810184905290810182905233907f25ba90957e661d6984db35cb313f752c45b1b67a3252e45d3f260a00fff0d7199060600160405180910390a26009546000838152600c60205260409020541015611ce2576007546000838152600d602052604081208054909190611cd790849061383b565b909155506114d89050565b6008546000838152600d602052604081208054909190611d0390849061383b565b90915550505050565b611d146125a2565b601154421015611d365760405162461bcd60e51b815260040161092d90613ab6565b6000611d4a6013546001600160a01b031690565b6001600160a01b031614611d705760405162461bcd60e51b815260040161092d90613a44565b604051600090339047908381818185875af1925050503d8060008114611db2576040519150601f19603f3d011682016040523d82523d6000602084013e611db7565b606091505b50509050806116215760405162461bcd60e51b815260206004820152601760248201527f436f756c64206e6f742077697468647261772066756e64000000000000000000604482015260640161092d565b600f54421015611e565760405162461bcd60e51b815260206004820152601960248201527829b0b632b99030b932903737ba1030b1ba34bb32903cb2ba1760391b604482015260640161092d565b6011544210611ea75760405162461bcd60e51b815260206004820152601b60248201527f53616c657320617265206e6f206c6f6e676572206163746976652e0000000000604482015260640161092d565b60105460ff1615611eca5760405162461bcd60e51b815260040161092d90613b46565b8015611ee85760405162461bcd60e51b815260040161092d906138c5565b6000611ef5600183612164565b33600090815260208181526040808320868452909152902054909150611f545760405162461bcd60e51b81526020600482015260146024820152731b5d5cdd081bdddb881b999d081d1bc81cd95b1b60621b604482015260640161092d565b611f6033836001612a09565b6000828152600c60205260408120805460019290611f7f9084906138fc565b9091555050604051600090339083908381818185875af1925050503d8060008114611fc6576040519150601f19603f3d011682016040523d82523d6000602084013e611fcb565b606091505b5050905080611fec5760405162461bcd60e51b815260040161092d90613a88565b60408051600181526020810185905290810183905233907f68294b5fb4234239b694f5ef768a13b93132c838ecd88673e56a4caa8089b9199060600160405180910390a26009546000848152600c60205260409020541015612074576007546000848152600d6020526040812080549091906120699084906138fc565b909155506116bf9050565b6008546000848152600d6020526040812080549091906120959084906138fc565b9091555050505050565b6014546060906001600160a01b03161561213d57601460009054906101000a90046001600160a01b03166001600160a01b031663e8a3d4856040518163ffffffff1660e01b815260040160006040518083038186803b15801561210157600080fd5b505afa158015612115573d6000803e3d6000fd5b505050506040513d6000823e601f3d908101601f19168201604052610d6791908101906137af565b60068054610b9490613774565b6000600f544210158015610d6757505060105460ff161590565b6000826001146121a85760405162461bcd60e51b815260206004820152600f60248201526e6d617820616d6f756e74206973203160881b604482015260640161092d565b6000828152600d6020526040902054600a5461271091906121c990836138fc565b6121d39190613853565b6121dd9190613872565b9392505050565b336001600160a01b038716148061221e57506001600160a01b038616600090815260016020908152604080832033845290915290205460ff165b61225b5760405162461bcd60e51b815260206004820152600e60248201526d1393d517d055551213d49256915160921b604482015260640161092d565b6001600160a01b0386166000908152602081815260408083208784529091528120805485929061228c9084906138fc565b90915550506001600160a01b038516600090815260208181526040808320878452909152812080548592906122c290849061383b565b909155505060408051858152602081018590526001600160a01b03808816929089169133917fc3d58168c5ae7397731d063d5bbf3d657854427343f4c083240f7aacaa2d0f62910160405180910390a46001600160a01b0385163b156123bc5760405163f23a6e6160e01b808252906001600160a01b0387169063f23a6e619061235a9033908b908a908a908a908a90600401613b88565b602060405180830381600087803b15801561237457600080fd5b505af1158015612388573d6000803e3d6000fd5b505050506040513d601f19601f820116820180604052508101906123ac91906139fd565b6001600160e01b031916146123c9565b6001600160a01b03851615155b610b525760405162461bcd60e51b815260040161092d90613a1a565b6123ed6125a2565b6001600160a01b0381166124525760405162461bcd60e51b815260206004820152602660248201527f4f776e61626c653a206e6577206f776e657220697320746865207a65726f206160448201526564647265737360d01b606482015260840161092d565b61162181612651565b6124636125a2565b601480546001600160a01b0319166001600160a01b0392909216919091179055565b6040516370a0823160e01b81523060048201526000906001600160a01b038316906370a082319060240160206040518083038186803b1580156124c757600080fd5b505afa1580156124db573d6000803e3d6000fd5b505050506040513d601f19601f820116820180604052508101906124ff9190613bcf565b9050816001600160a01b031663a9059cbb6125226013546001600160a01b031690565b6040516001600160e01b031960e084901b1681526001600160a01b03909116600482015260248101849052604401602060405180830381600087803b15801561256a57600080fd5b505af115801561257e573d6000803e3d6000fd5b505050506040513d601f19601f820116820180604052508101906116bf9190613be8565b6002546001600160a01b03620100009091041633146116365760405162461bcd60e51b815260206004820181905260248201527f4f776e61626c653a2063616c6c6572206973206e6f7420746865206f776e6572604482015260640161092d565b60006301ffc9a760e01b6001600160e01b0319831614806126345750636cdb3d1360e11b6001600160e01b03198316145b80610b7f5750506001600160e01b0319166303a24d0760e21b1490565b600280546001600160a01b038381166201000081810262010000600160b01b031985161790945560405193909204169182907f8be0079c531659141344cd1fd0a4f28419497f9722a3daafe3b4186f6b6457e090600090a35050565b80516114d8906005906020840190612a8d565b601254604051636e5f691960e01b81526001600160a01b0390911690636e5f6919906126f490869086908690600401613c05565b600060405180830381600087803b15801561270e57600080fd5b505af1158015612722573d6000803e3d6000fd5b50505050505050565b6000600e54612738610d3d565b61274291906138fc565b905080600e6000828254612756919061383b565b90915550506013546040516000916001600160a01b03169083908381818185875af1925050503d80600081146127a8576040519150601f19603f3d011682016040523d82523d6000602084013e6127ad565b606091505b50509050806114d85760405162461bcd60e51b815260206004820152601f60248201527f436f756c64206e6f74207472616e736665722045544820746f2073706c697400604482015260640161092d565b60006128126013546001600160a01b031690565b6001600160a01b03164760405160006040518083038185875af1925050503d806000811461285c576040519150601f19603f3d011682016040523d82523d6000602084013e612861565b606091505b50509050806116215760405162461bcd60e51b815260206004820152601f60248201527f436f756c64206e6f74207472616e736665722045544820746f2073706c697400604482015260640161092d565b6001600160a01b038416600090815260208181526040808320868452909152812080548492906128e390849061383b565b909155505060408051848152602081018490526001600160a01b0386169160009133917fc3d58168c5ae7397731d063d5bbf3d657854427343f4c083240f7aacaa2d0f62910160405180910390a46001600160a01b0384163b156129da5760405163f23a6e6160e01b808252906001600160a01b0386169063f23a6e6190612978903390600090899089908990600401613c68565b602060405180830381600087803b15801561299257600080fd5b505af11580156129a6573d6000803e3d6000fd5b505050506040513d601f19601f820116820180604052508101906129ca91906139fd565b6001600160e01b031916146129e7565b6001600160a01b03841615155b612a035760405162461bcd60e51b815260040161092d90613a1a565b50505050565b6001600160a01b03831660009081526020818152604080832085845290915281208054839290612a3a9084906138fc565b909155505060408051838152602081018390526000916001600160a01b0386169133917fc3d58168c5ae7397731d063d5bbf3d657854427343f4c083240f7aacaa2d0f62910160405180910390a4505050565b828054612a9990613774565b90600052602060002090601f016020900481019282612abb5760008555612b01565b82601f10612ad457805160ff1916838001178555612b01565b82800160010185558215612b01579182015b82811115612b01578251825591602001919060010190612ae6565b50612b0d929150612b11565b5090565b5b80821115612b0d5760008155600101612b12565b6001600160a01b038116811461162157600080fd5b60008083601f840112612b4d57600080fd5b5081356001600160401b03811115612b6457600080fd5b6020830191508360208260051b850101111561112957600080fd5b803563ffffffff81168114612b9357600080fd5b919050565b8035612b9381612b26565b600080600080600080600060a0888a031215612bbe57600080fd5b8735612bc981612b26565b965060208801356001600160401b0380821115612be557600080fd5b612bf18b838c01612b3b565b909850965060408a0135915080821115612c0a57600080fd5b50612c178a828b01612b3b565b9095509350612c2a905060608901612b7f565b91506080880135612c3a81612b26565b8091505092959891949750929550565b60008060408385031215612c5d57600080fd5b8235612c6881612b26565b946020939093013593505050565b600080600080600060608688031215612c8e57600080fd5b85356001600160401b0380821115612ca557600080fd5b612cb189838a01612b3b565b90975095506020880135915080821115612cca57600080fd5b50612cd788828901612b3b565b9094509250612cea905060408701612b7f565b90509295509295909350565b6001600160e01b03198116811461162157600080fd5b600060208284031215612d1e57600080fd5b81356121dd81612cf6565b60005b83811015612d44578181015183820152602001612d2c565b83811115612a035750506000910152565b60008151808452612d6d816020860160208601612d29565b601f01601f19169290920160200192915050565b6020815260006121dd6020830184612d55565b600060208284031215612da657600080fd5b5035919050565b634e487b7160e01b600052604160045260246000fd5b604051608081016001600160401b0381118282101715612de557612de5612dad565b60405290565b60405161014081016001600160401b0381118282101715612de557612de5612dad565b604051601f8201601f191681016001600160401b0381118282101715612e3657612e36612dad565b604052919050565b60006001600160401b03821115612e5757612e57612dad565b50601f01601f191660200190565b6000612e78612e7384612e3e565b612e0e565b9050828152838383011115612e8c57600080fd5b828260208301376000602084830101529392505050565b600082601f830112612eb457600080fd5b6121dd83833560208501612e65565b600060808284031215612ed557600080fd5b612edd612dc3565b905081356001600160401b0380821115612ef657600080fd5b612f0285838601612ea3565b83526020840135915080821115612f1857600080fd5b612f2485838601612ea3565b60208401526040840135915080821115612f3d57600080fd5b508201601f81018413612f4f57600080fd5b612f5e84823560208401612e65565b604083015250612f7060608301612b98565b606082015292915050565b600080600080600060a08688031215612f9357600080fd5b8535612f9e81612b26565b945060208601356001600160401b0380821115612fba57600080fd5b90870190610140828a031215612fcf57600080fd5b612fd7612deb565b823582811115612fe657600080fd5b612ff28b828601612ea3565b82525060208301358281111561300757600080fd5b6130138b828601612ea3565b60208301525060408301356040820152606083013560608201526080830135608082015260a083013560a082015260c083013560c082015260e083013560e082015261010080840135818301525061012080840135818301525080965050604088013591508082111561308557600080fd5b5061309288828901612ec3565b9350506130a160608701612b98565b9150612cea60808701612b98565b600082601f8301126130c057600080fd5b813560206001600160401b038211156130db576130db612dad565b8160051b6130ea828201612e0e565b928352848101820192828101908785111561310457600080fd5b83870192505b8483101561312c57823561311d81612b26565b8252918301919083019061310a565b979650505050505050565b600080600080600080600080600060e08a8c03121561315557600080fd5b893561316081612b26565b985060208a0135975060408a01356001600160401b038082111561318357600080fd5b61318f8d838e016130af565b985060608c01359150808211156131a557600080fd5b6131b18d838e01612b3b565b909850965060808c01359150808211156131ca57600080fd5b506131d78c828d01612b3b565b90955093506131ea905060a08b01612b7f565b915060c08a01356131fa81612b26565b809150509295985092959850929598565b6000806040838503121561321e57600080fd5b50508035926020909101359150565b60008083601f84011261323f57600080fd5b5081356001600160401b0381111561325657600080fd5b60208301915083602082850101111561112957600080fd5b60008060008060008060008060a0898b03121561328a57600080fd5b883561329581612b26565b975060208901356132a581612b26565b965060408901356001600160401b03808211156132c157600080fd5b6132cd8c838d01612b3b565b909850965060608b01359150808211156132e657600080fd5b6132f28c838d01612b3b565b909650945060808b013591508082111561330b57600080fd5b506133188b828c0161322d565b999c989b5096995094979396929594505050565b6000806000806040858703121561334257600080fd5b84356001600160401b038082111561335957600080fd5b61336588838901612b3b565b9096509450602087013591508082111561337e57600080fd5b5061338b87828801612b3b565b95989497509550505050565b6020808252825182820181905260009190848201906040850190845b818110156133cf578351835292840192918401916001016133b3565b50909695505050505050565b6000602082840312156133ed57600080fd5b81356001600160401b0381111561340357600080fd5b61340f84828501612ea3565b949350505050565b6000806040838503121561342a57600080fd5b8235915060208301356001600160401b0381111561344757600080fd5b611125858286016130af565b801515811461162157600080fd5b6000806040838503121561347457600080fd5b823561347f81612b26565b9150602083013561348f81613453565b809150509250929050565b600080600080600080608087890312156134b357600080fd5b86356001600160401b03808211156134ca57600080fd5b6134d68a838b01612b3b565b909850965060208901359150808211156134ef57600080fd5b506134fc89828a01612b3b565b909550935061350f905060408801612b7f565b9150606087013561351f81612b26565b809150509295509295509295565b6000806040838503121561354057600080fd5b823561354b81612b26565b9150602083013561348f81612b26565b60008060008060008060a0878903121561357457600080fd5b863561357f81612b26565b9550602087013561358f81612b26565b9450604087013593506060870135925060808701356001600160401b038111156135b857600080fd5b6135c489828a0161322d565b979a9699509497509295939492505050565b6000602082840312156135e857600080fd5b81356121dd81612b26565b60208082526015908201527414dc1b1a5d081b9bdd0818dc99585d1959081e595d605a1b604082015260600190565b8183526000602080850194508260005b8581101561366057813561364581612b26565b6001600160a01b031687529582019590820190600101613632565b509495945050505050565b8183526000602080850194508260005b858110156136605763ffffffff61369183612b7f565b168752958201959082019060010161367b565b600060018060a01b03808b168352808a16602084015260c060408401526136cf60c08401898b613622565b83810360608501526136e281888a61366b565b63ffffffff969096166080850152509290921660a090910152509695505050505050565b60808152600061371a60808301888a613622565b828103602084015261372d81878961366b565b63ffffffff95909516604084015250506001600160a01b0391909116606090910152949350505050565b60006020828403121561376957600080fd5b81516121dd81612b26565b600181811c9082168061378857607f821691505b602082108114156137a957634e487b7160e01b600052602260045260246000fd5b50919050565b6000602082840312156137c157600080fd5b81516001600160401b038111156137d757600080fd5b8201601f810184136137e857600080fd5b80516137f6612e7382612e3e565b81815285602083850101111561380b57600080fd5b61381c826020830160208601612d29565b95945050505050565b634e487b7160e01b600052601160045260246000fd5b6000821982111561384e5761384e613825565b500190565b600081600019048311821515161561386d5761386d613825565b500290565b60008261388f57634e487b7160e01b600052601260045260246000fd5b500490565b634e487b7160e01b600052603260045260246000fd5b60006000198214156138be576138be613825565b5060010190565b6020808252601a908201527f63757272656e746c79206f6e6c79206f6e652065646974696f6e000000000000604082015260600190565b60008282101561390e5761390e613825565b500390565b81835260006001600160fb1b0383111561392c57600080fd5b8260051b8083602087013760009401602001938452509192915050565b60408152600061395d604083018688613913565b828103602084015261312c818587613913565b81835281816020850137506000828201602090810191909152601f909101601f19169091010190565b6001600160a01b0389811682528816602082015260a0604082018190526000906139c6908301888a613913565b82810360608401526139d9818789613913565b905082810360808401526139ee818587613970565b9b9a5050505050505050505050565b600060208284031215613a0f57600080fd5b81516121dd81612cf6565b60208082526010908201526f155394d0519157d49150d2541251539560821b604082015260600190565b60208082526024908201527f43616e6e6f74207769746864726177207769746820616e2061637469766520736040820152631c1b1a5d60e21b606082015260800190565b6020808252601490820152732330b4b632b2103a379039b2b7321032ba3432b960611b604082015260600190565b60208082526019908201527f4372657363656e646f206973207374696c6c206c6f636b656400000000000000604082015260600190565b600060018060a01b03808a16835260a06020840152613b1060a08401898b613622565b8381036040850152613b2381888a61366b565b63ffffffff96909616606085015250929092166080909101525095945050505050565b60208082526022908201527f53616c65206d7573742062652061637469766520746f20627579206f722073656040820152611b1b60f21b606082015260800190565b6001600160a01b03878116825286166020820152604081018590526060810184905260a060808201819052600090613bc39083018486613970565b98975050505050505050565b600060208284031215613be157600080fd5b5051919050565b600060208284031215613bfa57600080fd5b81516121dd81613453565b6001600160a01b038481168252602080830185905260606040840181905284519084018190526000928583019290916080860190855b81811015613c59578551851683529483019491830191600101613c3b565b50909998505050505050505050565b6001600160a01b03868116825285166020820152604081018490526060810183905260a06080820181905260009061312c90830184612d5556fea26469706673582212208da4b5b0f3d1b188870d7fc813350693df3895cfa3d4eb218ac1b8c846126bf964736f6c63430008090033",
  "linkReferences": {},
  "deployedLinkReferences": {}
}