{
  "_format": "hh-sol-artifact-1",
  "contractName": "DCNT4907A",
  "sourceName": "contracts/DCNT4907A.sol",
  "abi": [
    {
      "inputs": [],
      "name": "ApprovalCallerNotOwnerNorApproved",
      "type": "error"
    },
    {
      "inputs": [],
      "name": "ApprovalQueryForNonexistentToken",
      "type": "error"
    },
    {
      "inputs": [],
      "name": "ApproveToCaller",
      "type": "error"
    },
    {
      "inputs": [],
      "name": "BalanceQueryForZeroAddress",
      "type": "error"
    },
    {
      "inputs": [],
      "name": "MintERC2309QuantityExceedsLimit",
      "type": "error"
    },
    {
      "inputs": [],
      "name": "MintToZeroAddress",
      "type": "error"
    },
    {
      "inputs": [],
      "name": "MintZeroQuantity",
      "type": "error"
    },
    {
      "inputs": [],
      "name": "OwnerQueryForNonexistentToken",
      "type": "error"
    },
    {
      "inputs": [],
      "name": "OwnershipNotInitializedForExtraData",
      "type": "error"
    },
    {
      "inputs": [],
      "name": "SetUserCallerNotOwnerNorApproved",
      "type": "error"
    },
    {
      "inputs": [],
      "name": "TransferCallerNotOwnerNorApproved",
      "type": "error"
    },
    {
      "inputs": [],
      "name": "TransferFromIncorrectOwner",
      "type": "error"
    },
    {
      "inputs": [],
      "name": "TransferToNonERC721ReceiverImplementer",
      "type": "error"
    },
    {
      "inputs": [],
      "name": "TransferToZeroAddress",
      "type": "error"
    },
    {
      "inputs": [],
      "name": "URIQueryForNonexistentToken",
      "type": "error"
    },
    {
      "anonymous": false,
      "inputs": [
        {
          "indexed": true,
          "internalType": "address",
          "name": "owner",
          "type": "address"
        },
        {
          "indexed": true,
          "internalType": "address",
          "name": "approved",
          "type": "address"
        },
        {
          "indexed": true,
          "internalType": "uint256",
          "name": "tokenId",
          "type": "uint256"
        }
      ],
      "name": "Approval",
      "type": "event"
    },
    {
      "anonymous": false,
      "inputs": [
        {
          "indexed": true,
          "internalType": "address",
          "name": "owner",
          "type": "address"
        },
        {
          "indexed": true,
          "internalType": "address",
          "name": "operator",
          "type": "address"
        },
        {
          "indexed": false,
          "internalType": "bool",
          "name": "approved",
          "type": "bool"
        }
      ],
      "name": "ApprovalForAll",
      "type": "event"
    },
    {
      "anonymous": false,
      "inputs": [
        {
          "indexed": true,
          "internalType": "uint256",
          "name": "fromTokenId",
          "type": "uint256"
        },
        {
          "indexed": false,
          "internalType": "uint256",
          "name": "toTokenId",
          "type": "uint256"
        },
        {
          "indexed": true,
          "internalType": "address",
          "name": "from",
          "type": "address"
        },
        {
          "indexed": true,
          "internalType": "address",
          "name": "to",
          "type": "address"
        }
      ],
      "name": "ConsecutiveTransfer",
      "type": "event"
    },
    {
      "anonymous": false,
      "inputs": [
        {
          "indexed": false,
          "internalType": "uint8",
          "name": "version",
          "type": "uint8"
        }
      ],
      "name": "Initialized",
      "type": "event"
    },
    {
      "anonymous": false,
      "inputs": [
        {
          "indexed": false,
          "internalType": "address",
          "name": "sender",
          "type": "address"
        },
        {
          "indexed": false,
          "internalType": "uint256",
          "name": "tokenId_",
          "type": "uint256"
        }
      ],
      "name": "Minted",
      "type": "event"
    },
    {
      "anonymous": false,
      "inputs": [
        {
          "indexed": true,
          "internalType": "address",
          "name": "previousOwner",
          "type": "address"
        },
        {
          "indexed": true,
          "internalType": "address",
          "name": "newOwner",
          "type": "address"
        }
      ],
      "name": "OwnershipTransferred",
      "type": "event"
    },
    {
      "anonymous": false,
      "inputs": [
        {
          "indexed": true,
          "internalType": "address",
          "name": "from",
          "type": "address"
        },
        {
          "indexed": true,
          "internalType": "address",
          "name": "to",
          "type": "address"
        },
        {
          "indexed": true,
          "internalType": "uint256",
          "name": "tokenId",
          "type": "uint256"
        }
      ],
      "name": "Transfer",
      "type": "event"
    },
    {
      "anonymous": false,
      "inputs": [
        {
          "indexed": true,
          "internalType": "uint256",
          "name": "tokenId",
          "type": "uint256"
        },
        {
          "indexed": true,
          "internalType": "address",
          "name": "user",
          "type": "address"
        },
        {
          "indexed": false,
          "internalType": "uint64",
          "name": "expires",
          "type": "uint64"
        }
      ],
      "name": "UpdateUser",
      "type": "event"
    },
    {
      "inputs": [],
      "name": "MAX_TOKENS",
      "outputs": [
        {
          "internalType": "uint256",
          "name": "",
          "type": "uint256"
        }
      ],
      "stateMutability": "view",
      "type": "function"
    },
    {
      "inputs": [
        {
          "internalType": "uint256",
          "name": "newCap",
          "type": "uint256"
        }
      ],
      "name": "adjustCap",
      "outputs": [],
      "stateMutability": "nonpayable",
      "type": "function"
    },
    {
      "inputs": [
        {
          "internalType": "address",
          "name": "to",
          "type": "address"
        },
        {
          "internalType": "uint256",
          "name": "tokenId",
          "type": "uint256"
        }
      ],
      "name": "approve",
      "outputs": [],
      "stateMutability": "nonpayable",
      "type": "function"
    },
    {
      "inputs": [
        {
          "internalType": "address",
          "name": "owner",
          "type": "address"
        }
      ],
      "name": "balanceOf",
      "outputs": [
        {
          "internalType": "uint256",
          "name": "",
          "type": "uint256"
        }
      ],
      "stateMutability": "view",
      "type": "function"
    },
    {
      "inputs": [],
      "name": "baseURI",
      "outputs": [
        {
          "internalType": "string",
          "name": "",
          "type": "string"
        }
      ],
      "stateMutability": "view",
      "type": "function"
    },
    {
      "inputs": [],
      "name": "contractURI",
      "outputs": [
        {
          "internalType": "string",
          "name": "",
          "type": "string"
        }
      ],
      "stateMutability": "view",
      "type": "function"
    },
    {
      "inputs": [
        {
          "internalType": "address[]",
          "name": "accounts",
          "type": "address[]"
        },
        {
          "internalType": "uint32[]",
          "name": "percentAllocations",
          "type": "uint32[]"
        },
        {
          "internalType": "uint32",
          "name": "distributorFee",
          "type": "uint32"
        }
      ],
      "name": "createSplit",
      "outputs": [],
      "stateMutability": "nonpayable",
      "type": "function"
    },
    {
      "inputs": [
        {
          "internalType": "address",
          "name": "account",
          "type": "address"
        },
        {
          "internalType": "uint256",
          "name": "withdrawETH",
          "type": "uint256"
        },
        {
          "internalType": "contract ERC20[]",
          "name": "tokens",
          "type": "address[]"
        },
        {
          "internalType": "address[]",
          "name": "accounts",
          "type": "address[]"
        },
        {
          "internalType": "uint32[]",
          "name": "percentAllocations",
          "type": "uint32[]"
        },
        {
          "internalType": "uint32",
          "name": "distributorFee",
          "type": "uint32"
        },
        {
          "internalType": "address",
          "name": "distributorAddress",
          "type": "address"
        }
      ],
      "name": "distributeAndWithdraw",
      "outputs": [],
      "stateMutability": "nonpayable",
      "type": "function"
    },
    {
      "inputs": [
        {
          "internalType": "contract ERC20",
          "name": "token",
          "type": "address"
        },
        {
          "internalType": "address[]",
          "name": "accounts",
          "type": "address[]"
        },
        {
          "internalType": "uint32[]",
          "name": "percentAllocations",
          "type": "uint32[]"
        },
        {
          "internalType": "uint32",
          "name": "distributorFee",
          "type": "uint32"
        },
        {
          "internalType": "address",
          "name": "distributorAddress",
          "type": "address"
        }
      ],
      "name": "distributeERC20",
      "outputs": [],
      "stateMutability": "nonpayable",
      "type": "function"
    },
    {
      "inputs": [
        {
          "internalType": "address[]",
          "name": "accounts",
          "type": "address[]"
        },
        {
          "internalType": "uint32[]",
          "name": "percentAllocations",
          "type": "uint32[]"
        },
        {
          "internalType": "uint32",
          "name": "distributorFee",
          "type": "uint32"
        },
        {
          "internalType": "address",
          "name": "distributorAddress",
          "type": "address"
        }
      ],
      "name": "distributeETH",
      "outputs": [],
      "stateMutability": "nonpayable",
      "type": "function"
    },
    {
      "inputs": [],
      "name": "flipSaleState",
      "outputs": [],
      "stateMutability": "nonpayable",
      "type": "function"
    },
    {
      "inputs": [
        {
          "internalType": "uint256",
          "name": "tokenId",
          "type": "uint256"
        }
      ],
      "name": "getApproved",
      "outputs": [
        {
          "internalType": "address",
          "name": "",
          "type": "address"
        }
      ],
      "stateMutability": "view",
      "type": "function"
    },
    {
      "inputs": [],
      "name": "hasAdjustableCap",
      "outputs": [
        {
          "internalType": "bool",
          "name": "",
          "type": "bool"
        }
      ],
      "stateMutability": "view",
      "type": "function"
    },
    {
      "inputs": [
        {
          "internalType": "address",
          "name": "_owner",
          "type": "address"
        },
        {
          "components": [
            {
              "internalType": "string",
              "name": "name",
              "type": "string"
            },
            {
              "internalType": "string",
              "name": "symbol",
              "type": "string"
            },
            {
              "internalType": "bool",
              "name": "hasAdjustableCap",
              "type": "bool"
            },
            {
              "internalType": "uint256",
              "name": "maxTokens",
              "type": "uint256"
            },
            {
              "internalType": "uint256",
              "name": "tokenPrice",
              "type": "uint256"
            },
            {
              "internalType": "uint256",
              "name": "maxTokenPurchase",
              "type": "uint256"
            },
            {
              "internalType": "bytes32",
              "name": "presaleMerkleRoot",
              "type": "bytes32"
            },
            {
              "internalType": "uint256",
              "name": "presaleStart",
              "type": "uint256"
            },
            {
              "internalType": "uint256",
              "name": "presaleEnd",
              "type": "uint256"
            },
            {
              "internalType": "uint256",
              "name": "saleStart",
              "type": "uint256"
            },
            {
              "internalType": "uint256",
              "name": "saleEnd",
              "type": "uint256"
            },
            {
              "internalType": "uint256",
              "name": "royaltyBPS",
              "type": "uint256"
            }
          ],
          "internalType": "struct EditionConfig",
          "name": "_editionConfig",
          "type": "tuple"
        },
        {
          "components": [
            {
              "internalType": "string",
              "name": "contractURI",
              "type": "string"
            },
            {
              "internalType": "string",
              "name": "metadataURI",
              "type": "string"
            },
            {
              "internalType": "bytes",
              "name": "metadataRendererInit",
              "type": "bytes"
            },
            {
              "internalType": "address",
              "name": "parentIP",
              "type": "address"
            }
          ],
          "internalType": "struct MetadataConfig",
          "name": "_metadataConfig",
          "type": "tuple"
        },
        {
          "components": [
            {
              "internalType": "address",
              "name": "tokenAddress",
              "type": "address"
            },
            {
              "internalType": "uint88",
              "name": "minBalance",
              "type": "uint88"
            },
            {
              "internalType": "enum SaleType",
              "name": "saleType",
              "type": "uint8"
            }
          ],
          "internalType": "struct TokenGateConfig",
          "name": "_tokenGateConfig",
          "type": "tuple"
        },
        {
          "internalType": "address",
          "name": "_metadataRenderer",
          "type": "address"
        },
        {
          "internalType": "address",
          "name": "_splitMain",
          "type": "address"
        }
      ],
      "name": "initialize",
      "outputs": [],
      "stateMutability": "nonpayable",
      "type": "function"
    },
    {
      "inputs": [
        {
          "internalType": "address",
          "name": "owner",
          "type": "address"
        },
        {
          "internalType": "address",
          "name": "operator",
          "type": "address"
        }
      ],
      "name": "isApprovedForAll",
      "outputs": [
        {
          "internalType": "bool",
          "name": "",
          "type": "bool"
        }
      ],
      "stateMutability": "view",
      "type": "function"
    },
    {
      "inputs": [],
      "name": "maxTokenPurchase",
      "outputs": [
        {
          "internalType": "uint256",
          "name": "",
          "type": "uint256"
        }
      ],
      "stateMutability": "view",
      "type": "function"
    },
    {
      "inputs": [],
      "name": "metadataRenderer",
      "outputs": [
        {
          "internalType": "address",
          "name": "",
          "type": "address"
        }
      ],
      "stateMutability": "view",
      "type": "function"
    },
    {
      "inputs": [
        {
          "internalType": "uint256",
          "name": "numberOfTokens",
          "type": "uint256"
        }
      ],
      "name": "mint",
      "outputs": [],
      "stateMutability": "payable",
      "type": "function"
    },
    {
      "inputs": [
        {
          "internalType": "address[]",
          "name": "recipients",
          "type": "address[]"
        }
      ],
      "name": "mintAirdrop",
      "outputs": [],
      "stateMutability": "nonpayable",
      "type": "function"
    },
    {
      "inputs": [
        {
          "internalType": "uint256",
          "name": "quantity",
          "type": "uint256"
        },
        {
          "internalType": "uint256",
          "name": "maxQuantity",
          "type": "uint256"
        },
        {
          "internalType": "uint256",
          "name": "pricePerToken",
          "type": "uint256"
        },
        {
          "internalType": "bytes32[]",
          "name": "merkleProof",
          "type": "bytes32[]"
        }
      ],
      "name": "mintPresale",
      "outputs": [],
      "stateMutability": "payable",
      "type": "function"
    },
    {
      "inputs": [],
      "name": "name",
      "outputs": [
        {
          "internalType": "string",
          "name": "",
          "type": "string"
        }
      ],
      "stateMutability": "view",
      "type": "function"
    },
    {
      "inputs": [],
      "name": "owner",
      "outputs": [
        {
          "internalType": "address",
          "name": "",
          "type": "address"
        }
      ],
      "stateMutability": "view",
      "type": "function"
    },
    {
      "inputs": [
        {
          "internalType": "uint256",
          "name": "tokenId",
          "type": "uint256"
        }
      ],
      "name": "ownerOf",
      "outputs": [
        {
          "internalType": "address",
          "name": "",
          "type": "address"
        }
      ],
      "stateMutability": "view",
      "type": "function"
    },
    {
      "inputs": [],
      "name": "parentIP",
      "outputs": [
        {
          "internalType": "address",
          "name": "",
          "type": "address"
        }
      ],
      "stateMutability": "view",
      "type": "function"
    },
    {
      "inputs": [],
      "name": "presaleEnd",
      "outputs": [
        {
          "internalType": "uint256",
          "name": "",
          "type": "uint256"
        }
      ],
      "stateMutability": "view",
      "type": "function"
    },
    {
      "inputs": [],
      "name": "presaleStart",
      "outputs": [
        {
          "internalType": "uint256",
          "name": "",
          "type": "uint256"
        }
      ],
      "stateMutability": "view",
      "type": "function"
    },
    {
      "inputs": [],
      "name": "renounceOwnership",
      "outputs": [],
      "stateMutability": "nonpayable",
      "type": "function"
    },
    {
      "inputs": [
        {
          "internalType": "uint256",
          "name": "numReserved",
          "type": "uint256"
        }
      ],
      "name": "reserveDCNT",
      "outputs": [],
      "stateMutability": "nonpayable",
      "type": "function"
    },
    {
      "inputs": [],
      "name": "royaltyBPS",
      "outputs": [
        {
          "internalType": "uint256",
          "name": "",
          "type": "uint256"
        }
      ],
      "stateMutability": "view",
      "type": "function"
    },
    {
      "inputs": [
        {
          "internalType": "uint256",
          "name": "tokenId",
          "type": "uint256"
        },
        {
          "internalType": "uint256",
          "name": "salePrice",
          "type": "uint256"
        }
      ],
      "name": "royaltyInfo",
      "outputs": [
        {
          "internalType": "address",
          "name": "receiver",
          "type": "address"
        },
        {
          "internalType": "uint256",
          "name": "royaltyAmount",
          "type": "uint256"
        }
      ],
      "stateMutability": "view",
      "type": "function"
    },
    {
      "inputs": [
        {
          "internalType": "address",
          "name": "from",
          "type": "address"
        },
        {
          "internalType": "address",
          "name": "to",
          "type": "address"
        },
        {
          "internalType": "uint256",
          "name": "tokenId",
          "type": "uint256"
        }
      ],
      "name": "safeTransferFrom",
      "outputs": [],
      "stateMutability": "nonpayable",
      "type": "function"
    },
    {
      "inputs": [
        {
          "internalType": "address",
          "name": "from",
          "type": "address"
        },
        {
          "internalType": "address",
          "name": "to",
          "type": "address"
        },
        {
          "internalType": "uint256",
          "name": "tokenId",
          "type": "uint256"
        },
        {
          "internalType": "bytes",
          "name": "_data",
          "type": "bytes"
        }
      ],
      "name": "safeTransferFrom",
      "outputs": [],
      "stateMutability": "nonpayable",
      "type": "function"
    },
    {
      "inputs": [],
      "name": "saleEnd",
      "outputs": [
        {
          "internalType": "uint256",
          "name": "",
          "type": "uint256"
        }
      ],
      "stateMutability": "view",
      "type": "function"
    },
    {
      "inputs": [],
      "name": "saleIsActive",
      "outputs": [
        {
          "internalType": "bool",
          "name": "_saleIsActive",
          "type": "bool"
        }
      ],
      "stateMutability": "view",
      "type": "function"
    },
    {
      "inputs": [],
      "name": "saleIsPaused",
      "outputs": [
        {
          "internalType": "bool",
          "name": "",
          "type": "bool"
        }
      ],
      "stateMutability": "view",
      "type": "function"
    },
    {
      "inputs": [],
      "name": "saleStart",
      "outputs": [
        {
          "internalType": "uint256",
          "name": "",
          "type": "uint256"
        }
      ],
      "stateMutability": "view",
      "type": "function"
    },
    {
      "inputs": [
        {
          "internalType": "address",
          "name": "operator",
          "type": "address"
        },
        {
          "internalType": "bool",
          "name": "approved",
          "type": "bool"
        }
      ],
      "name": "setApprovalForAll",
      "outputs": [],
      "stateMutability": "nonpayable",
      "type": "function"
    },
    {
      "inputs": [
        {
          "internalType": "string",
          "name": "uri",
          "type": "string"
        }
      ],
      "name": "setBaseURI",
      "outputs": [],
      "stateMutability": "nonpayable",
      "type": "function"
    },
    {
      "inputs": [
        {
          "internalType": "string",
          "name": "uri",
          "type": "string"
        }
      ],
      "name": "setContractURI",
      "outputs": [],
      "stateMutability": "nonpayable",
      "type": "function"
    },
    {
      "inputs": [
        {
          "internalType": "address",
          "name": "_metadataRenderer",
          "type": "address"
        }
      ],
      "name": "setMetadataRenderer",
      "outputs": [],
      "stateMutability": "nonpayable",
      "type": "function"
    },
    {
      "inputs": [
        {
          "internalType": "bytes32",
          "name": "_presaleMerkleRoot",
          "type": "bytes32"
        }
      ],
      "name": "setPresaleMerkleRoot",
      "outputs": [],
      "stateMutability": "nonpayable",
      "type": "function"
    },
    {
      "inputs": [
        {
          "internalType": "uint256",
          "name": "tokenId",
          "type": "uint256"
        },
        {
          "internalType": "address",
          "name": "user",
          "type": "address"
        },
        {
          "internalType": "uint64",
          "name": "expires",
          "type": "uint64"
        }
      ],
      "name": "setUser",
      "outputs": [],
      "stateMutability": "nonpayable",
      "type": "function"
    },
    {
      "inputs": [],
      "name": "splitMain",
      "outputs": [
        {
          "internalType": "address",
          "name": "",
          "type": "address"
        }
      ],
      "stateMutability": "view",
      "type": "function"
    },
    {
      "inputs": [],
      "name": "splitWallet",
      "outputs": [
        {
          "internalType": "address",
          "name": "",
          "type": "address"
        }
      ],
      "stateMutability": "view",
      "type": "function"
    },
    {
      "inputs": [
        {
          "internalType": "bytes4",
          "name": "interfaceId",
          "type": "bytes4"
        }
      ],
      "name": "supportsInterface",
      "outputs": [
        {
          "internalType": "bool",
          "name": "",
          "type": "bool"
        }
      ],
      "stateMutability": "view",
      "type": "function"
    },
    {
      "inputs": [],
      "name": "symbol",
      "outputs": [
        {
          "internalType": "string",
          "name": "",
          "type": "string"
        }
      ],
      "stateMutability": "view",
      "type": "function"
    },
    {
      "inputs": [],
      "name": "tokenGateConfig",
      "outputs": [
        {
          "internalType": "address",
          "name": "tokenAddress",
          "type": "address"
        },
        {
          "internalType": "uint88",
          "name": "minBalance",
          "type": "uint88"
        },
        {
          "internalType": "enum SaleType",
          "name": "saleType",
          "type": "uint8"
        }
      ],
      "stateMutability": "view",
      "type": "function"
    },
    {
      "inputs": [],
      "name": "tokenPrice",
      "outputs": [
        {
          "internalType": "uint256",
          "name": "",
          "type": "uint256"
        }
      ],
      "stateMutability": "view",
      "type": "function"
    },
    {
      "inputs": [
        {
          "internalType": "uint256",
          "name": "tokenId",
          "type": "uint256"
        }
      ],
      "name": "tokenURI",
      "outputs": [
        {
          "internalType": "string",
          "name": "",
          "type": "string"
        }
      ],
      "stateMutability": "view",
      "type": "function"
    },
    {
      "inputs": [],
      "name": "totalSupply",
      "outputs": [
        {
          "internalType": "uint256",
          "name": "",
          "type": "uint256"
        }
      ],
      "stateMutability": "view",
      "type": "function"
    },
    {
      "inputs": [
        {
          "internalType": "address",
          "name": "from",
          "type": "address"
        },
        {
          "internalType": "address",
          "name": "to",
          "type": "address"
        },
        {
          "internalType": "uint256",
          "name": "tokenId",
          "type": "uint256"
        }
      ],
      "name": "transferFrom",
      "outputs": [],
      "stateMutability": "nonpayable",
      "type": "function"
    },
    {
      "inputs": [
        {
          "internalType": "address",
          "name": "newOwner",
          "type": "address"
        }
      ],
      "name": "transferOwnership",
      "outputs": [],
      "stateMutability": "nonpayable",
      "type": "function"
    },
    {
      "inputs": [
        {
          "internalType": "uint256",
          "name": "transferETH",
          "type": "uint256"
        },
        {
          "internalType": "contract ERC20[]",
          "name": "tokens",
          "type": "address[]"
        }
      ],
      "name": "transferToSplit",
      "outputs": [],
      "stateMutability": "nonpayable",
      "type": "function"
    },
    {
      "inputs": [
        {
          "internalType": "uint256",
          "name": "newStart",
          "type": "uint256"
        }
      ],
      "name": "updateSaleStart",
      "outputs": [],
      "stateMutability": "nonpayable",
      "type": "function"
    },
    {
      "inputs": [
        {
          "internalType": "uint256",
          "name": "tokenId",
          "type": "uint256"
        }
      ],
      "name": "userExpires",
      "outputs": [
        {
          "internalType": "uint256",
          "name": "",
          "type": "uint256"
        }
      ],
      "stateMutability": "view",
      "type": "function"
    },
    {
      "inputs": [
        {
          "internalType": "uint256",
          "name": "tokenId",
          "type": "uint256"
        }
      ],
      "name": "userOf",
      "outputs": [
        {
          "internalType": "address",
          "name": "",
          "type": "address"
        }
      ],
      "stateMutability": "view",
      "type": "function"
    },
    {
      "inputs": [],
      "name": "withdraw",
      "outputs": [],
      "stateMutability": "nonpayable",
      "type": "function"
    }
  ],
  "bytecode": "0x60806040523480156200001157600080fd5b506200001d3362000023565b6200007f565b600980546001600160a01b038381166201000081810262010000600160b01b031985161790945560405193909204169182907f8be0079c531659141344cd1fd0a4f28419497f9722a3daafe3b4186f6b6457e090600090a35050565b613ec6806200008f6000396000f3fe6080604052600436106103755760003560e01c806379ab7c8e116101d1578063c4559d5a11610102578063e6c350c1116100a0578063f0cc8b621161006f578063f0cc8b6214610a3c578063f2fde38b14610a5c578063f47c84c514610a7c578063fd4fe8a814610a9257600080fd5b8063e6c350c1146109af578063e8a3d485146109c9578063e985e9c5146109de578063eb8d244414610a2757600080fd5b8063c9ef5eee116100dc578063c9ef5eee14610939578063d58d458a14610959578063de8801e514610979578063e030565e1461098f57600080fd5b8063c4559d5a146108d9578063c5953170146108f9578063c87b56dd1461091957600080fd5b8063a0712d681161016f578063b88d4fde11610149578063b88d4fde14610859578063b9c9d93a14610879578063c10b93581461088f578063c2f1f14a146108a557600080fd5b8063a0712d6814610810578063a22cb46514610823578063ab0bcc411461084357600080fd5b80638fc88c48116101ab5780638fc88c481461078a578063931cf0f4146107ba578063938e3d7b146107db57806395d89b41146107fb57600080fd5b806379ab7c8e146107305780637ff9b596146107505780638da5cb5b1461076657600080fd5b80632a55205a116102ab5780636c0360eb1161024957806370a082311161022357806370a08231146106c8578063713b9787146106e8578063715018a614610708578063727a612e1461071d57600080fd5b80636c0360eb146106735780636c1951ae1461068857806370319970146106a857600080fd5b806342842e0e1161028557806342842e0e146105f3578063435fe1b51461061357806355f804b3146106335780636352211e1461065357600080fd5b80632a55205a1461058a57806334918dfd146105c95780633ccfd60b146105de57600080fd5b80630e769b2b11610318578063229f3e29116102f2578063229f3e291461051457806323b872dd1461052a578063284a44a81461054a57806328d7b2761461056a57600080fd5b80630e769b2b1461048f57806318160ddd146104af5780631dbdedbd146104c857600080fd5b806306fdde031161035457806306fdde03146103f1578063081812fc14610413578063095ea7b31461044b57806309aa3dcf1461046b57600080fd5b80625f16fb1461037a578063015893c51461039c57806301ffc9a7146103bc575b600080fd5b34801561038657600080fd5b5061039a610395366004612f46565b610ab2565b005b3480156103a857600080fd5b5061039a6103b7366004612fed565b610b90565b3480156103c857600080fd5b506103dc6103d7366004613083565b610d1a565b60405190151581526020015b60405180910390f35b3480156103fd57600080fd5b50610406610d2b565b6040516103e891906130f8565b34801561041f57600080fd5b5061043361042e36600461310b565b610dbd565b6040516001600160a01b0390911681526020016103e8565b34801561045757600080fd5b5061039a610466366004613124565b610e01565b34801561047757600080fd5b50610481600c5481565b6040519081526020016103e8565b34801561049b57600080fd5b50601754610433906001600160a01b031681565b3480156104bb57600080fd5b5060015460005403610481565b3480156104d457600080fd5b50600854610505906001600160a01b03811690600160a01b81046001600160581b031690600160f81b900460ff1683565b6040516103e893929190613166565b34801561052057600080fd5b5061048160155481565b34801561053657600080fd5b5061039a6105453660046131b1565b610ea1565b34801561055657600080fd5b5061039a6105653660046132e9565b61102f565b34801561057657600080fd5b5061039a61058536600461310b565b6110d9565b34801561059657600080fd5b506105aa6105a53660046133bd565b6110e6565b604080516001600160a01b0390931683526020830191909152016103e8565b3480156105d557600080fd5b5061039a611193565b3480156105ea57600080fd5b5061039a6111af565b3480156105ff57600080fd5b5061039a61060e3660046131b1565b6112bd565b34801561061f57600080fd5b5061039a61062e36600461310b565b6112dd565b34801561063f57600080fd5b5061039a61064e36600461345c565b6112ea565b34801561065f57600080fd5b5061043361066e36600461310b565b611309565b34801561067f57600080fd5b50610406611314565b34801561069457600080fd5b5061039a6106a336600461310b565b6113a2565b3480156106b457600080fd5b50601254610433906001600160a01b031681565b3480156106d457600080fd5b506104816106e3366004613490565b611412565b3480156106f457600080fd5b50601854610433906001600160a01b031681565b34801561071457600080fd5b5061039a611460565b61039a61072b3660046134ad565b611474565b34801561073c57600080fd5b5061039a61074b36600461350d565b61187f565b34801561075c57600080fd5b50610481600b5481565b34801561077257600080fd5b506009546201000090046001600160a01b0316610433565b34801561079657600080fd5b506104816107a536600461310b565b6000908152601a602052604090205460a01c90565b3480156107c657600080fd5b506009546103dc90600160b01b900460ff1681565b3480156107e757600080fd5b5061039a6107f636600461345c565b611906565b34801561080757600080fd5b50610406611921565b61039a61081e36600461310b565b611930565b34801561082f57600080fd5b5061039a61083e366004613562565b611cc3565b34801561084f57600080fd5b50610481600d5481565b34801561086557600080fd5b5061039a61087436600461359b565b611d59565b34801561088557600080fd5b5061048160135481565b34801561089b57600080fd5b50610481600e5481565b3480156108b157600080fd5b506104336108c036600461310b565b6000908152601a60205260409020544260a01b81110290565b3480156108e557600080fd5b5061039a6108f4366004613606565b611d9d565b34801561090557600080fd5b5061039a610914366004613699565b611e6e565b34801561092557600080fd5b5061040661093436600461310b565b611f62565b34801561094557600080fd5b5061039a610954366004613821565b611f6d565b34801561096557600080fd5b5061039a61097436600461310b565b612286565b34801561098557600080fd5b5061048160145481565b34801561099b57600080fd5b5061039a6109aa366004613992565b612348565b3480156109bb57600080fd5b50600f546103dc9060ff1681565b3480156109d557600080fd5b50610406612418565b3480156109ea57600080fd5b506103dc6109f93660046139e0565b6001600160a01b03918216600090815260076020908152604080832093909416825291909152205460ff1690565b348015610a3357600080fd5b506103dc6124c7565b348015610a4857600080fd5b50601954610433906001600160a01b031681565b348015610a6857600080fd5b5061039a610a77366004613490565b6124e1565b348015610a8857600080fd5b50610481600a5481565b348015610a9e57600080fd5b5061039a610aad366004613490565b612557565b6000610ac66018546001600160a01b031690565b6001600160a01b03161415610af65760405162461bcd60e51b8152600401610aed90613a0e565b60405180910390fd5b610aff87612581565b6017546001600160a01b03166001600160a01b03166315811302610b2b6018546001600160a01b031690565b898989898989896040518963ffffffff1660e01b8152600401610b55989796959493929190613abf565b600060405180830381600087803b158015610b6f57600080fd5b505af1158015610b83573d6000803e3d6000fd5b5050505050505050505050565b610b9861269e565b6000610bac6017546001600160a01b031690565b6001600160a01b03161415610bf75760405162461bcd60e51b815260206004820152601160248201527014dc1b1a5d13585a5b881b9bdd081cd95d607a1b6044820152606401610aed565b6000610c0b6018546001600160a01b031690565b6001600160a01b031614610c595760405162461bcd60e51b815260206004820152601560248201527414dc1b1a5d08185b1c9958591e4818dc99585d1959605a1b6044820152606401610aed565b6000610c6d6017546001600160a01b031690565b6001600160a01b0316637601f7828787878787336040518763ffffffff1660e01b8152600401610ca296959493929190613b21565b602060405180830381600087803b158015610cbc57600080fd5b505af1158015610cd0573d6000803e3d6000fd5b505050506040513d601f19601f82011682018060405250810190610cf49190613b72565b601880546001600160a01b0319166001600160a01b03831617905590505b505050505050565b6000610d25826126ff565b92915050565b606060028054610d3a90613b8f565b80601f0160208091040260200160405190810160405280929190818152602001828054610d6690613b8f565b8015610db35780601f10610d8857610100808354040283529160200191610db3565b820191906000526020600020905b815481529060010190602001808311610d9657829003601f168201915b5050505050905090565b6000610dc882612727565b610de5576040516333d1c03960e21b815260040160405180910390fd5b506000908152600660205260409020546001600160a01b031690565b6000610e0c82611309565b9050336001600160a01b03821614610e4557610e2881336109f9565b610e45576040516367d9dca160e11b815260040160405180910390fd5b60008281526006602052604080822080546001600160a01b0319166001600160a01b0387811691821790925591518593918516917f8c5be1e5ebec7d5bd14f71427d1e84f3dd0314c0f7b2291e5b200ac8c7c3b92591a4505050565b6000610eac8261274e565b9050836001600160a01b0316816001600160a01b031614610edf5760405162a1148160e81b815260040160405180910390fd5b60008281526006602052604090208054338082146001600160a01b03881690911417610f2c57610f0f86336109f9565b610f2c57604051632ce44b5f60e11b815260040160405180910390fd5b6001600160a01b038516610f5357604051633a954ecd60e21b815260040160405180910390fd5b8015610f5e57600082555b6001600160a01b038681166000908152600560205260408082208054600019019055918716808252919020805460010190554260a01b17600160e11b17600085815260046020526040902055600160e11b8316610fe95760018401600081815260046020526040902054610fe7576000548114610fe75760008181526004602052604090208490555b505b83856001600160a01b0316876001600160a01b03167fddf252ad1be2c89b69c2b068fc378daa952ba7f163c4a11628f55a4df523b3ef60405160405180910390a4610d12565b60006110436018546001600160a01b031690565b6001600160a01b0316141561106a5760405162461bcd60e51b8152600401610aed90613a0e565b871561107e5761107e868686868686611d9d565b60005b87518110156110c2576110b288828151811061109f5761109f613bca565b6020026020010151888888888888610ab2565b6110bb81613bf6565b9050611081565b506110ce8989896127b6565b505050505050505050565b6110e161269e565b601655565b6000806110f284612727565b6111325760405162461bcd60e51b81526020600482015260116024820152702737b732bc34b9ba32b73a103a37b5b2b760791b6044820152606401610aed565b6018546001600160a01b031615611156576018546001600160a01b0316915061116b565b6009546201000090046001600160a01b031691505b60006127106013548561117e9190613c11565b6111889190613c30565b9150505b9250929050565b61119b61269e565b600f805460ff19811660ff90911615179055565b6111b761269e565b60006111cb6018546001600160a01b031690565b6001600160a01b03161461122d5760405162461bcd60e51b8152602060048201526024808201527f43616e6e6f74207769746864726177207769746820616e2061637469766520736044820152631c1b1a5d60e21b6064820152608401610aed565b604051600090339047908381818185875af1925050503d806000811461126f576040519150601f19603f3d011682016040523d82523d6000602084013e611274565b606091505b50509050806112ba5760405162461bcd60e51b8152602060048201526012602482015271436f756c64206e6f7420776974686472617760701b6044820152606401610aed565b50565b6112d883838360405180602001604052806000815250611d59565b505050565b6112e561269e565b600d55565b6112f261269e565b8051611305906010906020840190612e30565b5050565b6000610d258261274e565b6010805461132190613b8f565b80601f016020809104026020016040519081016040528092919081815260200182805461134d90613b8f565b801561139a5780601f1061136f5761010080835404028352916020019161139a565b820191906000526020600020905b81548152906001019060200180831161137d57829003601f168201915b505050505081565b6113aa61269e565b600054600a546113ba8383613c52565b106113d75760405162461bcd60e51b8152600401610aed90613c6a565b60005b828110156112d857611400336113f08385613c52565b6113fb906001613c52565b612818565b8061140a81613bf6565b9150506113da565b60006001600160a01b03821661143b576040516323d3ad8160e21b815260040160405180910390fd5b506001600160a01b03166000908152600560205260409020546001600160401b031690565b61146861269e565b6114726000612832565b565b6008546001906001600160a01b0316158015906114dd57506000600854600160f81b900460ff1660028111156114ac576114ac613150565b14806114dd57508080156114dd57506001600854600160f81b900460ff1660028111156114db576114db613150565b145b8061150e57508015801561150e57506002600854600160f81b900460ff16600281111561150c5761150c613150565b145b156115e9576008546040516370a0823160e01b8152336004820152600160a01b82046001600160581b0316916001600160a01b0316906370a0823190602401602060405180830381600087803b15801561156757600080fd5b505af115801561157b573d6000803e3d6000fd5b505050506040513d601f19601f8201168201806040525081019061159f9190613c9f565b10156115e95760405162461bcd60e51b81526020600482015260196024820152783237903737ba1037bbb7103932b8bab4b932b2103a37b5b2b760391b6044820152606401610aed565b60145442101580156115fd57506015544211155b6116375760405162461bcd60e51b815260206004820152600b60248201526a6e6f742070726573616c6560a81b6044820152606401610aed565b600054600f5460ff161561168d5760405162461bcd60e51b815260206004820152601b60248201527f53616c65206d7573742062652061637469766520746f206d696e7400000000006044820152606401610aed565b600a5461169a8883613c52565b11156116b85760405162461bcd60e51b8152600401610aed90613c6a565b61173b848480806020026020016040519081016040528093929190818152602001838360200280828437600092019190915250506016546040516bffffffffffffffffffffffff193360601b166020820152603481018c9052605481018b905290925060740190506040516020818303038152906040528051906020012061288e565b6117765760405162461bcd60e51b815260206004820152600c60248201526b1b9bdd08185c1c1c9bdd995960a21b6044820152606401610aed565b6117808786613c11565b3410156117c45760405162461bcd60e51b8152602060048201526012602482015271496e73756666696369656e742066756e647360701b6044820152606401610aed565b85876117cf33611412565b6117d99190613c52565b11156118195760405162461bcd60e51b815260206004820152600f60248201526e6d696e74656420746f6f206d616e7960881b6044820152606401610aed565b6118233388612818565b60005b878110156118755760408051338152602081018490526001909301927f30385c845b448a36257a6a1716e6ad2e1bc2cbe333cde1e69fe849ad6511adfe910160405180910390a1600101611826565b5050505050505050565b60006118936018546001600160a01b031690565b6001600160a01b031614156118ba5760405162461bcd60e51b8152600401610aed90613a0e565b81156118c8576118c86128a4565b60005b81518110156112d8576118f68282815181106118e9576118e9613bca565b6020026020010151612581565b6118ff81613bf6565b90506118cb565b61190e61269e565b8051611305906011906020840190612e30565b606060038054610d3a90613b8f565b6008546000906001600160a01b03161580159061199957506000600854600160f81b900460ff16600281111561196857611968613150565b1480611999575080801561199957506001600854600160f81b900460ff16600281111561199757611997613150565b145b806119ca5750801580156119ca57506002600854600160f81b900460ff1660028111156119c8576119c8613150565b145b15611aa5576008546040516370a0823160e01b8152336004820152600160a01b82046001600160581b0316916001600160a01b0316906370a0823190602401602060405180830381600087803b158015611a2357600080fd5b505af1158015611a37573d6000803e3d6000fd5b505050506040513d601f19601f82011682018060405250810190611a5b9190613c9f565b1015611aa55760405162461bcd60e51b81526020600482015260196024820152783237903737ba1037bbb7103932b8bab4b932b2103a37b5b2b760391b6044820152606401610aed565b600054600d54421015611afa5760405162461bcd60e51b815260206004820152601960248201527f53616c657320617265206e6f7420616374697665207965742e000000000000006044820152606401610aed565b600f5460ff1615611b4d5760405162461bcd60e51b815260206004820152601b60248201527f53616c65206d7573742062652061637469766520746f206d696e7400000000006044820152606401610aed565b600a54611b5a8483613c52565b1115611b785760405162461bcd60e51b8152600401610aed90613c6a565b600a54811115611bb55760405162461bcd60e51b815260206004820152600860248201526714d3d3110813d55560c21b6044820152606401610aed565b82600b54611bc39190613c11565b341015611c075760405162461bcd60e51b8152602060048201526012602482015271496e73756666696369656e742066756e647360701b6044820152606401610aed565b600c5415611c6157600c54831115611c615760405162461bcd60e51b815260206004820152601c60248201527f4578636565646564206d6178206e756d62657220706572206d696e74000000006044820152606401610aed565b611c6b3384612818565b60005b83811015611cbd5760408051338152602081018490526001909301927f30385c845b448a36257a6a1716e6ad2e1bc2cbe333cde1e69fe849ad6511adfe910160405180910390a1600101611c6e565b50505050565b6001600160a01b038216331415611ced5760405163b06307db60e01b815260040160405180910390fd5b3360008181526007602090815260408083206001600160a01b03871680855290835292819020805460ff191686151590811790915590519081529192917f17307eab39ab6107e8899845ad3d59bd9653f200f220920489ca2b5937696c31910160405180910390a35050565b611d64848484610ea1565b6001600160a01b0383163b15611cbd57611d8084848484612958565b611cbd576040516368d2bf6b60e11b815260040160405180910390fd5b6000611db16018546001600160a01b031690565b6001600160a01b03161415611dd85760405162461bcd60e51b8152600401610aed90613a0e565b611de06128a4565b6017546001600160a01b03166001600160a01b031663e61cb05e611e0c6018546001600160a01b031690565b8888888888886040518863ffffffff1660e01b8152600401611e349796959493929190613cb8565b600060405180830381600087803b158015611e4e57600080fd5b505af1158015611e62573d6000803e3d6000fd5b50505050505050505050565b611e7661269e565b600054600a548190611e888483613c52565b1115611ea65760405162461bcd60e51b8152600401610aed90613c6a565b8183015b80831015611f5b57611ee58585848603818110611ec957611ec9613bca565b9050602002016020810190611ede9190613490565b6001612818565b7f30385c845b448a36257a6a1716e6ad2e1bc2cbe333cde1e69fe849ad6511adfe8585848603818110611f1a57611f1a613bca565b9050602002016020810190611f2f9190613490565b604080516001600160a01b039092168252602082018690520160405180910390a1600190920191611eaa565b5050505050565b6060610d2582612a50565b600954610100900460ff1615808015611f8d5750600954600160ff909116105b80611fa75750303b158015611fa7575060095460ff166001145b61200a5760405162461bcd60e51b815260206004820152602e60248201527f496e697469616c697a61626c653a20636f6e747261637420697320616c72656160448201526d191e481a5b9a5d1a585b1a5e995960921b6064820152608401610aed565b6009805460ff19166001179055801561202d576009805461ff0019166101001790555b61203687612832565b8551805161204c91600291602090910190612e30565b506020808701518051612063926003920190612e30565b5060008055606080870151600a556080870151600b5560a0870151600c55610120870151600d55610140870151600e5561016087015160135560408088015160098054911515600160b01b0260ff60b01b1990921691909117905590860151601980546001600160a01b039283166001600160a01b03199182161790915560178054868416921691909117905585516008805460208901516001600160581b0316600160a01b026001600160f81b031990911692909316919091179190911780825591860151869282906001600160f81b0316600160f81b83600281111561214d5761214d613150565b0217905550505060c086015160165560e08601516014556101008601516015556001600160a01b0383161580159061218a57506000856040015151115b1561220857601280546001600160a01b0319166001600160a01b03851690811790915560408681015190516342b53ffd60e11b815263856a7ffa916121d1916004016130f8565b600060405180830381600087803b1580156121eb57600080fd5b505af11580156121ff573d6000803e3d6000fd5b50505050612237565b8451805161221e91601191602090910190612e30565b506020808601518051612235926010920190612e30565b505b801561227d576009805461ff0019169055604051600181527f7f26b83ff96e1f2b6a682f133852f6798a09c465da95921460cefb38474024989060200160405180910390a15b50505050505050565b61228e61269e565b600954600160b01b900460ff166122f55760405162461bcd60e51b815260206004820152602560248201527f63616e6e6f742061646a7573742073697a65206f66207468697320636f6c6c6560448201526431ba34b7b760d91b6064820152608401610aed565b806122ff60005490565b11156123435760405162461bcd60e51b8152602060048201526013602482015272063616e6e6f742064656372656173652063617606c1b6044820152606401610aed565b600a55565b600061235384611309565b9050336001600160a01b038216146123a45761236f81336109f9565b6123a4573361237d85610dbd565b6001600160a01b0316146123a4576040516309e3bb1d60e31b815260040160405180910390fd5b6000848152601a60209081526040918290206001600160a01b03861660a086901b67ffffffffffffffff60a01b16811790915591516001600160401b038516815286917f4e06b4e7000e659094299b3533b47b6aa8ad048e95e872d23d1f4ee55af89cfe910160405180910390a350505050565b6012546060906001600160a01b03166124385760118054610d3a90613b8f565b601260009054906101000a90046001600160a01b03166001600160a01b031663e8a3d4856040518163ffffffff1660e01b815260040160006040518083038186803b15801561248657600080fd5b505afa15801561249a573d6000803e3d6000fd5b505050506040513d6000823e601f3d908101601f191682016040526124c29190810190613d11565b905090565b6000600d5442101580156124c2575050600f5460ff161590565b6124e961269e565b6001600160a01b03811661254e5760405162461bcd60e51b815260206004820152602660248201527f4f776e61626c653a206e6577206f776e657220697320746865207a65726f206160448201526564647265737360d01b6064820152608401610aed565b6112ba81612832565b61255f61269e565b601280546001600160a01b0319166001600160a01b0392909216919091179055565b6040516370a0823160e01b81523060048201526000906001600160a01b038316906370a082319060240160206040518083038186803b1580156125c357600080fd5b505afa1580156125d7573d6000803e3d6000fd5b505050506040513d601f19601f820116820180604052508101906125fb9190613c9f565b9050816001600160a01b031663a9059cbb61261e6018546001600160a01b031690565b6040516001600160e01b031960e084901b1681526001600160a01b03909116600482015260248101849052604401602060405180830381600087803b15801561266657600080fd5b505af115801561267a573d6000803e3d6000fd5b505050506040513d601f19601f820116820180604052508101906112d89190613d87565b6009546001600160a01b03620100009091041633146114725760405162461bcd60e51b815260206004820181905260248201527f4f776e61626c653a2063616c6c6572206973206e6f7420746865206f776e65726044820152606401610aed565b600061270a82612b12565b80610d255750506001600160e01b031916632b424ad760e21b1490565b6000805482108015610d25575050600090815260046020526040902054600160e01b161590565b60008160005481101561279d57600081815260046020526040902054600160e01b811661279b575b80612794575060001901600081815260046020526040902054612776565b9392505050565b505b604051636f96cda160e11b815260040160405180910390fd5b601754604051636e5f691960e01b81526001600160a01b0390911690636e5f6919906127ea90869086908690600401613da4565b600060405180830381600087803b15801561280457600080fd5b505af115801561227d573d6000803e3d6000fd5b611305828260405180602001604052806000815250612b37565b600980546001600160a01b038381166201000081810262010000600160b01b031985161790945560405193909204169182907f8be0079c531659141344cd1fd0a4f28419497f9722a3daafe3b4186f6b6457e090600090a35050565b60008261289b8584612b9d565b14949350505050565b60006128b86018546001600160a01b031690565b6001600160a01b03164760405160006040518083038185875af1925050503d8060008114612902576040519150601f19603f3d011682016040523d82523d6000602084013e612907565b606091505b50509050806112ba5760405162461bcd60e51b815260206004820152601f60248201527f436f756c64206e6f74207472616e736665722045544820746f2073706c6974006044820152606401610aed565b604051630a85bd0160e11b81526000906001600160a01b0385169063150b7a029061298d903390899088908890600401613e07565b602060405180830381600087803b1580156129a757600080fd5b505af19250505080156129d7575060408051601f3d908101601f191682019092526129d491810190613e44565b60015b612a32573d808015612a05576040519150601f19603f3d011682016040523d82523d6000602084013e612a0a565b606091505b508051612a2a576040516368d2bf6b60e11b815260040160405180910390fd5b805181602001fd5b6001600160e01b031916630a85bd0160e11b1490505b949350505050565b6060612a5b82612727565b612a7857604051630a14c4b560e41b815260040160405180910390fd5b6012546001600160a01b031615612b095760125460405163c87b56dd60e01b8152600481018490526001600160a01b039091169063c87b56dd9060240160006040518083038186803b158015612acd57600080fd5b505afa158015612ae1573d6000803e3d6000fd5b505050506040513d6000823e601f3d908101601f19168201604052610d259190810190613d11565b610d2582612bea565b600063152a902d60e11b6001600160e01b031983161480610d255750610d2582612c6e565b612b418383612cbc565b6001600160a01b0383163b156112d8576000548281035b612b6b6000868380600101945086612958565b612b88576040516368d2bf6b60e11b815260040160405180910390fd5b818110612b58578160005414611f5b57600080fd5b600081815b8451811015612be257612bce82868381518110612bc157612bc1613bca565b6020026020010151612db3565b915080612bda81613bf6565b915050612ba2565b509392505050565b6060612bf582612727565b612c1257604051630a14c4b560e41b815260040160405180910390fd5b6000612c1c612ddf565b9050805160001415612c3d5760405180602001604052806000815250612794565b80612c4784612dee565b604051602001612c58929190613e61565b6040516020818303038152906040529392505050565b60006301ffc9a760e01b6001600160e01b031983161480612c9f57506380ac58cd60e01b6001600160e01b03198316145b80610d255750506001600160e01b031916635b5e139f60e01b1490565b60005481612cdd5760405163b562e8dd60e01b815260040160405180910390fd5b6001600160a01b03831660008181526005602090815260408083208054680100000000000000018802019055848352600490915281206001851460e11b4260a01b178317905582840190839083907fddf252ad1be2c89b69c2b068fc378daa952ba7f163c4a11628f55a4df523b3ef8180a4600183015b818114612d8c57808360007fddf252ad1be2c89b69c2b068fc378daa952ba7f163c4a11628f55a4df523b3ef600080a4600101612d54565b5081612daa57604051622e076360e81b815260040160405180910390fd5b60005550505050565b6000818310612dcf576000828152602084905260409020612794565b5060009182526020526040902090565b606060108054610d3a90613b8f565b604080516080019081905280825b600183039250600a81066030018353600a900480612e1957612e1e565b612dfc565b50819003601f19909101908152919050565b828054612e3c90613b8f565b90600052602060002090601f016020900481019282612e5e5760008555612ea4565b82601f10612e7757805160ff1916838001178555612ea4565b82800160010185558215612ea4579182015b82811115612ea4578251825591602001919060010190612e89565b50612eb0929150612eb4565b5090565b5b80821115612eb05760008155600101612eb5565b6001600160a01b03811681146112ba57600080fd5b60008083601f840112612ef057600080fd5b5081356001600160401b03811115612f0757600080fd5b6020830191508360208260051b850101111561118c57600080fd5b803563ffffffff81168114612f3657600080fd5b919050565b8035612f3681612ec9565b600080600080600080600060a0888a031215612f6157600080fd5b8735612f6c81612ec9565b965060208801356001600160401b0380821115612f8857600080fd5b612f948b838c01612ede565b909850965060408a0135915080821115612fad57600080fd5b50612fba8a828b01612ede565b9095509350612fcd905060608901612f22565b91506080880135612fdd81612ec9565b8091505092959891949750929550565b60008060008060006060868803121561300557600080fd5b85356001600160401b038082111561301c57600080fd5b61302889838a01612ede565b9097509550602088013591508082111561304157600080fd5b5061304e88828901612ede565b9094509250613061905060408701612f22565b90509295509295909350565b6001600160e01b0319811681146112ba57600080fd5b60006020828403121561309557600080fd5b81356127948161306d565b60005b838110156130bb5781810151838201526020016130a3565b83811115611cbd5750506000910152565b600081518084526130e48160208601602086016130a0565b601f01601f19169290920160200192915050565b60208152600061279460208301846130cc565b60006020828403121561311d57600080fd5b5035919050565b6000806040838503121561313757600080fd5b823561314281612ec9565b946020939093013593505050565b634e487b7160e01b600052602160045260246000fd5b6001600160a01b03841681526001600160581b038316602082015260608101600383106131a357634e487b7160e01b600052602160045260246000fd5b826040830152949350505050565b6000806000606084860312156131c657600080fd5b83356131d181612ec9565b925060208401356131e181612ec9565b929592945050506040919091013590565b634e487b7160e01b600052604160045260246000fd5b60405161018081016001600160401b038111828210171561322b5761322b6131f2565b60405290565b604051601f8201601f191681016001600160401b0381118282101715613259576132596131f2565b604052919050565b600082601f83011261327257600080fd5b813560206001600160401b0382111561328d5761328d6131f2565b8160051b61329c828201613231565b92835284810182019282810190878511156132b657600080fd5b83870192505b848310156132de5782356132cf81612ec9565b825291830191908301906132bc565b979650505050505050565b600080600080600080600080600060e08a8c03121561330757600080fd5b893561331281612ec9565b985060208a0135975060408a01356001600160401b038082111561333557600080fd5b6133418d838e01613261565b985060608c013591508082111561335757600080fd5b6133638d838e01612ede565b909850965060808c013591508082111561337c57600080fd5b506133898c828d01612ede565b909550935061339c905060a08b01612f22565b915060c08a01356133ac81612ec9565b809150509295985092959850929598565b600080604083850312156133d057600080fd5b50508035926020909101359150565b60006001600160401b038211156133f8576133f86131f2565b50601f01601f191660200190565b600082601f83011261341757600080fd5b813561342a613425826133df565b613231565b81815284602083860101111561343f57600080fd5b816020850160208301376000918101602001919091529392505050565b60006020828403121561346e57600080fd5b81356001600160401b0381111561348457600080fd5b612a4884828501613406565b6000602082840312156134a257600080fd5b813561279481612ec9565b6000806000806000608086880312156134c557600080fd5b85359450602086013593506040860135925060608601356001600160401b038111156134f057600080fd5b6134fc88828901612ede565b969995985093965092949392505050565b6000806040838503121561352057600080fd5b8235915060208301356001600160401b0381111561353d57600080fd5b61118885828601613261565b80151581146112ba57600080fd5b8035612f3681613549565b6000806040838503121561357557600080fd5b823561358081612ec9565b9150602083013561359081613549565b809150509250929050565b600080600080608085870312156135b157600080fd5b84356135bc81612ec9565b935060208501356135cc81612ec9565b92506040850135915060608501356001600160401b038111156135ee57600080fd5b6135fa87828801613406565b91505092959194509250565b6000806000806000806080878903121561361f57600080fd5b86356001600160401b038082111561363657600080fd5b6136428a838b01612ede565b9098509650602089013591508082111561365b57600080fd5b5061366889828a01612ede565b909550935061367b905060408801612f22565b9150606087013561368b81612ec9565b809150509295509295509295565b600080602083850312156136ac57600080fd5b82356001600160401b038111156136c257600080fd5b6136ce85828601612ede565b90969095509350505050565b6000608082840312156136ec57600080fd5b604051608081016001600160401b03828210818311171561370f5761370f6131f2565b81604052829350843591508082111561372757600080fd5b61373386838701613406565b8352602085013591508082111561374957600080fd5b61375586838701613406565b6020840152604085013591508082111561376e57600080fd5b5061377b85828601613406565b604083015250606083013561378f81612ec9565b6060919091015292915050565b6000606082840312156137ae57600080fd5b604051606081018181106001600160401b03821117156137d0576137d06131f2565b60405290508082356137e181612ec9565b815260208301356001600160581b03811681146137fd57600080fd5b602082015260408301356003811061381457600080fd5b6040919091015292915050565b60008060008060008061010080888a03121561383c57600080fd5b873561384781612ec9565b965060208801356001600160401b038082111561386357600080fd5b90890190610180828c03121561387857600080fd5b613880613208565b82358281111561388f57600080fd5b61389b8d828601613406565b8252506020830135828111156138b057600080fd5b6138bc8d828601613406565b6020830152506138ce60408401613557565b6040820152606083013560608201526080830135608082015260a083013560a082015260c083013560c082015260e083013560e082015283830135848201526101209350838301358482015261014093508383013584820152610160935083830135848201528098505060408a013592508083111561394c57600080fd5b505061395a89828a016136da565b94505061396a886060890161379c565b925061397860c08801612f3b565b915061398660e08801612f3b565b90509295509295509295565b6000806000606084860312156139a757600080fd5b8335925060208401356139b981612ec9565b915060408401356001600160401b03811681146139d557600080fd5b809150509250925092565b600080604083850312156139f357600080fd5b82356139fe81612ec9565b9150602083013561359081612ec9565b60208082526015908201527414dc1b1a5d081b9bdd0818dc99585d1959081e595d605a1b604082015260600190565b8183526000602080850194508260005b85811015613a7b578135613a6081612ec9565b6001600160a01b031687529582019590820190600101613a4d565b509495945050505050565b8183526000602080850194508260005b85811015613a7b5763ffffffff613aac83612f22565b1687529582019590820190600101613a96565b600060018060a01b03808b168352808a16602084015260c06040840152613aea60c08401898b613a3d565b8381036060850152613afd81888a613a86565b63ffffffff969096166080850152509290921660a090910152509695505050505050565b608081526000613b3560808301888a613a3d565b8281036020840152613b48818789613a86565b63ffffffff95909516604084015250506001600160a01b0391909116606090910152949350505050565b600060208284031215613b8457600080fd5b815161279481612ec9565b600181811c90821680613ba357607f821691505b60208210811415613bc457634e487b7160e01b600052602260045260246000fd5b50919050565b634e487b7160e01b600052603260045260246000fd5b634e487b7160e01b600052601160045260246000fd5b6000600019821415613c0a57613c0a613be0565b5060010190565b6000816000190483118215151615613c2b57613c2b613be0565b500290565b600082613c4d57634e487b7160e01b600052601260045260246000fd5b500490565b60008219821115613c6557613c65613be0565b500190565b6020808252818101527f507572636861736520776f756c6420657863656564206d617820737570706c79604082015260600190565b600060208284031215613cb157600080fd5b5051919050565b600060018060a01b03808a16835260a06020840152613cdb60a08401898b613a3d565b8381036040850152613cee81888a613a86565b63ffffffff96909616606085015250929092166080909101525095945050505050565b600060208284031215613d2357600080fd5b81516001600160401b03811115613d3957600080fd5b8201601f81018413613d4a57600080fd5b8051613d58613425826133df565b818152856020838501011115613d6d57600080fd5b613d7e8260208301602086016130a0565b95945050505050565b600060208284031215613d9957600080fd5b815161279481613549565b6001600160a01b038481168252602080830185905260606040840181905284519084018190526000928583019290916080860190855b81811015613df8578551851683529483019491830191600101613dda565b50909998505050505050505050565b6001600160a01b0385811682528416602082015260408101839052608060608201819052600090613e3a908301846130cc565b9695505050505050565b600060208284031215613e5657600080fd5b81516127948161306d565b60008351613e738184602088016130a0565b835190830190613e878183602088016130a0565b0194935050505056fea2646970667358221220b70b3dde69c28d9e98fa88375663fb4336492cb995d1f56728b824f1198517ab64736f6c63430008090033",
  "linkReferences": {},
  "deployedLinkReferences": {}
}